:020000040800F2
:10000000A06800207902000881020008830200082D
:10001000850200088702000889020008000000002D
:100020000000000000000000000000009D0100082A
:100030008D02000800000000F1010008D949000805
:10004000930200089302000893020008930200083C
:10005000930200089302000893020008930200082C
:10006000930200089302000893020008930200081C
:10007000930200089302000893020008930200080C
:1000800093020008930200089302000893020008FC
:10009000930200089302000893020008110600086A
:1000A00093020008FD4A000893020008930200082A
:1000B00093020008930200089302000893020008CC
:1000C000930200089302000893020008A94900085F
:1000D00093020008930200082158000893020008C8
:1000E000F5050008D54800089302000893020008AF
:1000F000930200089302000893020008930200088C
:10010000930200089302000893020008930200087B
:1001100093020008DD4F00089302000893020008D4
:10012000930200089302000893020008930200085B
:10013000930200089302000893020008930200084B
:10014000930200089302000893020008930200083B
:10015000930200089302000893020008930200082B
:10016000930200089302000893020008930200081B
:1001700093020008930200089302000800000000A8
:100180009302000893020008DFF80CD000F0FEF89C
:1001900000480047956A0008A06800202B4B1968AA
:1001A000086800F058B880F30988BFF36F8F4FF0EC
:1001B000000080F3118870470000000006480068C6
:1001C000006880F3088862B661B6BFF34F8FBFF353
:1001D0006F8F00DF00BF00BF08ED00E0DFF80C000C
:1001E000016841F470010160704700BF88ED00E0D4
:1001F000EFF30980BFF36F8F144B1A681EF0100FD6
:1002000008BF20ED108A20E9F04F106008B44FF0CD
:10021000500080F31188BFF34F8FBFF36F8F08F04A
:10022000ABFB4FF0000080F3118808BC1968086828
:1002300000F016B81EF0100F08BF00F016B880F3DB
:100240000988BFF36F8F704700BF00BF1C000020FC
:10025000EFF30580704730C8B0E8C04FFFF7A3BF89
:1002600030C8B0E8C04FFFF7E5BFB0EC088AB0EC8B
:1002700008CAFFF7E4BF0000064880470648004769
:10028000FEE7FEE7FEE7FEE7FEE7FEE7FEE7FEE746
:10029000FEE7FEE7AD4A0008890100082DE9F05F9E
:1002A0000546002092469B468846064681464024E5
:1002B0001BE0284641464746224600F056F8534682
:1002C0005A46C01A914110D311461846224600F0F2
:1002D0003DF82D1A67EB01084F4622460120002108
:1002E00000F034F817EB00094E41201EA4F1010480
:1002F000DFDC484631462A46434600F000B830BCB1
:10030000BDE8C09F40EA01039B0703D009E008C98C
:10031000121F08C0042AFAD203E011F8013B00F8CA
:10032000013B521EF9D27047D2B201E000F8012B16
:10033000491EFBD270470022F6E710B513460A4665
:1003400004461946FFF7F0FF204610BD202A04DBC3
:10035000203A00FA02F1002070479140C2F12003D8
:1003600020FA03F3194390407047202A04DB203A17
:1003700021FA02F00021704721FA02F3D040C2F1C5
:10038000200291400843194670470000064C074D73
:1003900006E0E06840F0010394E807009847103455
:1003A000AC42F6D3FFF7F4FEE4A4000804A500086D
:1003B0002DE9F04104460D460027B8460026206886
:1003C000806800F00C0008B1012000E00020002847
:1003D00070D02068C06800F00070B0F1007F1FD1BD
:1003E000E06901281CD1A069012819D10C250EE073
:1003F000314886420AD3A06D40F01000A065E06D40
:1004000040F00100E0650120BDE8F081761C206825
:100410000068C0F380100028EAD0402021680860FE
:10042000602D10D02068806800F0040004280AD1F4
:100430002068806800F0020028B92068806840F0D9
:100440001000216888600C2D10D02068806800F0B2
:10045000080008280AD12068806800F0020028B946
:100460002068806840F0200021688860602D03D0FB
:100470006C2D03D10C2703E0082701E0042700BFFF
:1004800000BF01F08FF980460FE001F08BF9A0EB7F
:100490000800052809D9A06D40F01000A065E06DA6
:1004A00040F00100E0650120AEE720688068384038
:1004B0000028EAD10020A7E700340A0070B50446FE
:1004C00000252068806800F00300012806D120681C
:1004D000006800F0010008B1012000E0002080B3B6
:1004E0002068806800F00D00012800D100E00020A5
:1004F00050B100BF2068806840F002002168886029
:1005000003202168086009E0A06D40F01000A0659C
:10051000E06D40F00100E065012070BD01F042F99E
:1005200005460FE001F03EF9401B02280AD9A06DF4
:1005300040F01000A065E06D40F00100E065012092
:10054000EBE705E02068806800F001000028E9D1B1
:100550000020E2E770B5044600252068806800F0BE
:100560000300012806D12068006800F0010008B1EE
:10057000012000E0002088BB206880681C490840FA
:1005800008B9012000E0002048B9A06D40F010003B
:10059000A065E06D40F00100E065012070BD2068BD
:1005A000806840F001002168886001F0FBF8054692
:1005B00015E02068806840F001002168886001F043
:1005C000F1F8401B02280AD9A06D40F01000A06588
:1005D000E06D40F00100E0650120DFE705E0206804
:1005E000006800F001000028E3D00020D6E70000FA
:1005F0003F00008010B54FF4806000F0AFFF4FF473
:10060000006000F0ABFF4FF4004000F0A7FF10BD0A
:1006100010B51448006800F0400020B1124800787E
:10062000401C114908700F48006800F0800020B19C
:100630000E480078401C0D4908700A48006800F414
:10064000807020B10A480078401C09490870402099
:1006500000F084FF802000F081FF4FF4807000F0F4
:100660007DFF10BD140401407C00002080000020AC
:100670008400002000BFFEE770B59AB002460B462A
:100680000024186800B100BF00BF92F85400012890
:1006900002D102201AB070BD012082F8540000BFC0
:1006A000484D1068A84202D14748009001E0002060
:1006B0000090009850B9906D40F02000906500BF08
:1006C000002082F8540000BF0120E3E71068806832
:1006D000C0F38000002869D100988068C0F38000D2
:1006E000002863D139491868B8B358684FF40056E8
:1006F00096FAA6F6B6FA86F6556BB54028438D688D
:1007000025F46045284388601068806800F0030085
:10071000012806D11068006800F0010008B101202E
:1007200000E00020002846D10098806800F0030017
:10073000012806D10098006800F0010008B10120EE
:1007400000E0002088BB9D68186828438D6840F64B
:100750001F76B543284388602DE0FFE7886820F4C2
:10076000604088601068806800F00300012806D1AE
:100770001068006800F0010008B1012000E00020CE
:1007800098B90098806800F00300012806D100980D
:10079000006800F0010008B1012000E0002020B94D
:1007A000886840F61F75A843886004E0906D40F0AB
:1007B00020009065012400BF002082F8540000BF93
:1007C000204667E700000450000104500003045075
:1007D000F8B50246002500200090C868B0F1804FAF
:1007E00000D000E000BF00BF92F85400012801D102
:1007F0000220F8BD012082F8540000BF1068806814
:10080000C0F3800000287DD1486805281BD21068FD
:10081000006B0E794FF4F86797FAA7F7B7FA87F7E6
:100820007E431F27B740B8430F794FF4F86C9CFA0A
:10083000ACFCBCFA8CFC07FB0CF70E68BE403043E6
:100840001668306363E048680A281ED21068466B59
:100850000879401F4FF4F86797FAA7F7B7FA87F7B8
:1008600078431F27874026EA07000E79761F4FF44A
:10087000F86C9CFAACFCBCFA8CFC06FB0CF60F681E
:10088000B74038431668706341E048680F281ED2AD
:100890001068866B08790A384FF4F86797FAA7F75B
:1008A000B7FA87F778431F27874026EA07000E79B3
:1008B0000A3E4FF4F86C9CFAACFCBCFA8CFC06FBCC
:1008C0000CF60F68B74038431668B0631FE0106835
:1008D000C66B08790F384FF4F86797FAA7F7B7FA9D
:1008E00087F778431F27874026EA07000E790F3ED7
:1008F0004FF4F86C9CFAACFCBCFA8CFC06FB0CF6D2
:100900000F6800E042E2B74038431668F0631068B1
:10091000806800F00C0008B1012000E000200028F1
:1009200072D108680A281DD31068866908780A38C9
:10093000382797FAA7F7B7FA87F77843072787404A
:1009400026EA07000E780A3E4FF0380C9CFAACFC01
:10095000BCFA8CFC06FB0CF68F68B740384316686F
:10096000B06119E0106840690E78382797FAA7F748
:10097000B7FA87F77E430727B740B8430F784FF0A1
:10098000380C9CFAACFCBCFA8CFC07FB0CF78E68AC
:10099000BE4030431668706148691668F668C6F351
:1009A000C106760000FA06F40869012806D002287C
:1009B00017D0032829D004284DD139E01068006EE3
:1009C000F84E30404FF0F84797FAA7F7B7FA87F795
:1009D0000E68BE4046F00046264330431668306637
:1009E0008AE01068406EEF4E30404FF0F84797FABB
:1009F000A7F7B7FA87F70E68BE4046F000462643D1
:100A000030431668706677E077E01068806EE54ED8
:100A100030404FF0F84797FAA7F7B7FA87F70E6814
:100A2000BE4046F00046264330431668B06663E099
:100A30001068C06EDB4E30404FF0F84797FAA7F7CA
:100A4000B7FA87F70E68BE4046F0004626433043AB
:100A50001668F06650E01068006E00F0F8464FF03F
:100A6000F84797FAA7F7B7FA87F70868B8408642B9
:100A700005D11068006E20F00040166830661068DE
:100A8000406E00F0F8464FF0F84797FAA7F7B7FA2C
:100A900087F70868B840864205D11068406E20F09C
:100AA0000040166870661068806E00F0F8464FF0DF
:100AB000F84797FAA7F7B7FA87F70868B840864269
:100AC00005D11068806E20F000401668B06610688E
:100AD000C06E00F0F8464FF0F84797FAA7F7B7FA5C
:100AE00087F70868B840864205D11068C06E20F0CC
:100AF00000401668F06600BF00BF1068806800F014
:100B00000300012806D11068006800F0010008B158
:100B1000012000E0002000287AD1C868B0F1804FA1
:100B20000AD01068D0F8B0000F780126BE40B0435C
:100B30001668C6F8B00047E01068D0F8B0000F782B
:100B40000126BE4030431668C6F8B0000868092880
:100B50001DD31068866908780938382797FAA7F7EF
:100B6000B7FA87F778430727874026EA07000E7809
:100B7000093E4FF0380C9CFAACFCBCFA8CFC06FB2E
:100B80000CF68F68B74038431668B0611CE01068F7
:100B900046690878401C382797FAA7F7B7FA87F70D
:100BA00078430727874026EA07000E78761C4FF027
:100BB000380C9CFAACFCBCFA8CFC06FB0CF68F687B
:100BC000B740384316687061774B0868112803D125
:100BD000986800F4000070B10868122803D1986882
:100BE00000F0807038B10868002895D1986800F44A
:100BF0008000002890D11068806800F00300012870
:100C000007D11068006800F0010010B1012001E078
:100C100098E0002000286ED1644E1068B04224D1C4
:100C20006348006800F00300012807D160480838D5
:100C3000006800F0010008B1012000E0002080B948
:100C40005948F838006800F00300012807D15848D7
:100C5000F830006800F0010008B1012000E0002039
:100C600008B101204DE000204BE0514E083E1068D5
:100C7000B04223D14D48806800F00300012806D11E
:100C80004A48006800F0010008B1012000E000209F
:100C900080B94548F838006800F00300012807D102
:100CA0004348F830006800F0010008B1012000E07E
:100CB000002008B101200FE000200DE03B488068D3
:100CC00000F00300012806D13848006800F0010058
:100CD00008B1012000E0002080B93548006800F02C
:100CE0000300012808D132480838006800F00100EC
:100CF00010B1012001E037E0002008B1012000E040
:100D0000002088BB086811281DD1284E1068B04209
:100D100004D0274EF8361068B0423CD1986840F4B1
:100D20000000986023480068234EB0FBF6F0C0EB4B
:100D30000010C000009002E00098401E0090009853
:100D40000028F9D127E0086812280ED1174E106844
:100D5000B04204D0164EF8361068B0421BD19868E5
:100D600040F08070986016E00AE0086898B90F4E6D
:100D70001068B0420FD1986840F4800098600AE093
:100D8000906D40F020009065012504E0906D40F0EA
:100D900020009065012500BF002082F8540000BFAC
:100DA000284626E500F0FF0300030450000004502D
:100DB000080104506000002080841E00014608687D
:100DC000006C7047F8B5044600270025002000900D
:100DD0000CB90120F8BD206918B1606A012800D162
:100DE00000BFA06D30B9204600F07CF90020E0651E
:100DF00084F854002068806800F00050B0F1005F73
:100E000005D12068806820F0005021688860206843
:100E1000806800F08050A8B92068806840F0805059
:100E200021688860A9480068A949B0FBF1F000EB8F
:100E300080004000009002E00098401E0090009862
:100E40000028F9D12068806800F0805040B9A06D7A
:100E500040F01000A065E06D40F00100E065012762
:100E6000A06D00F01000002879D120688068C0F3E0
:100E700080000028F8D1A06D40F00200A065954EDA
:100E80002068806800F00300012806D1206800680F
:100E900000F0010008B1012000E0002000287CD112
:100EA0008D492068884224D18C48006800F00300F6
:100EB000012807D189480838006800F0010008B10E
:100EC000012000E0002080B98248F838006800F076
:100ED0000300012807D18148F830006800F00100C4
:100EE00008B1012000E0002008B101204EE0002000
:100EF0004CE07A4908392068884223D176488068D6
:100F000000F00300012806D17348006800F00100DA
:100F100008B1012000E0002080B96E48F838006870
:100F200000F00300012807D16C48F830006800F099
:100F3000010008B1012000E0002008B1012010E00C
:100F400000200EE06448806800F00300012807D10B
:100F50006148006800F0010010B1012001E0AEE03E
:100F6000002080B95D48006800F00300012808D126
:100F70005A480838006800F0010010B1012001E073
:100F80000BE0002008B1012000E0002028B9B06883
:100F900020F47C1061680843B0604FF4005191FA6E
:100FA000A1F1B1FA81F1E0698840A16B0843E168E1
:100FB0000843A16808434FF4803292FAA2F2B2FAD1
:100FC00082F2616A914040EA0105606A012809D114
:100FD000A06A401E4FF4602191FAA1F1B1FA81F1AB
:100FE00088400543E06A012805D0206B18B1D4E998
:100FF0000B01084305432068C0683949084028436D
:101000002168C8602068806800F00C0008B10120E9
:1010100000E0002090BB4FF4804191FAA1F1B1FAB9
:1010200081F1A0698840022292FAA2F2B2FA82F219
:10103000616B914040EA01052068C06844F20201FA
:10104000884328432168C860E06B012817D1E06A13
:10105000012801D0206B00B900BF206C40F00101D5
:10106000606C0843A16C0843E16C0843216809697E
:1010700040F2FD72914308432168086105E0206851
:10108000006920F00100216808612069012809D168
:101090002068006B20F00F00216A491E0843216878
:1010A000086305E02068006B20F00F0021680863EA
:1010B000A06D20F0020040F00100A06504E0A06DEA
:1010C00040F01000A0650127384683E6600000204C
:1010D00080841E00000304500000045008010450E6
:1010E00007C0F0FF10B586B004462C49206888423E
:1010F0002CD12B480068401C29490860084600682C
:1011000001280DD100BF2748C06C40F4005025498C
:10111000C8640846C06C00F40050009000BF00BFD7
:10112000922001900B2002900020039001A94FF023
:10113000904000F021FA102001900B200290002036
:10114000039001A9184800F017FA24E01749206815
:10115000884220D112480068401C114908600846A6
:10116000006801280DD100BF0E48C06C40F400504B
:101170000C49C8640846C06C00F40050009000BFE1
:1011800000BF082001900B2002900020039001A9CD
:10119000054800F0F1F906B010BD00000000045051
:1011A00068000020001002400008004800020450BF
:1011B0002DE9F04704460D464FF0000800260027B1
:1011C0004FF001096069082801D108263FE05E4917
:1011D0002068884203D05D492068884214D15C4869
:1011E000006800F01F0068B15948006800F01F0057
:1011F000052807D05648006800F01F00092801D0D4
:10120000012002E0002000E0002058B92068C068FA
:1012100000F00100D0B1A06D40F02000A0650120D9
:10122000BDE8F0874A48006800F44040B0F5004F40
:1012300006D04748006800F44040B0F5404F05D163
:10124000A06D40F02000A0650120E9E7042600F031
:10125000A9FA804613E0681C88B12DB100F0A2FA0B
:10126000A0EB0800A8420AD9A06D40F00400A065D8
:1012700000BF002084F8540000BF0320D0E720689E
:10128000006830400028E6D02068006800F00800C0
:1012900008B94FF000092C492068884203D02D4935
:1012A0002068884201D1012013E02948006800F03D
:1012B0001F0058B12648006800F01F00052805D01F
:1012C0002348006800F01F00092801D1012000E038
:1012D000002010B12068C7680DE01B4920688842D3
:1012E00003D01C492068884201D1206800E01648DC
:1012F0008246DAF80C70082E03D1082021680860B5
:1013000005E007F4804010B9042021680860A06D52
:1013100040F40070A065B9F1000F13D02068C068D8
:1013200000F4406070B907F4005058B9A06D20F483
:101330008070A065A06D00F4805018B9A06D40F0D9
:101340000100A06500206BE700000450000104507C
:10135000080304500002045070B5044600252068BC
:101360008068C0F38000002874D100BF94F8540056
:10137000012801D1022070BD012084F8540000BF73
:101380002046FFF7E7F80546002D72D1A06D00F466
:101390008050B0F5805F04D1E06D20F00600E0657C
:1013A00001E00020E065A06D40F60161884340F453
:1013B0008070A0653C492068884203D03B49206882
:1013C000884201D1012007E03948006800F01F0081
:1013D00008B9012000E0002018B1A06D20F48010B1
:1013E000A0651C20216808602F492068884203D02E
:1013F0002E492068884201D1012013E02C48006862
:1014000000F01F0058B12A48006800F01F000528AE
:1014100005D02748006800F01F00092801D10120ED
:1014200000E00020B8B12068C06800F0007028B16A
:10143000A06D20F4005040F48050A06500BF002053
:1014400084F8540000BF2068806840F004002168E0
:10145000886026E024E0A06D40F48010A065124969
:101460002068884203D011492068884202D1206850
:1014700001E010E00C480646F06800F0007028B16A
:10148000A06D20F4005040F48050A06500BF002003
:1014900084F8540005E000BF002084F8540000E008
:1014A0000225284667E700000000045000020450AF
:1014B0000803045070B50446002500BF94F854009A
:1014C000012801D1022070BD012084F8540000BF22
:1014D0006C212046FEF76CFF054655B92046FEF705
:1014E000EDFF05462DB9A06D20F4885040F00100B5
:1014F000A06500BF002084F8540000BF2846E2E742
:1015000070B50446002594F82500022803D0042075
:10151000E06301251EE02068006820F00E002168CD
:1015200008602068006820F001002168086094F8D5
:10153000441001208840216C4860012084F8250077
:1015400000BF002084F8240000BFA06B10B120462B
:10155000A16B8847284670BD7047000010B504464F
:1015600004480068204020B1024804602046FFF78C
:10157000F3FF10BD1404014078B503460022002497
:101580000020E5E0012696400D6805EA0604002CDF
:101590007DD04D68022D02D04D68122D13D1D60892
:1015A00003F1200555F826005507EE0E0F25B5402E
:1015B000A8435607F60E0D69B5402843D60803F137
:1015C000200545F82600186856000325B540A843B5
:1015D0000D7905F003055600B540284318604D68A5
:1015E000012D08D04D68022D05D04D68112D02D077
:1015F0004D68122D13D1986856000325B540A843B5
:101600005600CD68B540284398605868012595403C
:10161000A8430D79C5F300159540284358600D790E
:1016200005F00305032D09D1D86A01259540A8438B
:101630000D79C5F3C00595402843D862D868560097
:101640000325B540A84356008D68B5402843D860AF
:101650004D6805F08055B5F1805F78D100BF3F4DF2
:101660002D6E45F001053D4E356635462D6E05F073
:101670000105009500BF00BF4FEAB635960855F842
:10168000260095072E0F0F25B540A84300E05EE029
:10169000B3F1904F01D100251EE0314DAB4201D195
:1016A000012519E02F4DAB4201D1022514E02E4D4A
:1016B000AB4201D103250FE02C4DAB4201D10425F3
:1016C0000AE02B4DAB4201D1052505E0294DAB4287
:1016D00001D1062500E007259607360FB5402843BF
:1016E000254D960845F82600244D2868A0434D68EE
:1016F00005F48035B5F5803F00D120431F4D2860AB
:101700002D1D2868A0434D6805F40035B5F5003F50
:1017100000D12043194D2D1D28602D1D2868A043A0
:101720004D6805F48015B5F5801F00D12043134D99
:10173000083528602D1D2868A0434D6805F4001564
:10174000B5F5001F00D120430C4D0C352860521C0C
:101750000D68D540002D7FF415AF78BD0010024014
:101760000004004800080048000C00480010004831
:10177000001400480018004808000140000401401F
:10178000024613690B400BB1012000E000207047B6
:1017900042694A40426170470AB1816100E081625A
:1017A0007047000001480068704700005C0000209E
:1017B000024692F8410020282DD100BF92F8400047
:1017C000012801D102207047012082F8400000BFAB
:1017D000242082F841001068006820F0010013689E
:1017E00018601068006820F4805013681860106852
:1017F00000680843136818601068006840F0010032
:1018000013681860202082F8410000BF002082F891
:10181000400000BFD7E70220D5E7000010B504461E
:101820000CB9012010BD94F8410028B9002084F8BB
:101830004000204600F054F8242084F8410020683D
:10184000006820F0010021680860606820F0706086
:10185000216808612068806820F400402168886061
:10186000E068012805D1A06840F400402168886044
:1018700004E0A06840F4044021688860E068022821
:1018800002D18002216848602068406813490843FB
:10189000216848602068C06820F400402168C86062
:1018A000D4E904010843A16940EA01202168C86025
:1018B000D4E907010843216808602068006840F007
:1018C00001002168086000206064202084F8410045
:1018D0000020206384F8420000BFA3E700800002DC
:1018E00010B586B004461149206888421BD10320F8
:1018F0000190122002900120039003200490042004
:10190000059001A90A48FFF737FE00BF0948806D1E
:1019100040F40000074988650846806D00F4000027
:10192000009000BF00BF06B010BD0000005C00408A
:10193000000800480010024002480068401C0149AD
:10194000086070475C00002010B50848006840F44B
:10195000807006490860032000F0E4F8002000F0E1
:1019600007F800F049F8002010BD000000200240F8
:1019700070B588B0044600250026002221461920B3
:1019800000F08FF8192000F07FF800BF1648006EB5
:1019900040F40060144908660846006E00F40060D8
:1019A000019000BF00BF02A903A800F07BFC00F07B
:1019B000B7FC05460D48B5FBF0F0461E0C480D4936
:1019C000086040F2E7310B48C160466000210161C8
:1019D000816001F0B7FD20B9064801F0E3FD08B0D1
:1019E00070BD0120FBE700000010024040420F00E4
:1019F000002C01401860002008B500BF2148006E8F
:101A000040F001001F4908660846006E00F0010022
:101A1000009000BF00BF00BF0846806D40F08050BE
:101A200088650846806D00F08050009000BF00BFC0
:101A3000032000F077F8002211466FF00B0000F051
:101A400030F8002211466FF00A0000F02AF8002258
:101A500011466FF0090000F024F800221146501FD3
:101A600000F01FF800221146101F00F01AF80022A3
:101A70000F21901E00F015F800220F21501E00F0DB
:101A800010F808BD0010024000BF00F01F02012145
:101A900091404209920002F1E022C2F8001100BF19
:101AA00070472DE9F05F80460D461646002702F08C
:101AB000D9FC074639462A46334601F00700C0F1F3
:101AC000070ABAF1040F02D94FF0040A01E0C0F18D
:101AD000070AD14600F1040ABAF1070F02D24FF00B
:101AE000000A01E0A0F1030AD4464FF0010A0AFA05
:101AF00009FAAAF1010A0AEA020A0AFA0CFA4FF0F4
:101B0000010B0BFA0CFBABF1010B0BEA030B4AEADE
:101B10000B042146404602F0ADFC00F000B830BC9A
:101B2000BDE8C09F00BF00F00702064B19684FF6E2
:101B3000FF031940044B0B4343EA0221014B196098
:101B400000BF70470CED00E00000FA0502460021DE
:101B5000B2F5007F29D11D48006800F4C060B0F5DF
:101B6000007F31D01948006820F4C06040F4007054
:101B7000164B186016480068164BB0FBF3F0322382
:101B800000FB03F100E0491E31B11048406900F448
:101B90008060B0F5806FF6D00C48406900F480603A
:101BA000B0F5806F10D1032070470848006800F43A
:101BB000C060B0F5806F07D00448006820F4C060B2
:101BC00040F48060014B18600020EDE70070004099
:101BD0006000002040420F000248006800F4C0602E
:101BE00070470000007000402DE9F84304460026CD
:101BF00000270025A846208800F40060B0F5006F9B
:101C000030D1606E80B1B0F5800F13D0B0F5000F09
:101C100003D0B0F5400F15D113E0FA48C06840F486
:101C20008030F849C8600FE00021201D02F036FC2A
:101C3000054609E0002104F1200002F025FD0546DB
:101C400002E001E0012500BF00BF55B9ED48883032
:101C5000006820F44000616E0843EA49C1F888003A
:101C600000E0A846208800F48050B0F5805F30D1B5
:101C7000A06E80B1B0F1807F13D0B0F1007F03D0AF
:101C8000B0F1407F15D113E0DE48C06840F48030E9
:101C9000DC49C8600FE00021201D02F0FFFB054673
:101CA00009E0002104F1200002F0EEFC054602E00C
:101CB00001E0012500BF00BF55B9D2488830006857
:101CC00020F04070A16E0843CE49C1F8880000E0C2
:101CD000A846206800F40030B0F5003F76D14FF000
:101CE0000009C848806D00F0805078B900BFC54831
:101CF000806D40F08050C34988650846806D00F0D3
:101D00008050009000BF00BF4FF00109BE4800683E
:101D100040F48070BC490860FFF744FD074606E0C8
:101D2000FFF740FDC01B022801D9032505E0B64896
:101D3000006800F480700028F2D000BF85BBB14875
:101D40009030006800F44076D6B1D4F88400B042F8
:101D500016D0AC489030006820F44076A948D0F8FE
:101D6000900040F48030A749C1F890000846D0F8B0
:101D7000900020F48030C1F890000846C0F89060D0
:101D800006F00100A8B1FFF70DFD074609E0FFF7D7
:101D900009FDC01B41F28831884202D9032507E0C2
:101DA00017E098489030006800F002000028EED05C
:101DB00000BF65B993489030006820F44070D4F8B3
:101DC000841008438F49C1F8900003E00CE0A84656
:101DD00000E0A846B9F1010F05D18A48806D20F0D6
:101DE00080508849886500BF207800F0010048B124
:101DF00084488830006820F00300A16B08438149C3
:101E0000C1F88800207800F00200022809D17D483E
:101E10008830006820F00C00E16B08437949C1F874
:101E20008800207800F00400042809D17548883023
:101E3000006820F03000216C08437249C1F8880026
:101E4000207800F00800082809D16E488830006822
:101E500020F0C000616C08436A49C1F8880020780E
:101E600000F01000102809D166488830006820F47E
:101E70004070A16C08436349C1F88800207800F0E5
:101E80002000202809D15F488830006820F4406095
:101E9000E16C08435B49C1F88800208800F40070B9
:101EA000B0F5007F09D157488830006820F4402001
:101EB000E16D08435349C1F88800208800F4806030
:101EC000B0F5806F09D14F488830006820F4401089
:101ED000216E08434B49C1F88800207800F040008B
:101EE000402809D147488830006820F44050216DCF
:101EF00008434449C1F88800207800F08000802819
:101F000009D140488830006820F44040616D0843A2
:101F10003C49C1F88800208800F48070B0F5807FCB
:101F200009D138488830006820F44030A16D08435A
:101F30003449C1F88800208800F40050B0F5005FF3
:101F40001FD130488830006820F04060E16E0843BF
:101F50002C4988310860E06EB0F1006F06D1294845
:101F6000C06840F480102749C8600AE0E06EB0F114
:101F7000806F06D10121201D02F090FA054605B1BF
:101F8000A846206800F40020B0F5002F1FD11D489E
:101F90008830006820F04060216F0843194988317B
:101FA0000860206FB0F1006F06D11648C06840F499
:101FB00080101449C8600AE0206FB0F1806F06D12C
:101FC0000121201D02F06AFA054605B1A8462068E5
:101FD00000F48020B0F5802F23D10A4888300068B3
:101FE00020F04060616F0843064988310860606FE7
:101FF000B0F1006F0AD10348C06840F48010014975
:10200000C8600EE00010024000700040606FB0F148
:10201000806F06D10121201D02F040FA054605B16E
:10202000A846208800F48040B0F5804F1FD1224898
:10203000006820F04050A16F08431F490860A06F5E
:10204000B0F1805F07D10221201D02F027FA05467A
:102050006DB1A8460BE0A06FB0F1005F07D102217F
:1020600004F1200002F010FB054605B1A8462088C7
:1020700000F40040B0F5004F09D10F48006820F08F
:102080008040E16F08430C498839C1F88800206816
:1020900000F48030B0F5803F0AD10748006820F096
:1020A0000040D4F88010084303498839C1F88800FB
:1020B0004046BDE8F88300008810024070B5044631
:1020C0000D4600267348006800F00700A8420ED2B3
:1020D0007048006820F0070028436E4908600846F1
:1020E000006800F00700A84201D0012070BD2078F0
:1020F00000F00200022807D16748806820F0F00055
:10210000A168084364498860207800F00100002835
:1021100079D06068022806D15F48006800F400307A
:10212000D8B90120E2E76068032806D15A48006860
:1021300000F0007088B90120D8E7606830B95648CF
:10214000006800F0020040B90120CFE75248006863
:1021500000F4806008B90120C8E74F48806820F08B
:102160000300616808434C498860FFF71BFB064683
:102170006068022810D108E0FFF714FB801B41F2D1
:102180008831884201D90320B0E74348806800F0D5
:102190000C000828F0D136E06068032810D108E070
:1021A000FFF700FB801B41F28831884201D90320F0
:1021B0009CE73948806800F00C000C28F0D122E040
:1021C000606880B908E0FFF7EDFA801B41F28831C2
:1021D000884201D9032089E72F48806800F00C006D
:1021E0000028F0D10FE008E0FFF7DCFA801B41F295
:1021F0008831884201D9032078E72748806800F0B9
:102200000C000428F0D12348006800F00700A84221
:102210000ED92048006820F0070028431D490860B7
:102220000846006800F00700A84201D001205DE7E1
:10223000207800F00400042807D11748806820F4B3
:10224000E060E168084314498860207800F00800E5
:10225000082808D11048806820F46050216940EABD
:10226000C1000D49886000F071F80B49896801F0E0
:10227000F001F02292FAA2F2B2FA82F2D140074AB9
:10228000515CC840064908600020FFF771FB002040
:102290002CE70000002002400010024024A40008A7
:1022A000600000200F2202600D4A926802F00302D3
:1022B00042600B4A926802F0F0028260084A92681B
:1022C00002F4E062C260064A926802F46052D208E8
:1022D0000261044A126802F007020A6070470000B7
:1022E00000100240002002400148006870470000D2
:1022F0006000002000B5FFF7F7FF0749896801F487
:10230000E0614FF4E06292FAA2F2B2FA82F2D140B6
:10231000024A515CC84000BD0010024034A40008CD
:1023200000B5FFF7E1FF0749896801F460514FF4F8
:10233000605292FAA2F2B2FA82F2D140024A515CA1
:10234000C84000BD0010024034A40008F0B50021D0
:1023500000230024022502220020554EB66806F014
:102360000C065EB1524EB66806F00C060C2E2DD14E
:102370004F4EF66806F00306012E27D14C4E366804
:1023800006F008066EB94A4E9436366806F4706652
:102390004FF4706797FAA7F7B7FA87F726FA07F1AD
:1023A0000AE0434E366806F0F006F02797FAA7F7E2
:1023B000B7FA87F726FA07F13E4E56F821103C4E41
:1023C000B66806F00C0686B908460EE0384EB668C8
:1023D00006F00C06042E01D1374806E0344EB668EC
:1023E00006F00C06082E00D13448314EB66806F0CF
:1023F0000C060C2E5BD12E4EF66806F003042C4E14
:10240000F66806F07006702797FAA7F7B7FA87F70D
:10241000FE40721C012C29D0022C02D0032C24D1A6
:1024200011E0254EB6FBF2F6214FFF6807F4FE4798
:102430004FF4FE4C9CFAACFCBCFA8CFC27FA0CF76F
:1024400006FB07F323E01D4EB6FBF2F6184FFF68BC
:1024500007F4FE474FF4FE4C9CFAACFCBCFA8CFC33
:1024600027FA0CF706FB07F311E000BFB1FBF2F609
:102470000F4FFF6807F4FE474FF4FE4C9CFAACFC8C
:10248000BCFA8CFC27FA0CF706FB07F300BF00BF71
:10249000074EF66806F0C0664FF0C06797FAA7F7D8
:1024A000B7FA87F7FE40761C7500B3FBF5F0F0BD78
:1024B000001002403CA400080024F40000127A003E
:1024C000F8B504460025207800F01000102874D1DB
:1024D000FE48806800F00C00002870D1FB480068BE
:1024E00000F0020018B1A06908B90120F8BDF74852
:1024F000216A006800F0080020B1F448006800F08C
:10250000F00005E0F1489430006800F470600009C4
:1025100081421FD9206A02F08DF908B10120E5E758
:1025200000BFEA48006840F00800E8490860084633
:10253000006820F0F000216A0843E449086000BF09
:102540000846406820F47F40E16940EA0120DF4905
:1025500048601EE000BFDD48006840F00800DB492D
:1025600008600846006820F0F000216A0843D74957
:10257000086000BF0846406820F47F40E16940EAF7
:102580000120D2494860206A02F054F908B10120C4
:10259000ACE7FFF7DBFECD49896801F0F001F022DE
:1025A00092FAA2F2B2FA82F2D140C94A515CC84012
:1025B000C84908600020FFF7DBF94BE0FFE7A0699E
:1025C00080B3C248006840F00100C0490860FFF7CE
:1025D000E9F8054606E0FFF7E5F8401B022801D9B7
:1025E000032083E7B948006800F002000028F2D019
:1025F00000BFB648006840F00800B44908600846CB
:10260000006820F0F000216A0843B049086000BF6C
:102610000846406820F47F40E16940EA0120AB4968
:10262000486017E0FFE7A948006820F00100A749CB
:102630000860FFF7B7F8054606E0FFF7B3F8401B60
:10264000022801D9032051E7A048006800F00200E9
:102650000028F2D1207800F00100002868D09B48C3
:10266000806800F00C0008280BD09848806800F0C3
:102670000C000C280ED19548C06800F00300032818
:1026800008D19248006800F4003088B3606878BBD5
:1026900001202BE700BF6068B0F5803F06D18B4872
:1026A000006840F48030894908601AE06068B0F53D
:1026B000A02F0BD18548006840F480208349086032
:1026C0000846006840F4803008600AE07F480068EF
:1026D00020F480307D4908600846006820F480209E
:1026E000086000BF606890B1FFF75CF8054607E03E
:1026F0001EE0FFF757F8401B642801D90320F5E6D8
:102700007248006800F400300028F2D010E0FFF7B3
:1027100049F8054606E0FFF745F8401B642801D953
:102720000320E3E66948006800F400300028F2D195
:10273000207800F0020002286AD16448806800F026
:102740000C0004280BD06148806800F00C000C28B5
:102750001ED15E48C06800F00300022818D15B4813
:10276000006800F4806018B1E06808B90120BDE697
:102770005648406820F0F8504FF0F85292FAA2F212
:10278000B2FA82F2216991400843504948603FE023
:10279000E06830B34D48006840F480704B490860F1
:1027A000FFF700F8054606E0FEF7FCFF401B022895
:1027B00001D903209AE64548006800F480600028AB
:1027C000F2D04248406820F0F8504FF0F85292FAA8
:1027D000A2F2B2FA82F22169914008433B49486073
:1027E00016E03A48006820F4807038490860FEF727
:1027F000D9FF054606E0FEF7D5FF401B022801D9A8
:10280000032073E63148006800F480600028F2D1AC
:10281000207800F00800082836D16069D0B12B4834
:102820009430006840F001002849C1F89400FEF798
:10283000B9FF054606E0FEF7B5FF401B022801D9A7
:10284000032053E621489430006800F0020000287D
:10285000F1D019E01D489430006820F001001B49B8
:10286000C1F89400FEF79EFF054606E0FEF79AFFCA
:10287000401B022801D9032038E614489430006830
:1028800000F002000028F1D1207800F004000428B4
:102890006FD100260D48806D00F0805070B900BFE8
:1028A0000A48806D40F08050084988650846806D70
:1028B00000F08050009000BF00BF0126064800686D
:1028C00000F48070F8B90448006807E00010024086
:1028D00024A40008600000200070004040F48070D4
:1028E00087490860FEF75EFF054606E0FEF75AFFDF
:1028F000401B022801D90320F8E58148006800F454
:1029000080700028F2D000BFA068012808D17D485F
:10291000006840F001007B499039C1F8900021E047
:10292000A06805280FD17748006840F00400754979
:102930009039C1F890000846D0F8900040F00100AE
:10294000C1F890000EE06F48006820F001006D496A
:102950009039C1F890000846D0F8900020F00400AB
:10296000C1F8900000BFA068A0B1FEF71BFF0546AC
:1029700009E02DE0FEF716FF401B41F28831884246
:1029800001D90320B2E55F48006800F0020000288A
:10299000F0D012E0FEF706FF054608E0FEF702FF62
:1029A000401B41F28831884201D903209EE55548F9
:1029B000006800F002000028F0D1012E07D1514834
:1029C0009038806D20F080504E499039886500BF66
:1029D000A06AE8B34B489038806800F00C000C28DF
:1029E00079D0A06A022853D146489038006820F078
:1029F0008070444990390860FEF7D4FE054606E031
:102A0000FEF7D0FE401B022801D903206EE53D48A9
:102A10009038006800F000700028F1D1206B401E53
:102A20000101606B41EA0021A06B000941EA4040CE
:102A3000E16A0843A18F0122C2EB510140EA4151F2
:102A40004020005DC2EB500041EA40602D4900E0AB
:102A500053E09039C8600846006840F08070086014
:102A60000846C06840F08070C860FEF79BFE0546CF
:102A700006E0FEF797FE401B022801D9032035E54A
:102A800020489038006800F000700028F1D034E051
:102A90001C489038006820F080701A49903908600E
:102AA0000846006800F0006048B90846006800F079
:102AB000005020B90846C06820F00300C8601148E3
:102AC0009038C068104908400E499039C860FEF738
:102AD00069FE054607E00EE0FEF764FE401B022893
:102AE00001D9032002E507489038006800F0007023
:102AF0000028F1D101E00120F8E40020F6E4000014
:102B00000070004090100240FFFFEEFE70477047DB
:102B100010B5044620688068C0F3003078B12068A2
:102B2000C068C0F3002050B12046FFF7F0FF2068D6
:102B3000C06800F0800060F4C0702168C860206840
:102B40008068C0F3403078B12068C068C0F340208E
:102B500050B12046FFF7DAFF2068C06800F080001F
:102B600060F420702168C8604FF48020024908603A
:102B7000012084F8210010BD1404014070B5054601
:102B80000B4616460024286840680E4900EA0104F6
:102B9000200CD870C4F30420587004F03F009870E3
:102BA000C4F3423018705EB9D87801F0A5FED87031
:102BB000587801F0A1FE5870987801F09DFE987049
:102BC000002070BD3FFFFF0070B504460B4616465F
:102BD00000252068806A586020680069C0F30E00F4
:102BE0009860206800680F4900EA0105C5F30540B8
:102BF0001870C5F30620587005F07F00987005F432
:102C00008000000CD8705EB9187801F075FE18705D
:102C1000587801F071FE5870987801F06DFE987048
:102C2000002070BD7F7F7F0010B504460CB90120E5
:102C300010BD94F8210028B9002084F82000204617
:102C400000F054F8022084F8210000BFCA20216857
:102C5000486253202168486200BF204601F064FEAC
:102C600048B100BFFF202168486200BF042084F8FB
:102C700021000120DCE7206880681B4908402168AA
:102C80008860216960680843A169084321688968F0
:102C90000843216888602168E0680861206801694C
:102CA000208941EA0040216808612068C06820F05E
:102CB00080002168C8602068C06C20F00300216893
:102CC000C8646169E06908432168C96C08432168E8
:102CD000C86400BFFF202168486200BF012084F85B
:102CE00021000020A4E70000BFFF8FFF10B50446BD
:102CF0000A49206888420FD10948006840F4004022
:102D000007499039C1F89000002205212920FEF7DB
:102D1000C8FE2920FEF7B8FE10BD000000280040C4
:102D2000901002402DE9F04704460D461646002754
:102D3000B846B94600BF94F82000012802D102200D
:102D4000BDE8F087012084F8200000BF022084F84D
:102D5000210046BB2068806800F0400000B102E01E
:102D60000020E87000BFE86900B900E000BF2878E3
:102D700001F0CDFD0304687801F0C9FD43EA0023AA
:102D8000A87801F0C4FD0343E87843EA004395F8CE
:102D9000200001F0BCFD43EA0060E969084369696D
:102DA00040EA01082DE02068806800F0400020B172
:102DB000287801F0A1FD804602E00020E87000BF05
:102DC000E86928B995F8200001F096FD804605E0F5
:102DD00095F8200001F090FD804600BF287800049F
:102DE000697840EA0120A9780843E97840EA01407F
:102DF00095F8201040EA0160E9690843696940EAF2
:102E00000108A969686840EA010900BFCA20216871
:102E1000486253202168486200BF686AB0F5807F2D
:102E20003FD12068806820F4807021688860206825
:102E3000C06800F0800060F4C0702168C860FEF7D0
:102E4000B1FC074614E0FEF7ADFCC01BB0F57A7F7D
:102E50000ED900BFFF202168486200BF032084F81C
:102E6000210000BF002084F8200000BF032067E796
:102E70002068C06800F001000028E4D02068C0F895
:102E80001C802068C0F844902068806840F48070FE
:102E9000216888602068806840F4805021688860DC
:102EA0003EE02068806820F4007021688860206817
:102EB000C06800F0800060F420702168C860FEF7F0
:102EC00071FC074614E0FEF76DFCC01BB0F57A7F7D
:102ED0000ED900BFFF202168486200BF032084F89C
:102EE000210000BF002084F8200000BF032027E756
:102EF0002068C068C0F340000028E4D02068C0F813
:102F000020802068C0F848902068806840F40070F5
:102F1000216888602068806840F4005021688860DB
:102F20000E48006840F480200C4908600B480830C7
:102F3000006840F4802009490831086000BFFF2084
:102F40002168486200BF012084F8210000BF0020F2
:102F500084F8200000BF00BFF2E60000000401403A
:102F60002DE9F04104460D461646002700BF94F8AF
:102F70002000012802D10220BDE8F081012084F860
:102F8000200000BF022084F821004EB9687800F0CC
:102F90001000102804D1687800F0EF000A30687043
:102FA00086B9E87801F0B3FC0304687801F0AFFC5F
:102FB00043EA0023A87801F0AAFC0343287843EAF7
:102FC000403711E0687801F097FC0746A87801F0D7
:102FD00093FC0746E8780004697840EA0120A97864
:102FE0000843297840EA413700BFCA202168486277
:102FF00053202168486200BF204601F095FC70B163
:1030000000BFFF202168486200BF042084F821002F
:1030100000BF002084F8200000BF0120ACE7184862
:103020003840216848602068C06820F0800021682E
:10303000C8602068806800F0200090B9204600F049
:10304000BDF870B100BFFF202168486200BF0420B6
:1030500084F8210000BF002084F8200000BF012078
:103060008AE700BFFF202168486200BF012084F882
:10307000210000BF002084F8200000BF00BF7BE7D4
:103080003FFFFF002DE9F04104460D46164600279C
:1030900000BF94F82000012802D10220BDE8F08191
:1030A000012084F8200000BF022084F82100CEB95E
:1030B0002068806800F0400000B102E00020E87065
:1030C00000BF287801F023FC0304687801F01FFC9E
:1030D00043EA0023A87801F01AFC0343E87843EAA6
:1030E000004716E02068806800F0400020B1287892
:1030F00001F002FC074602E00020E87000BF2878DB
:103100000004697840EA0120A9780843E97840EA98
:10311000014700BFCA2021684862532021684862E5
:1031200000BF204601F000FC70B100BFFF20216805
:10313000486200BF042084F8210000BF002084F80A
:10314000200000BF0120A9E71B4838402168086023
:103150002068806820F48020216888602068C0682A
:1031600020F080002168C8602068806800F020009E
:1031700090B9204600F022F870B100BFFF2021680E
:10318000486200BF042084F8210000BF002084F8BA
:10319000200000BF012081E700BFFF2021684862B6
:1031A00000BF012084F8210000BF002084F8200027
:1031B00000BF00BF72E700007F7F7F0070B504464C
:1031C00000252068C06820F0A0002168C860FEF7D4
:1031D000E9FA054607E0FEF7E5FA401BB0F57A7F0D
:1031E00001D9032070BD2068C06800F020000028CD
:1031F000F1D00020F6E77047F8B50446206846682D
:103200002068856805F0400048B905F0010030B13C
:1032100006F0400018B12046E16C8847F8BD05F083
:10322000020030B106F0800018B12046216D8847B9
:10323000F4E705F4B070002877D006F020000028ED
:1032400073D005F04000F0B194F85D0003280ED073
:10325000206E40F00400206600BF0020009020682F
:10326000C068009020688068009000BF0BE000BF3D
:10327000002000902068C06800902068806800905E
:1032800000BF00BFCAE705F0200088B1206E40F003
:103290000100206600BF0020009020688068009038
:1032A0002068006820F040002168086000BF00BF6F
:1032B00005F4807058B1206E40F00800206600BF11
:1032C0000020009020688068009000BF00BF206E42
:1032D00028B32068406820F0E000216848600120A1
:1032E00084F85D0006F00200022802D006F001001A
:1032F000B8B12068406820F0030021684860A06DE4
:1033000028B10B48A16D8863A06DFEF7F9F8606DD8
:1033100028B10748616D8863606DFEF7F1F803E03E
:1033200003E02046FFF767FF78E700BF76E700007D
:10333000B949000870B504460CB9012070BD606A37
:1033400000B900BF0021A16294F85D0028B90020F7
:1033500084F85C00204600F04DF8022084F85D00FF
:103360002068006820F0400021680860E068B0F53F
:10337000E06F01D9002501E04FF48055E068B0F519
:10338000706F05D0E068B0F5E06F01D00021A16258
:10339000206B40B9E068B0F5E06F02D902212163EB
:1033A00001E001212163D4E90101084321690843B7
:1033B00061690843218B01F400710843E169084306
:1033C000216A0843A16A0843216808600421A069B2
:1033D00001EA1040616A0843616B0843E1680843F1
:1033E00028432168486000202066012084F85D00A1
:1033F0000020A3E710B586B004461C492068884227
:1034000032D100BF1A48006E40F480501849086657
:103410000846006E00F48050009000BF00BF60209E
:1034200001900220029000200390032004900520C8
:10343000059001A94FF09040FEF79EF820200190E2
:1034400002200290002003900320049005200590A4
:1034500001A90848FEF790F8002211462320FEF744
:1034600020FB2320FEF710FB06B010BD003001400A
:103470000010024000040048042808D14FF0E02169
:10348000096941F004014FF0E022116107E04FF0BB
:10349000E021096921F004014FF0E0221161704739
:1034A00070B504462546681EB0F1807F01D3012027
:1034B0000FE0681E4FF0E02148610F214FF0FF3010
:1034C00000F0D8FF00204FF0E0218861072008615C
:1034D000002070BD7047704730B502460B4600BFF4
:1034E00092F83800012801D1022030BD012082F875
:1034F000380000BF10684168106884680F4D10687C
:10350000A84203D00E4D1068A84203D121F47001E7
:103510005868014321F070011868014324F08004C9
:1035200098680443106841601068846000BF002000
:1035300082F8380000BF00BFD7E70000002C014030
:103540000034014010B504460CB9012010BD94F8B8
:10355000390028B9002084F83800204600F00CF823
:10356000022084F83900211D206801F0CFFA0120E3
:1035700084F839000020E9E708B50168B1F1804F0F
:103580000DD100BF0649896D41F00101044A9165E2
:103590001146896D01F00101009100BF00BF08BD17
:1035A0000010024001460868C06840F001000A6847
:1035B000D0600868006840F001000A6810600020D0
:1035C000704701460868C06820F001000A68D060B2
:1035D00000BF0868006A41F21112104050B9086833
:1035E000006A9210104028B90868006820F00100B5
:1035F0000A68106000BF0020704700002DE9F0410C
:1036000004460D46002600BF94F83800012802D178
:103610000220BDE8F081012084F8380000BF0220BC
:1036200084F83900206886684148064026F47F46C1
:1036300020688660286850283CD00CDC202861D0A7
:1036400004DC002854D0102866D156E030285ED023
:10365000402861D142E0602836D070280ED0B0F505
:10366000805F03D0B0F5005F56D116E02068806817
:103670002F4970310840216888604EE0D5E9021377
:103680006A68206801F0A2FA206886682848064027
:1036900046F07706206886603FE0D5E902136A6845
:1036A000206801F093FA2068806840F48040216827
:1036B000886032E0EA686968206801F063FC5021A4
:1036C000206801F08FFA28E0EA686968206801F054
:1036D0006EFC6021206801F085FA1EE0EA686968E6
:1036E000206801F04FFC4021206801F07BFA14E0D3
:1036F0000021206801F076FA0FE01021206801F027
:1037000071FA0AE02021206801F06CFA05E030210E
:10371000206801F067FA00E000BF00BF012084F8D4
:10372000390000BF002084F8380000BF00BF70E7F8
:1037300088FFFEFF704710B5044620680069C0F39B
:103740004000D8B12068C068C0F34000B0B16FF04D
:10375000020021680861012020762068806900F05D
:10376000030018B12046FFF7E5FF05E0204600F012
:10377000C7F8204600F0B2F90020207620680069E2
:10378000C0F38000D8B12068C068C0F38000B0B139
:103790006FF00400216808610220207620688069AB
:1037A00000F4407018B12046FFF7C4FF05E0204642
:1037B00000F0A6F8204600F091F90020207620685D
:1037C0000069C0F3C000D8B12068C068C0F3C00071
:1037D000B0B16FF0080021680861042020762068ED
:1037E000C06900F0030018B12046FFF7A3FF05E011
:1037F000204600F085F8204600F070F90020207681
:1038000020680069C0F30010D8B12068C068C0F318
:103810000010B0B16FF01000216808610820207618
:103820002068C06900F4407018B12046FFF782FF9D
:1038300005E0204600F064F8204600F04FF9002033
:1038400020762068006900F0010058B12068C06847
:1038500000F0010030B16FF00100216808612046DE
:1038600000F03EF920680069C0F3C01058B120682C
:10387000C068C0F3C01030B16FF0800021680861EB
:103880002046FFF727FE20680069C0F3801058B17A
:103890002068C068C0F3801030B16FF0400021682C
:1038A0000861204600F028F920680069C0F3401044
:1038B00058B12068C068C0F3401030B16FF02000EC
:1038C000216808612046FFF706FE10BD10B586B0DE
:1038D00004460949206888420CD1801501900220D5
:1038E00002900020039004900220059001A9034853
:1038F000FDF742FE06B010BD00080040000400487D
:10390000704770B504460D46164600BF94F838005F
:10391000012801D1022070BD012084F8380000BFC9
:10392000022084F839000C2E51D005DC4EB1042E53
:103930001ED0082E7AD133E0102E60D0142EF9D18B
:1039400075E02946206801F057F92068806940F049
:103950000800216888612068806920F004002168DF
:10396000886120688069296908432168886177E057
:103970002946206801F098F92068806940F40060C9
:10398000216888612068806920F4806021688861EE
:1039900020688069296940EA0120216888615FE028
:1039A0002946206801F0DEF92068C06940F008006F
:1039B0002168C8612068C06920F004002168C861DE
:1039C0002068C069296908432168C86148E0294620
:1039D000206801F023FA2068C06940F40060216883
:1039E000C8612068C06920F480602168C8612068CF
:1039F000C069296940EA01202168C86130E0294690
:103A0000206801F049FA2068406D40F00800216804
:103A100048652068406D20F00400216848652068F2
:103A2000406D296908432168486519E017E0294677
:103A3000206801F06BFA2068406D40F40060216856
:103A400048652068406D20F48060216848652068E2
:103A5000406D296940EA01202168486500E000BF07
:103A600000BF012084F8390000BF002084F838002E
:103A700000BF00BF4FE710B504460CB9012010BDD0
:103A800094F8390028B9002084F83800204600F066
:103A90000DF8022084F83900211D206801F036F865
:103AA000012084F839000020E9E7000008B5094A40
:103AB000016891420DD100BF0749896D41F00401B1
:103AC000054A91651146896D01F00401009100BF1E
:103AD00000BF08BD00080040001002407047000011
:103AE00010B5044603492068884201D1FDF724FF40
:103AF00010BD0000002C0140704770477047000067
:103B00002DE9F04104462068C5692068066805F083
:103B10000F08B8F1000F0AD105F0200038B106F007
:103B2000200020B1204601F083FBBDE8F081206831
:103B30008768B8F1000F7DD007F0010018B906F4CE
:103B40009070002876D005F0010048B106F480702E
:103B500030B1012021680862E06E40F00100E066AB
:103B600005F0020048B107F0010030B102202168E1
:103B70000862E06E40F00400E06605F0040048B121
:103B800007F0010030B1042021680862E06E40F0C7
:103B90000200E06605F0080060B106F0200010B9F0
:103BA00007F0010030B1082021680862E06E40F0A3
:103BB0000800E066E06E68B305F0200028B106F06A
:103BC000200010B1204601F033FBE06E00F0080049
:103BD00028B92068806800F04000402824D12046A1
:103BE00001F006FB2068806800F04000402817D1F3
:103BF0002068806820F0400021688860606E58B1BD
:103C00002248616E8863606EFDF77AFC10B1606EC9
:103C1000816B88470DE00DE02046FFF76FFF08E05D
:103C20002046FFF76BFF04E02046FFF767FF002008
:103C3000E0667AE72068876805F4801078B107F4B9
:103C4000800060B14FF4801021680862202084F861
:103C5000690084F86A002046FFF74FFF65E705F02A
:103C6000800030B106F0800018B1204601F06DFDF3
:103C70005BE705F0400030B106F0400018B1204687
:103C800001F0C6FA51E700BF4FE70000D951000824
:103C900010B504460CB9012010BDA06900B100E0C8
:103CA00000BF94F8690028B9002084F86800204615
:103CB00000F02AF8242084F869002068006820F0C9
:103CC000010021680860204601F0F8FA012800D1BF
:103CD000E2E7606A10B1204601F0C8F92068406848
:103CE00020F49040216848602068806820F02A0015
:103CF000216888602068006840F001002168086041
:103D0000204601F02FFAC7E710B586B004463149C6
:103D10002068884232D100BF2F48806D40F4801067
:103D20002D4988650846806D00F48010009000BF22
:103D300000BF88140190022002900120039003200C
:103D400004900820059001A92448FDF715FC0420E3
:103D5000019002200290012003900320049008208B
:103D6000059001A91E48FDF707FC0022052135201A
:103D7000FDF797FE3520FDF787FE28E019492068FA
:103D8000884224D100BF1448806D40F400301249AD
:103D900088650846806D00F40030009000BF00BFC9
:103DA0000C20019002200290002003900320049038
:103DB0000720059001A94FF09040FDF7DDFB0022A0
:103DC00005212620FDF76DFE2620FDF75DFE06B0DD
:103DD00010BD0000005000400010024000080048E4
:103DE000000C0048004400402DE9F84F04460D4601
:103DF000164699464FF0000A94F86A0020287AD1B6
:103E000005B116B9012000F078B800BF94F8680039
:103E1000012801D10220F6E7012084F8680000BFE4
:103E20000020583460612220A074FDF7BBFC82465C
:103E300026806680583C00BFA068B0F5805F0AD13C
:103E4000206920B940F2FF10A4F85C001CE0FF20BC
:103E5000A4F85C0018E0A06848B9206918B9FF20F0
:103E6000A4F85C0010E07F20A4F85C000CE0A068DF
:103E7000B0F1805F08D1206918B97F20A4F85C00F8
:103E800002E03F20A4F85C0000BFB4F85C8024E0AE
:103E9000B4F85A00401EA4F85A00534600222021CC
:103EA0002046CDF8009001F085FC08B10320AAE778
:103EB000A068B0F5805F09D1206938B92F46206825
:103EC000808C00EA08003880AD1C06E02068808CF9
:103ED00008F0FF01084005F8010BB4F85A0000286B
:103EE000D6DC202084F86A0000BF002084F8680037
:103EF00000BF88E7FFE7022085E718BCBDE8E08F38
:103F000070472DE9F84304460D4616461F464FF00C
:103F1000000994F86900202854D105B116B9012090
:103F2000BDE8F88300BF94F86800012801D10220A1
:103F3000F6E7012084F8680000BF00205034E061FB
:103F400021206076FDF72EFC814626806680503C5D
:103F500021E0B4F85200401EA4F852004B46002263
:103F600080212046009701F025FC08B10320D7E707
:103F7000A068B0F5805F0AD1206940B9A846B8F8BA
:103F80000000C0F3080021680885AD1C03E015F8A7
:103F9000010B21680885B4F852000028D9DC4B4693
:103FA000002240212046009701F004FC08B10320C4
:103FB000B6E7202084F8690000BF002084F868007C
:103FC00000BFADE70220ABE77047000000B589B045
:103FD0002148224908600020486000211F48816074
:103FE000C16001610421416100218161C161012140
:103FF00001620021416201218162C16200210163ED
:1040000041638163C163FCF7DDFE08B1FCF732FB5D
:104010000020069006A91148FCF72EFB08B1FCF71A
:1040200029FB0920009001200190002002900390BC
:104030000490059069460948FCF7CAFB08B1FCF7F3
:1040400019FB0D20009069460448FCF7C1FB08B13C
:10405000FCF710FB09B000BD0000045054600020C4
:1040600000B587B018481949086000204860002151
:1040700016488160C16001610421416100218161B4
:10408000C161012101620021416201218162C1629D
:104090000021016341638163C163FCF793FE08B1B2
:1040A000FCF7E8FA04200190012002900020039020
:1040B00004900590069001A90448FCF789FB08B11B
:1040C000FCF7D8FA07B000BD00020450BC60002025
:1040D00000B587B000BF5C48C06C40F004005A498E
:1040E000C8640846C06C00F00400019000BF00BF27
:1040F00000BF0846C06C40F08000C8640846C06C31
:1041000000F08000019000BF00BF00BF0846C06CF7
:1041100040F00100C8640846C06C00F00100019046
:1041200000BF00BF00BF0846C06C40F00200C8647A
:104130000846C06C00F00200019000BF00BF00BF45
:104140000846C06C40F00800C8640846C06C00F027
:104150000800019000BF00BF4FF4005002903B48A0
:1041600003900020049002A93948FDF705FA40F6B3
:10417000244002900120039000200490059002A9A1
:104180003348FDF7F9F94BF24D00029001200390FE
:1041900000200490059002A92E48FDF7EDF94FF498
:1041A000806002902C4803900020049002A92948C6
:1041B000FDF7E2F94FF4E0700290274803900220E7
:1041C000049002A92248FDF7D7F94FF40840029065
:1041D000214803900020049002A94FF09040FDF781
:1041E000CBF94FF4805002900120039000200490FE
:1041F000059002A94FF09040FDF7BEF9002240F66D
:1042000024411348FDF7C8FA00224BF24D01114832
:10421000FDF7C2FA00224FF480514FF09040FDF7B5
:10422000BBFA002205211720FDF73BFC1720FDF704
:104230002BFC002205212820FDF733FC2820FDF768
:1042400023FC07B000BD0000001002400000121067
:1042500000080048000400480000111010B50E4886
:104260000E4908600E48486000210C488160012119
:10427000C1600021016141618161C1610162FDF79D
:10428000CDFA08B1FCF7F6F900210448FDF790FAE1
:1042900008B1FCF7EFF910BD005C0040246100207C
:1042A000EC9C901010B50A480A490860002048604C
:1042B0007F2108488160FF21C160002101614161C7
:1042C0008161C161FEF7B0FC08B1FCF7D3F910BD04
:1042D000002800407061002010B5114811490860A5
:1042E0004FF48270486000210E4881604FF44071A5
:1042F000C1600021016141614FF4007181610021C1
:10430000C1610162416281620721C16200210163D2
:1043100008214163FFF70EF808B1FCF7ABF910BDB7
:10432000003001409461002000B587B04FF080401C
:104330001249086000204860002110488160602117
:10434000C16000210161FFF7FDF808B1FCF792F9A7
:104350004FF48050039003A90848FFF74FF908B1C4
:10436000FCF788F900200090029069460348FFF7A7
:10437000B3F808B1FCF77EF907B000BDF861002082
:1043800000B58BB015481649086000204860002130
:1043900013488160C1600161FFF76DFB08B1FCF754
:1043A00069F9002008900A9008A90D48FFF794F8D1
:1043B00008B1FCF75FF960200190002002900390A3
:1043C0000590082201A90648FFF79BFA08B1FCF7FF
:1043D00051F90348FFF77AFA0BB000BD000800401E
:1043E0003462002010B50D480D4908604FF4165096
:1043F000486000210A488160C16001610C2141616F
:1044000000218161C16101620020054948620846BE
:10441000FFF73EFC08B1FCF72DF910BD005000403D
:104420007062002010B50D480D4908604FF4E1306E
:10443000486000210A488160C16001610C2141612E
:1044400000218161C161016200200549486208467E
:10445000FFF71EFC08B1FCF70DF910BD0044004049
:10446000E062002002480068C0F3022070470000AC
:104470000CED00E010B5002807DA0A07140E054A13
:1044800000F00F031B1FD45403E00A07130E024A67
:10449000135410BD18ED00E000E400E02DE9F041F8
:1044A00004460E46002700257348C06800F003004C
:1044B000C0B17148C06800F00300216888420FD184
:1044C000206868B16C48C06800F07000702191FAF3
:1044D000A1F1B1FA81F1C840401C6168884238D02E
:1044E000012536E02068012804D0022809D00328DD
:1044F0001AD10DE06048006800F0020000B9012503
:1045000014E05D48006800F4806000B901250DE00A
:104510005948006800F4003028B95748006800F492
:10452000802000B9012501E0012500BF00BF85B949
:10453000D4E90010401E702292FAA2F2B2FA82F27E
:10454000904008434C49C96821F0730108434A4927
:10455000C860002D77D14848006820F08060464947
:104560000860FDF71FF9074606E0FDF71BF9C01BC1
:10457000022801D9032505E03F48006800F00060EB
:104580000028F2D100BF002D73D1CEB94FF4FE4107
:1045900091FAA1F1B1FA81F1A0688840E1680909B6
:1045A0004FF4003292FAA2F2B2FA82F2914008433A
:1045B00031490969314A114008432F49086138E0FF
:1045C000012E1BD14FF4FE4191FAA1F1B1FA81F114
:1045D000A068884001222169C2EB51014FF4C0025A
:1045E00092FAA2F2B2FA82F2914008432249096992
:1045F000234A11400843204908611AE04FF4FE4164
:1046000091FAA1F1B1FA81F1A068884001226169B3
:10461000C2EB51014FF0C06292FAA2F2B2FA82F2FA
:104620009140084314490969164A11400843124948
:1046300008611148006840F080600F490860FDF78C
:10464000B1F8074607E014E0FDF7ACF8C01B0228FC
:1046500001D9032505E00848006800F00060002843
:10466000F2D000BF2DB904480069A169084302498E
:1046700008612846BDE8F08100100240FF80FDFF80
:10468000FF809FFFFF80FFF92DE9F04104460E46B1
:10469000002700256448C06800F00300C0B16248EC
:1046A000C06800F00300216888420FD1206868B11B
:1046B0005D48C06800F07000702191FAA1F1B1FA74
:1046C00081F1C840401C6168884238D0012536E03D
:1046D0002068012804D0022809D003281AD10DE04F
:1046E0005148006800F0020000B9012514E04E486E
:1046F000006800F4806000B901250DE04A480068B8
:1047000000F4003028B94848006800F4802000B95F
:10471000012501E0012500BF00BF85B9D4E90010E3
:10472000401E702292FAA2F2B2FA82F2904008433E
:104730003D49C96821F0730108433B49C860002D19
:104740006FD13948006820F0805037490860FDF784
:1047500029F8074606E0FDF725F8C01B022801D915
:10476000032505E03048006800F000500028F2D131
:1047700000BFE5BBCEB94FF4FE4191FAA1F1B1FA09
:1047800081F1A0688840E16809094FF4003292FA8B
:10479000A2F2B2FA82F29140084323494969234ABE
:1047A00011400843204948611AE04FF4FE4191FA54
:1047B000A1F1B1FA81F1A068884001222169C2EB20
:1047C00051014FF0C06292FAA2F2B2FA82F2914025
:1047D000084315494969164A11400843124948617E
:1047E0001148006840F080500F49086000E018E070
:1047F000FCF7D8FF074606E0FCF7D4FFC01B0228F1
:1048000001D9032505E00848006800F000500028A1
:10481000F2D000BF2DB904484069616908430249DC
:1048200048612846BDE8F08100100240FF80FDFF8E
:10483000FF80FFF9F8B50446002600252348806D67
:1048400000F0805018B1FDF7C7F9064616E000BF2A
:104850001E48806D40F080501C4988650846806D78
:1048600000F08050009000BF00BFFDF7B5F906468C
:104870001648806D20F0805014498865B6F5007F99
:1048800007D1802C10D9A02C01D902250CE00125DC
:104890000AE0802C01D9032506E0802C01D10225F5
:1048A00002E0702C00D101250948006820F00700C3
:1048B0002843074908600846006800F00700A8423E
:1048C00001D00120F8BD0020FCE7000000100240EC
:1048D0000020024008B5002000900548FEF718F9B6
:1048E00000231A4669460348006804F061FF08BDCA
:1048F00070610020D0000020014600BF080900EBD5
:104900008000420001F00F001044C0B27047014621
:10491000002203E0521CA1F10A00C1B20A29F9DA0F
:10492000100741EA1060704770B504460025206802
:10493000C06800F04000A0B9681E2168C860FCF79C
:1049400031FF054607E0FCF72DFF401BB0F57A7FED
:1049500001D9032070BD2068C06800F04000002825
:10496000F1D00020F6E7000070B506460C4615466B
:104970005DB90C48046001200A4948600020886045
:104980000320C8603046FCF7F7FD012D09D105482A
:104990000460002003494860012088603046FCF72D
:1049A000EBFD70BD8864002010B50248FEF724FCC2
:1049B00010BD00009461002070B50546AC6A00206F
:1049C000A4F84600E0872046FEF715FC70BD00BF46
:1049D000012002F017FCFBE710B502F024FC10BD2B
:1049E00010B5B8B0062027900120299000022A9027
:1049F00010202B9002203190022127A8C1620121B2
:104A000001630A214163072181630221C1630164BB
:104A1000FDF756FD08B1FBF72DFE0F202290032075
:104A200023900020249025902690042122A8FDF7B1
:104A300045FB08B1FBF71EFE1B48009000200F90BD
:104A4000129016904FF080501E9000152190022079
:104A50000190012102910821039107210491022173
:104A600005910691C10507916846FDF7BDF808B1AB
:104A7000FBF700FE4FF40070FDF768F808B1FBF794
:104A8000F9FDFDF731FC4FF47A71B0FBF1F42046EB
:104A9000FEF706FD0420FEF7EFFC00220F21501E5A
:104AA000FCF7FFFF38B010BD12410200104800684B
:104AB00040F470000E4908600E48006840F00100A4
:104AC0000C49086000208860084600680A490840D0
:104AD000084908608814C8600846006820F48020EF
:104AE000086000208861C803014980390860704768
:104AF00088ED00E000100240FFFFF6EA10B5024822
:104B0000FEF719FE10BD00001860002000220268A8
:104B1000264B98420ED0B0F1804F0BD0244B9842D8
:104B200008D0244B984205D0234B984202D0234B07
:104B3000984203D122F070024B681A431B4B9842F3
:104B400017D0B0F1804F14D0194B984211D0194BA7
:104B500098420ED0184B98420BD0184B984208D070
:104B6000174B984205D0174B984202D0164B9842EB
:104B700003D122F44072CB681A4302608B68C3628F
:104B80000B688362094B98420BD00C4B984208D0BB
:104B90000B4B984205D00B4B984202D00A4B9842DF
:104BA00001D10B690363012343617047002C01406D
:104BB0000004004000080040000C004000340140A8
:104BC00000400140004401400048014030B50C461F
:104BD0000021816821F47F4142EA032525432943CE
:104BE000816030BD0A460021816821F0700142F0E9
:104BF000070319438160704730B500240022002369
:104C0000056A25F001050562026A43688469204D42
:104C10002C4024F003040D682C4322F002028D681E
:104C20002A431C4DA84200D10FE01B4DA84200D1E1
:104C30000BE01A4DA84200D107E0194DA84200D15F
:104C400003E0184DA84206D100BF22F00802CD684B
:104C50002A4322F004020F4DA8420BD00E4DA84269
:104C600008D00E4DA84205D00D4DA84202D00D4DE2
:104C7000A84207D123F4807323F400734D692B43BA
:104C80008D692B43436084614D684563026230BD8A
:104C90008FFFFEFF002C0140003401400040014026
:104CA000004401400048014030B5002400220023A8
:104CB000056A25F010050562026A43688469234D80
:104CC0002C4024F440740D6844EA052422F02002AC
:104CD0008D6842EA05121E4DA84200D10FE01D4D1D
:104CE000A84200D10BE01C4DA84200D100BF1B4DD3
:104CF000A84200D100BF1A4DA84207D106E022F019
:104D00008002CD6842EA051222F04002104DA8420E
:104D10000BD0104DA84208D00F4DA84205D00F4D22
:104D2000A84202D00E4DA84209D123F4806323F497
:104D300000634D6943EA85038D6943EA8503436057
:104D400084614D688563026230BD0000FF8FFFFE05
:104D5000002C01400034014000400140004401406B
:104D60000048014030B5002400220023056A25F4E4
:104D700080750562026A4368C469224D2C4024F0A4
:104D800003040D682C4322F400728D6842EA052268
:104D90001D4DA84200D10FE01C4DA84200D10BE0F0
:104DA0001B4DA84200D100BF1A4DA84200D100BF40
:104DB000194DA84207D106E022F40062CD6842EA0C
:104DC000052222F48062104DA8420BD00F4DA8425C
:104DD00008D00F4DA84205D00E4DA84202D00E4D6E
:104DE000A84209D123F4805323F400534D6943EAC8
:104DF00005138D6943EA05134360C4614D68C563BB
:104E0000026230BD8FFFFEFF002C014000340140E4
:104E100000400140004401400048014030B50022FC
:104E200000230024056A25F480550562036A44685E
:104E3000C269134D2A4022F440720D6842EA0522ED
:104E400023F400538D6843EA05330E4DA8420BD07E
:104E50000D4DA84208D00D4DA84205D00C4DA842DA
:104E600002D00C4DA84204D124F480444D6944EA98
:104E700085144460C2614D680564036230BD000062
:104E8000FF8FFFFE002C0140003401400040014034
:104E9000004401400048014030B5002400220023B6
:104EA000056A25F480350562026A4368446D114D38
:104EB0002C400D682C4322F400320D8942EA054251
:104EC0000D4DA8420BD00D4DA84208D00C4DA84264
:104ED00005D00C4DA84202D00B4DA84204D123F4BA
:104EE00080334D6943EA0523436044654D68856519
:104EF000026230BD8FFFFEFF002C014000340140F4
:104F000000400140004401400048014030B5002409
:104F100000220023056A25F480150562026A4368B1
:104F2000446D124D2C400D6844EA052422F4001211
:104F30000D8942EA05520E4DA8420BD00D4DA842F4
:104F400008D00D4DA84205D00C4DA84202D00C4D02
:104F5000A84204D123F480234D6943EA85234360AA
:104F600044654D68C565026230BD0000FF8FFFFEDD
:104F7000002C014000340140004001400044014049
:104F80000048014030B50B46144600210022026A59
:104F9000056A25F001050562816921F0F00141EA09
:104FA000041122F00A021A438161026230BD30B559
:104FB0000B46144600210022056A25F01005056203
:104FC0008169026A21F4704141EA043122F0A002B1
:104FD00042EA03128161026230BD000038B5002050
:104FE000009001241D480068006820F020001B4943
:104FF0000968086019480068808C194908700846DB
:1050000000787E281ED164230222491C1348FEF733
:10501000EBFE134880781249497800EB0120401CD0
:1050200080B200906423BDF800200D49C91C0B48D4
:10503000FEF7DAFE044600230A4A69460A48006879
:1050400004F0B6FB0548FEF75BFD04480068006805
:1050500040F0200001490968086038BD70620020F6
:10506000BE63002064000020E400002090F82410BB
:1050700001F0010139B10168496821F40031826A07
:1050800011430268516090F8241001F002010229D6
:1050900007D10168496821F48031C26A114302686E
:1050A000516090F8241001F00401042907D101682F
:1050B000496821F48021026B11430268516090F825
:1050C000241001F00801082907D10168496821F47A
:1050D0000041426B11430268516090F8241001F0C6
:1050E0001001102907D10168896821F48051826B71
:1050F00011430268916090F8241001F020012029EA
:1051000007D10168896821F40051C26B114302681C
:10511000916090F8241001F04001402913D10168FA
:10512000496821F48011026C114302685160016CDE
:10513000B1F5801F07D10168496821F4C001426CB4
:1051400011430268516090F8241001F08001802919
:1051500007D10168496821F40021826C114302687B
:105160005160704738B5044600250020E066FCF722
:1051700019FB05462068006800F0080008280CD1DB
:105180006FF07E402B4600224FF400110090204625
:1051900000F010FB08B1032038BD2068006800F063
:1051A000040004280CD16FF07E402B4600224FF4FF
:1051B00080010090204600F0FDFA08B10320EBE7E3
:1051C000202084F8690084F86A0000BF002084F879
:1051D000680000BF00BFDFE770B50546AC6A00207D
:1051E000A4F85A00A4F852002046FEF787FC70BDD0
:1051F0000168096821F4907102681160016889688A
:1052000021F0010102689160202180F86A10704746
:1052100010B504462068006820F04000216808604E
:10522000202084F869002046FEF7CEFE002010BD45
:105230002DE9F0410446B4F85C7094F86A00222825
:1052400033D12068858CA068B0F5805F09D12069D2
:1052500038B9666D05EA07003080606D801C6065B6
:1052600005E0F8B22840626D511C61651070B4F819
:105270005A00401E80B2A4F85A00A0B92068006805
:1052800020F49070216808602068806820F0010098
:1052900021688860202084F86A002046FEF730FEEE
:1052A0000020BDE8F0810020FBE72068008B40F083
:1052B0000800216808830220F3E700002DE9F05F71
:1052C000044600251026A946AA46AB46FC4920689C
:1052D000884201D1012000E0002000B100E000BFC1
:1052E0002169A068084361690843E16940EA010552
:1052F00020680068F3490840284321680860206856
:10530000406820F44050E168084321684860A5697E
:10531000EB492068884201D1012000E0002008B953
:10532000206A05432068806820F4306028432168A3
:10533000886000BFE4492068884216D1E3480068CD
:1053400000F0030030B1012808D0022804D003285F
:1053500008D105E0012607E0022605E0042603E067
:10536000082601E0102600BF8CE0D9492068884259
:1053700016D1D648006800F00C0030B1042808D0DF
:10538000082804D00C2808D105E0002607E00226F2
:1053900005E0042603E0082601E0102600BF71E0C6
:1053A000CC492068884216D1C848006800F0300017
:1053B00030B1102808D0202804D0302808D105E0CA
:1053C000002607E0022605E0042603E0082601E0A7
:1053D000102600BF56E0C0492068884216D1BB485D
:1053E000006800F0C00030B1402808D0802804D008
:1053F000C02808D105E0002607E0022605E00426C3
:1054000003E0082601E0102600BF3BE0B349206816
:10541000884219D1AD48006800F4407048B1B0F539
:10542000807F0AD0B0F5007F05D0B0F5407F08D16D
:1054300005E0002607E0022605E0042603E0082632
:1054400001E0102600BF1DE09D492068884219D167
:105450009E48006800F4406048B1B0F5806F0AD003
:10546000B0F5006F05D0B0F5406F08D105E000261B
:1054700007E0022605E0042603E0082601E01026E6
:1054800000BF00BF00BF8E492068884201D10120C3
:1054900000E00020002871D00025042E0FD003DC8E
:1054A0003EB1022E12D108E0082E0CD0102E0DD1E4
:1054B0000DE0FCF71FFF05460CE0894D0AE0FCF704
:1054C00045FF054606E04FF4004503E000BF4FF0FE
:1054D000010B00BF00BF002D0AD0606800EB400048
:1054E000A84203D860680003A84202D24FF0010B23
:1054F00023E1042E2ED003DC3EB1022E51D118E060
:10550000082E3CD0102E4CD14CE0FCF7F3FE4FF4AB
:105510008071A0FB0130616849085F1840F100010B
:10552000D4F804C0624600233846FAF7B7FE0546B1
:105530003BE0D4F804C04FEA5C000021694BC71877
:1055400041EB010862460B4638464146FAF7A6FE93
:1055500005462AE0FCF7FAFE4FF48071A0FB01300B
:10556000616849085F1840F10001D4F804C0624640
:1055700000233846FAF792FE054616E022E0D4F8FA
:1055800004C04FEA5C0000214FF40003C71841EB50
:10559000010862460B4638464146FAF77FFE05464B
:1055A00003E000BF4FF0010B00BF00BFB5F5407F27
:1055B00005D3B5F5801F02D22068C560BDE04FF06D
:1055C000010BBAE0E069B0F5004F54D1042E2BD0A6
:1055D00005DC4EB1012E12D0022E3BD11AE0082E6E
:1055E0002DD0102E36D136E0FCF784FE40006168E5
:1055F00000EB5100B0FBF1F01FFA80FA2EE0FCF74F
:105600008FFE4000616800EB5100B0FBF1F01FFA23
:1056100080FA23E03449606801EB50006168B0FB18
:10562000F1F01FFA80FA19E0FCF790FE4000616883
:1056300000EB5100B0FBF1F01FFA80FA0EE04FF4DE
:105640008031606801EB50006168B0FBF1F01FFA37
:1056500080FA03E000BF4FF0010B00BF00BF4FF620
:10566000F0700AEA0009CAF3420049EA000920681A
:10567000C0F80C9061E0042E43D005DC4EB1012E41
:1056800012D0022E54D131E0082E45D0102E4FD129
:105690004FE0FCF72FFE616800EB5100B0FBF1F02A
:1056A00080B22168C86047E0FCF73AFE616800EB11
:1056B0005100B0FBF1F080B22168C8603CE000000E
:1056C00000800040F369FFEF00380140881002407D
:1056D0000044004000480040004C004000500040A2
:1056E0000024F400000024F40048E8011449606834
:1056F00001EB50006168B0FBF1F080B22168C86036
:105700001AE0FCF723FE616800EB5100B0FBF1F0FA
:1057100080B22168C8600FE04FF40041606801EB7F
:1057200050006168B0FBF1F080B22168C86003E00E
:1057300000BF4FF0010B00BF00BF584600F002B899
:105740000024F40030BCBDE8C09F014691F8690018
:1057500021282DD1B1F8520068B90868006820F0FE
:1057600080000B6818600868006840F040000B6813
:105770001860002070478868B0F5805F0BD1086919
:1057800048B9CA6C1088C0F308000B681885C86C4B
:10579000801CC86405E0CB6C581CC86418780B6882
:1057A0001885B1F85200401EA1F852000020E1E730
:1057B0000220DFE72DE9F04104460D4617469846E2
:1057C000069E21E0701CF8B12EB1FBF7EBFFA0EBB9
:1057D0000800B04218D92068006820F4D070216811
:1057E00008602068806820F001002168886020201F
:1057F00084F8690084F86A0000BF002084F868001B
:1058000000BF0320BDE8F0812068C0692840A8429D
:1058100001D1012000E00020B842D3D00020F1E700
:1058200010B5012419480068808C19490870174880
:105830000068006820F020001449096808601448D6
:105840000078802816D1642302221149491C0F4890
:10585000FEF7CAFA0E4882786423C11C0B48FEF793
:10586000C3FA044600230B4A0949491C0A48006848
:1058700003F09EFF0548FEF743F9044800680068FE
:1058800040F0200001490968086010BDE062002076
:105890008C63002064000020CC0000200FB4054B76
:1058A00010B503A9044A029800F018F810BC5DF87E
:1058B00014FB0000C16700087000002002E008C867
:1058C000121F08C1002AFAD170477047002001E07A
:1058D00001C1121F002AFBD1704700002DE9FF4FC4
:1058E0008DB00F460546002606E025280BD0DDE9E1
:1058F0000F1290476D1C761C28780028F5D111B046
:10590000304600F0F3B90024A246A1460122EC493A
:1059100000E0044315F8013F203B02FA03F008427F
:10592000F7D128782A2810D06FF02F022878A0F11C
:105930003001092914D80AEB8A0102EB410144F035
:10594000020400EB010A6D1CF0E701CF5FEA000AD8
:1059500003D544F40054CAF1000A44F002046D1C5B
:1059600028782E2817D115F8010F44F004042A28AE
:105970000ED06FF02F022878A0F1300109290AD843
:1059800009EB890102EB410100EB01096D1CF2E713
:1059900057F8049B6D1C28786C280FD006DC4C2827
:1059A00017D068280DD06A2814D104E0742810D0CC
:1059B0007A280FD10DE044F400140AE044F4801476
:1059C00001E044F440146978814202D104F5801466
:1059D0006D1C6D1C2A786E2A1FD00CDC632A31D016
:1059E00004DC002A8BD0582A11D1A3E0642A68D0A5
:1059F000692A0CD165E0732A2ED004DC6F2A73D09B
:105A0000702A04D19BE0752A6FD0782A6ED0104698
:105A1000DDE90F129047761C50E1C4F302500228D2
:105A200006D0032809D0042801CF09D0066045E13B
:105A300001CFF117C0E9006140E101CF06803DE1EF
:105A400006703BE117F8040B8DF8000000208DF87C
:105A50000100EB46012003E057F804BB4FF0FF3094
:105A600061074FF0000102D40DE008F10101884602
:105A700049450FDA8045F8DB1BF808100029F4D1FE
:105A800008E008F1010188468142FADB1BF80810A2
:105A90000029F6D1DDE90F23AAEB08008146214653
:105AA00000F039F9304400EB080604E0DDE90F129C
:105AB0001BF8010B9047B8F10108F7D22146484680
:105AC000F7E00A21C4F302534FF0000B0891022BB8
:105AD00004D001CFC117032B09D00AE0FF1D27F026
