:020000040800F2
:10000000E829002079020008810200088302000824
:10001000850200088702000889020008000000002D
:100020000000000000000000000000009D0100082A
:100030008D02000800000000F1010008953B000857
:10004000930200089302000893020008930200083C
:10005000930200089302000893020008930200082C
:10006000930200089302000893020008930200081C
:10007000930200089302000893020008930200080C
:100080009302000893020008DD03000893020008B1
:10009000930200089302000893020008F503000889
:1000A00093020008B93C000893020008930200087C
:1000B00093020008930200089302000893020008CC
:1000C000930200089302000893020008653B0008B1
:1000D0009302000893020008DD490008930200081B
:1000E00093020008D13A0008930200089302000826
:1000F000930200089302000893020008930200088C
:10010000930200089302000893020008930200087B
:100110009302000899410008930200089302000826
:10012000930200089302000893020008930200085B
:10013000930200089302000893020008930200084B
:10014000930200089302000893020008930200083B
:10015000930200089302000893020008930200082B
:10016000930200089302000893020008930200081B
:1001700093020008930200089302000800000000A8
:100180009302000893020008DFF80CD000F014F985
:1001900000480047E94F0008E82900202B4B196868
:1001A000086800F058B880F30988BFF36F8F4FF0EC
:1001B000000080F3118870470000000006480068C6
:1001C000006880F3088862B661B6BFF34F8FBFF353
:1001D0006F8F00DF00BF00BF08ED00E0DFF80C000C
:1001E000016841F470010160704700BF88ED00E0D4
:1001F000EFF30980BFF36F8F144B1A681EF0100FD6
:1002000008BF20ED108A20E9F04F106008B44FF0CD
:10021000500080F31188BFF34F8FBFF36F8F06F04C
:1002200023F94FF0000080F3118808BC19680868B2
:1002300000F016B81EF0100F08BF00F016B880F3DB
:100240000988BFF36F8F704700BF00BF1C000020FC
:10025000EFF30580704730C8B0E8C04FFFF7A3BF89
:1002600030C8B0E8C04FFFF7E5BFB0EC088AB0EC8B
:1002700008CAFFF7E4BF0000064880470648004769
:10028000FEE7FEE7FEE7FEE7FEE7FEE7FEE7FEE746
:10029000FEE7FEE7693C0008890100082DE9F05FF0
:1002A0000546002092469B468846064681464024E5
:1002B0001BE0284641464746224600F06CF853466C
:1002C0005A46C01A914110D311461846224600F0F2
:1002D00053F82D1A67EB01084F46224601200021F2
:1002E00000F04AF817EB00094E41201EA4F101046A
:1002F000DFDC484631462A46434600F000B830BCB1
:10030000BDE8C09F40EA01039B0703D009E008C98C
:10031000121F08C0042AFAD203E011F8013B00F8CA
:10032000013B521EF9D27047D2B201E000F8012B16
:10033000491EFBD270470022F6E710B513460A4665
:1003400004461946FFF7F0FF204610BD30B50B46B6
:10035000014600202022012409E021FA02F59D42F5
:1003600005D303FA02F5491B04FA02F52844151EC9
:10037000A2F10102F1DC30BD202A04DB203A00FAB0
:1003800002F1002070479140C2F1200320FA03F3EC
:10039000194390407047202A04DB203A21FA02F0EA
:1003A0000021704721FA02F3D040C2F120029140AF
:1003B0000843194670470000064C074D06E0E06808
:1003C00040F0010394E8070098471034AC42F6D39C
:1003D000FFF7DEFE347400085474000810B50348BB
:1003E00000F044F8024800F041F810BDAC210020B4
:1003F0001422002010B51448006800F0400020B11D
:1004000012480078401C114908700F48006800F03D
:10041000800020B10E480078401C0D4908700A4841
:10042000006800F4807020B10A480078401C094937
:100430000870402000F052FA802000F04FFA4FF48C
:10044000807000F04BFA10BD1404014088000020B9
:100450008C0000209000002000BFFEE7704770472E
:100460007047704770477047704700002DE9F047AC
:1004700004464FF000092068056820684668C846B1
:10048000C24605F00200022811D106F0020002283F
:100490000DD1A06D00F0100018B9A06D40F40060FF
:1004A000A0652046FFF7DAFF02202168086005F00A
:1004B0000400042803D106F00400042807D005F046
:1004C0000800082873D106F0080008286FD1A06D35
:1004D00000F0100018B9A06D40F40070A06520680D
:1004E000C06800F4406000285BD1E0492068884281
:1004F00003D0DF492068884201D1012013E0DD48A4
:10050000006800F01F0058B1DA48006800F01F00D2
:10051000052805D0D748006800F01F00092801D140
:10052000012000E0002018B12068D0F80C800DE018
:10053000CE492068884203D0CD492068884201D145
:10054000206800E0C9480746D7F80C8008F400503E
:10055000B0F5005F25D02068006800F0080008288A
:100560001FD120688068C0F3800090B9206840687F
:1005700020F00C0021684860A06D20F48070A06518
:10058000A06D00F4805018B9A06D40F00100A06586
:1005900007E0A06D40F01000A065E06D40F00100A4
:1005A000E0652046FFF75FFF0C202168086005F03A
:1005B0002000202803D106F02000202807D005F0D5
:1005C000400040286FD106F040004028FAD1A06DCD
:1005D00000F0100018B9A06D40F40050A06520682C
:1005E000006800F0400040287ED1A0492068884281
:1005F00003D09F492068884201D1012013E09D4823
:10060000006800F01F0058B19A48006800F01F0011
:10061000062805D09748006800F01F00072801D180
:10062000012000E0002018B12068D0F80CA00DE0F7
:100630008E492068884203D08D492068884201D1C4
:10064000206800E089480746D7F80CA08749206851
:10065000884203D086492068884201D1012013E0F6
:100660008448006800F01F0058B18248006800F01C
:100670001F00052805D07F48006800F01F000928EA
:1006800001D1012000E0002018B12068D0F80C80D2
:100690000EE076492068884203D075492068884278
:1006A00002D1206801E040E070480746D7F80C808E
:1006B0002068C06C00F0C000B0B90AF40010B0F5BA
:1006C000001F2CD06C4808EA00006B49884204D116
:1006D0002068C06800F4406030B120688068C0F3D2
:1006E000C000A0B9206800E019E0406820F0600078
:1006F00021684860A06D20F48050A065A06D00F4D2
:10070000807060B9A06D40F00100A06507E0A06DA9
:1007100040F01000A065E06D40F00100E06520466B
:10072000FFF79DFE60202168086005F080008028AA
:100730000DD106F08000802809D1A06D40F48030F2
:10074000A065204600F09CF880202168086005F430
:100750008070B0F5807F0FD106F48070B0F5807F97
:100760000AD1A06D40F40030A0652046FFF779FE65
:100770004FF480702168086005F40070B0F5007FC8
:100780000FD106F40070B0F5007F0AD1A06D40F4DF
:100790008020A0652046FFF765FE4FF400702168B9
:1007A000086005F01000102844D106F01000102851
:1007B00040D1A06B10B94FF001092AE02B49206805
:1007C000884203D02D492068884208D12948006812
:1007D00000F01F0008B1012002E0002000E000202E
:1007E00038B92068C06800F0010090B14FF00109ED
:1007F0000FE02048006800F44040B0F5004F06D0FC
:100800001C48006800F44040B0F5404F01D14FF063
:100810000109B9F1010F0AD1A06D40F48060A06513
:10082000E06D40F00200E0652046FFF71DFE10205D
:100830002168086005F48060B0F5806F13D106F47C
:100840008060B0F5806F0ED1A06D40F48040A0654F
:10085000E06D40F00800E0654FF4806021680860BA
:100860002046FFF7FDFDBDE8F087000000000450C2
:10087000000204500803045000200002000104504C
:10088000704770B50446002594F82500022803D06F
:100890000420E06301251EE02068006820F00E00BF
:1008A000216808602068006820F001002168086065
:1008B00094F8441001208840216C4860012084F89D
:1008C000250000BF002084F8240000BFA06B10B1F9
:1008D0002046A16B8847284670BD704710B5044676
:1008E00004480068204020B1024804602046FFF719
:1008F000F4FF10BD1404014078B503460022002423
:100900000020E5E0012696400D6805EA0604002C6B
:100910007DD04D68022D02D04D68122D13D1D6081E
:1009200003F1200555F826005507EE0E0F25B540BA
:10093000A8435607F60E0D69B5402843D60803F1C3
:10094000200545F82600186856000325B540A84341
:100950000D7905F003055600B540284318604D6831
:10096000012D08D04D68022D05D04D68112D02D003
:100970004D68122D13D1986856000325B540A84341
:100980005600CD68B54028439860586801259540C9
:10099000A8430D79C5F300159540284358600D799B
:1009A00005F00305032D09D1D86A01259540A84318
:1009B0000D79C5F3C00595402843D862D868560024
:1009C0000325B540A84356008D68B5402843D8603C
:1009D0004D6805F08055B5F1805F78D100BF3F4D7F
:1009E0002D6E45F001053D4E356635462D6E05F000
:1009F0000105009500BF00BF4FEAB635960855F8CF
:100A0000260095072E0F0F25B540A84300E05EE0B5
:100A1000B3F1904F01D100251EE0314DAB4201D121
:100A2000012519E02F4DAB4201D1022514E02E4DD6
:100A3000AB4201D103250FE02C4DAB4201D104257F
:100A40000AE02B4DAB4201D1052505E0294DAB4213
:100A500001D1062500E007259607360FB54028434B
:100A6000254D960845F82600244D2868A0434D687A
:100A700005F48035B5F5803F00D120431F4D286037
:100A80002D1D2868A0434D6805F40035B5F5003FDD
:100A900000D12043194D2D1D28602D1D2868A0432D
:100AA0004D6805F48015B5F5801F00D12043134D26
:100AB000083528602D1D2868A0434D6805F40015F1
:100AC000B5F5001F00D120430C4D0C352860521C99
:100AD0000D68D540002D7FF415AF78BD00100240A1
:100AE0000004004800080048000C004800100048BE
:100AF00000140048001800480800014000040140AC
:100B00000AB1816100E0816270470000014800681D
:100B1000704700006C000020024692F84100202837
:100B20002DD100BF92F84000012801D1022070476A
:100B3000012082F8400000BF242082F841001068A4
:100B4000006820F00100136818601068006820F445
:100B500080501368186010680068084313681860B4
:100B60001068006840F0010013681860202082F8C7
:100B7000410000BF002082F8400000BFD7E70220FC
:100B8000D5E7000010B504460CB9012010BD94F85B
:100B9000410028B9002084F84000204600F054F8B5
:100BA000242084F841002068006820F001002168BA
:100BB0000860606820F070602168086120688068C3
:100BC00020F4004021688860E068012805D1A06811
:100BD00040F400402168886004E0A06840F40440CC
:100BE00021688860E068022802D18002216848609C
:100BF0002068406813490843216848602068C0683D
:100C000020F400402168C860D4E904010843A169C8
:100C100040EA01202168C860D4E90701084321683F
:100C200008602068006840F001002168086000202A
:100C30006064202084F841000020206384F8420092
:100C400000BFA3E70080000210B586B0044611493A
:100C5000206888421BD103200190122002900120BD
:100C60000390032004900420059001A90A48FFF78F
:100C700043FE00BF0948806D40F4000007498865C5
:100C80000846806D00F40000009000BF00BF06B071
:100C900010BD0000005C0040000800480010024049
:100CA00002480068401C0149086070476C00002041
:100CB00010B50848006840F48070064908600320B9
:100CC00000F0E4F8002000F007F800F049F80020F8
:100CD00010BD00000020024070B588B00446002519
:100CE000002600222146192000F08FF8192000F07C
:100CF0007FF800BF1648006E40F400601449086693
:100D00000846006E00F40060019000BF00BF02A919
:100D100003A800F07BFC00F0B7FC05460D48B5FBCE
:100D2000F0F0461E0C480D49086040F2E7310B48D0
:100D3000C160466000210161816001F0A7FD20B91A
:100D4000064801F0D3FD08B070BD0120FBE70000AC
:100D50000010024040420F00002C01407021002092
:100D600008B500BF2148006E40F001001F49086629
:100D70000846006E00F00100009000BF00BF00BFF9
:100D80000846806D40F0805088650846806D00F010
:100D90008050009000BF00BF032000F077F80022D1
:100DA00011466FF00B0000F030F8002211466FF092
:100DB0000A0000F02AF8002211466FF0090000F046
:100DC00024F800221146501F00F01FF8002211469F
:100DD000101F00F01AF800220F21901E00F015F8E5
:100DE00000220F21501E00F010F808BD0010024034
:100DF00000BF00F01F02012191404209920002F160
:100E0000E022C2F8001100BF70472DE9F05F804674
:100E10000D461646002702F023FC074639462A46AF
:100E2000334601F00700C0F1070ABAF1040F02D9F6
:100E30004FF0040A01E0C0F1070AD14600F1040AAC
:100E4000BAF1070F02D24FF0000A01E0A0F1030A45
:100E5000D4464FF0010A0AFA09FAAAF1010A0AEA8D
:100E6000020A0AFA0CFA4FF0010B0BFA0CFBABF179
:100E7000010B0BEA030B4AEA0B042146404602F041
:100E8000F7FB00F000B830BCBDE8C09F00BF00F029
:100E90000702064B19684FF6FF031940044B0B433A
:100EA00043EA0221014B196000BF70470CED00E0DE
:100EB0000000FA0502460021B2F5007F29D11D4845
:100EC000006800F4C060B0F5007F31D019480068B8
:100ED00020F4C06040F40070164B1860164800689B
:100EE000164BB0FBF3F0322300FB03F100E0491E88
:100EF00031B11048406900F48060B0F5806FF6D0E1
:100F00000C48406900F48060B0F5806F10D1032078
:100F100070470848006800F4C060B0F5806F07D0E3
:100F20000448006820F4C06040F48060014B186001
:100F30000020EDE7007000407000002040420F00EC
:100F40000248006800F4C060704700000070004074
:100F50002DE9F8430446002600270025A8462088EE
:100F600000F40060B0F5006F30D1606E80B1B0F574
:100F7000800F13D0B0F5000F03D0B0F5400F15D19E
:100F800013E0FA48C06840F48030F849C8600FE0C8
:100F90000021201D02F080FB054609E0002104F13C
:100FA000200002F06FFC054602E001E0012500BFD1
:100FB00000BF55B9ED488830006820F44000616EEC
:100FC0000843EA49C1F8880000E0A846208800F4F8
:100FD0008050B0F5805F30D1A06E80B1B0F1807FDD
:100FE00013D0B0F1007F03D0B0F1407F15D113E0F2
:100FF000DE48C06840F48030DC49C8600FE0002162
:10100000201D02F049FB054609E0002104F1200003
:1010100002F038FC054602E001E0012500BF00BFF8
:1010200055B9D2488830006820F04070A16E08435E
:10103000CE49C1F8880000E0A846206800F40030DE
:10104000B0F5003F76D14FF00009C848806D00F040
:10105000805078B900BFC548806D40F08050C349CA
:1010600088650846806D00F08050009000BF00BF8A
:101070004FF00109BE48006840F48070BC49086028
:10108000FFF744FD074606E0FFF740FDC01B0228BE
:1010900001D9032505E0B648006800F480700028F7
:1010A000F2D000BF85BBB1489030006800F44076B4
:1010B000D6B1D4F88400B04216D0AC489030006865
:1010C00020F44076A948D0F8900040F48030A74939
:1010D000C1F890000846D0F8900020F48030C1F8A4
:1010E00090000846C0F8906006F00100A8B1FFF734
:1010F0000DFD074609E0FFF709FDC01B41F28831ED
:10110000884202D9032507E017E09848903000682C
:1011100000F002000028EED000BF65B9934890307F
:10112000006820F44070D4F8841008438F49C1F857
:10113000900003E00CE0A84600E0A846B9F1010FDA
:1011400005D18A48806D20F080508849886500BFAD
:10115000207800F0010048B184488830006820F011
:101160000300A16B08438149C1F88800207800F092
:101170000200022809D17D488830006820F00C0068
:10118000E16B08437949C1F88800207800F0040039
:10119000042809D175488830006820F03000216C9F
:1011A00008437249C1F88800207800F00800082838
:1011B00009D16E488830006820F0C000616C084397
:1011C0006A49C1F88800207800F01000102809D181
:1011D00066488830006820F44070A16C0843634979
:1011E000C1F88800207800F02000202809D15F484D
:1011F0008830006820F44060E16C08435B49C1F826
:101200008800208800F40070B0F5007F09D15748AD
:101210008830006820F44020E16D08435349C1F84C
:101220008800208800F48060B0F5806F09D14F48B5
:101230008830006820F44010216E08434B49C1F803
:101240008800207800F04000402809D147488830C5
:10125000006820F44050216D08434449C1F88800DB
:10126000207800F08000802809D14048883000684C
:1012700020F44040616D08433C49C1F88800208853
:1012800000F48070B0F5807F09D13848883000685C
:1012900020F44030A16D08433449C1F8880020880B
:1012A00000F40050B0F5005F1FD13048883000686E
:1012B00020F04060E16E08432C4988310860E06E00
:1012C000B0F1006F06D12948C06840F4801027496A
:1012D000C8600AE0E06EB0F1806F06D10121201DE8
:1012E00002F0DAF9054605B1A846206800F40020AE
:1012F000B0F5002F1FD11D488830006820F04060F5
:10130000216F0843194988310860206FB0F1006FE0
:1013100006D11648C06840F480101449C8600AE03D
:10132000206FB0F1806F06D10121201D02F0B4F9C9
:10133000054605B1A846206800F48020B0F5802F4E
:1013400023D10A488830006820F04060616F08436C
:10135000064988310860606FB0F1006F0AD1034818
:10136000C06840F480100149C8600EE000100240DF
:1013700000700040606FB0F1806F06D10121201D28
:1013800002F08AF9054605B1A846208800F480409D
:10139000B0F5804F1FD12248006820F04050A16F67
:1013A00008431F490860A06FB0F1805F07D1022198
:1013B000201D02F071F905466DB1A8460BE0A06F43
:1013C000B0F1005F07D1022104F1200002F05AFAC7
:1013D000054605B1A846208800F40040B0F5004F4E
:1013E00009D10F48006820F08040E16F08430C49A4
:1013F0008839C1F88800206800F48030B0F5803F5B
:101400000AD10748006820F00040D4F88010084353
:1014100003498839C1F888004046BDE8F8830000D8
:101420008810024070B504460D46002673480068D7
:1014300000F00700A8420ED27048006820F00700B4
:1014400028436E4908600846006800F00700A8427B
:1014500001D0012070BD207800F00200022807D1E1
:101460006748806820F0F000A168084364498860FC
:10147000207800F00100002879D06068022806D1A9
:101480005F48006800F40030D8B90120E2E76068E6
:10149000032806D15A48006800F0007088B901207E
:1014A000D8E7606830B95648006800F0020040B9DB
:1014B0000120CFE75248006800F4806008B901209D
:1014C000C8E74F48806820F00300616808434C4932
:1014D0008860FFF71BFB06466068022810D108E011
:1014E000FFF714FB801B41F28831884201D90320A9
:1014F000B0E74348806800F00C000828F0D136E0DF
:101500006068032810D108E0FFF700FB801B41F260
:101510008831884201D903209CE73948806800F06F
:101520000C000C28F0D122E0606880B908E0FFF7D9
:10153000EDFA801B41F28831884201D9032089E706
:101540002F48806800F00C000028F0D10FE008E080
:10155000FFF7DCFA801B41F28831884201D9032071
:1015600078E72748806800F00C000428F0D1234871
:10157000006800F00700A8420ED92048006820F05B
:10158000070028431D4908600846006800F007006E
:10159000A84201D001205DE7207800F00400042873
:1015A00007D11748806820F4E060E16808431449D7
:1015B0008860207800F00800082808D1104880686A
:1015C00020F46050216940EAC1000D49886000F0B4
:1015D00071F80B49896801F0F001F02292FAA2F249
:1015E000B2FA82F2D140074A515CC840064908600D
:1015F0000020FFF771FB00202CE7000000200240D4
:1016000000100240CC730008700000200F2202601E
:101610000D4A926802F0030242600B4A926802F09F
:10162000F0028260084A926802F4E062C260064AF0
:10163000926802F46052D2080261044A126802F011
:1016400007020A60704700000010024000200240BC
:1016500001480068704700007000002000B5FFF7E7
:10166000F7FF0749896801F4E0614FF4E06292FAFC
:10167000A2F2B2FA82F2D140024A515CC84000BDE7
:1016800000100240DC73000800B5FFF7E1FF0749D6
:10169000896801F460514FF4605292FAA2F2B2FAF2
:1016A00082F2D140024A515CC84000BD00100240A5
:1016B000DC730008F0B5002100230024022502227B
:1016C0000020554EB66806F00C065EB1524EB66864
:1016D00006F00C060C2E2DD14F4EF66806F00306D0
:1016E000012E27D14C4E366806F008066EB94A4ED8
:1016F0009436366806F470664FF4706797FAA7F769
:10170000B7FA87F726FA07F10AE0434E366806F083
:10171000F006F02797FAA7F7B7FA87F726FA07F146
:101720003E4E56F821103C4EB66806F00C0686B9BF
:1017300008460EE0384EB66806F00C06042E01D1BD
:10174000374806E0344EB66806F00C06082E00D185
:101750003448314EB66806F00C060C2E5BD12E4E86
:10176000F66806F003042C4EF66806F07006702743
:1017700097FAA7F7B7FA87F7FE40721C012C29D019
:10178000022C02D0032C24D111E0254EB6FBF2F638
:10179000214FFF6807F4FE474FF4FE4C9CFAACFC67
:1017A000BCFA8CFC27FA0CF706FB07F323E01D4E6E
:1017B000B6FBF2F6184FFF6807F4FE474FF4FE4CF5
:1017C0009CFAACFCBCFA8CFC27FA0CF706FB07F37E
:1017D00011E000BFB1FBF2F60F4FFF6807F4FE47C0
:1017E0004FF4FE4C9CFAACFCBCFA8CFC27FA0CF7CC
:1017F00006FB07F300BF00BF074EF66806F0C066A1
:101800004FF0C06797FAA7F7B7FA87F7FE40761C44
:101810007500B3FBF5F0F0BD00100240E473000862
:101820000024F40000127A00F8B504460025207860
:1018300000F01000102874D1FE48806800F00C0001
:10184000002870D1FB48006800F0020018B1A069C0
:1018500008B90120F8BDF748216A006800F00800C7
:1018600020B1F448006800F0F00005E0F148943041
:10187000006800F47060000981421FD9206A02F0FC
:10188000D7F808B10120E5E700BFEA48006840F05A
:101890000800E84908600846006820F0F000216A66
:1018A0000843E449086000BF0846406820F47F40D0
:1018B000E16940EA0120DF4948601EE000BFDD48E1
:1018C000006840F00800DB4908600846006820F026
:1018D000F000216A0843D749086000BF0846406805
:1018E00020F47F40E16940EA0120D2494860206A43
:1018F00002F09EF808B10120ACE7FFF7DBFECD490E
:10190000896801F0F001F02292FAA2F2B2FA82F2B2
:10191000D140C94A515CC840C84908600020FFF75F
:10192000DBF94BE0FFE7A06980B3C248006840F0F4
:101930000100C0490860FFF7E9F8054606E0FFF737
:10194000E5F8401B022801D9032083E7B948006865
:1019500000F002000028F2D000BFB648006840F056
:101960000800B44908600846006820F0F000216AC9
:101970000843B049086000BF0846406820F47F4033
:10198000E16940EA0120AB49486017E0FFE7A94858
:10199000006820F00100A7490860FFF7B7F8054686
:1019A00006E0FFF7B3F8401B022801D9032051E7F6
:1019B000A048006800F002000028F2D1207800F072
:1019C0000100002868D09B48806800F00C000828BF
:1019D0000BD09848806800F00C000C280ED1954878
:1019E000C06800F00300032808D19248006800F4A2
:1019F000003088B3606878BB01202BE700BF6068C7
:101A0000B0F5803F06D18B48006840F480308949AA
:101A100008601AE06068B0F5A02F0BD18548006817
:101A200040F48020834908600846006840F4803014
:101A300008600AE07F48006820F480307D49086033
:101A40000846006820F48020086000BF606890B1FC
:101A5000FFF75CF8054607E01EE0FFF757F8401B6C
:101A6000642801D90320F5E67248006800F40030CC
:101A70000028F2D010E0FFF749F8054606E0FFF72E
:101A800045F8401B642801D90320E3E66948006853
:101A900000F400300028F2D1207800F00200022883
:101AA0006AD16448806800F00C0004280BD06148BB
:101AB000806800F00C000C281ED15E48C06800F061
:101AC0000300022818D15B48006800F4806018B158
:101AD000E06808B90120BDE65648406820F0F8509B
:101AE0004FF0F85292FAA2F2B2FA82F221699140D2
:101AF0000843504948603FE0E06830B34D48006813
:101B000040F480704B490860FFF700F8054606E096
:101B1000FEF7FCFF401B022801D903209AE6454846
:101B2000006800F480600028F2D04248406820F04D
:101B3000F8504FF0F85292FAA2F2B2FA82F221690A
:101B4000914008433B49486016E03A48006820F459
:101B5000807038490860FEF7D9FF054606E0FEF7B9
:101B6000D5FF401B022801D9032073E631480068E5
:101B700000F480600028F2D1207800F008000828E6
:101B800036D16069D0B12B489430006840F0010034
:101B90002849C1F89400FEF7B9FF054606E0FEF7B4
:101BA000B5FF401B022801D9032053E62148943099
:101BB000006800F002000028F1D019E01D489430C0
:101BC000006820F001001B49C1F89400FEF79EFF59
:101BD000054606E0FEF79AFF401B022801D90320C4
:101BE00038E614489430006800F002000028F1D173
:101BF000207800F0040004286FD100260D48806D85
:101C000000F0805070B900BF0A48806D40F08050ED
:101C1000084988650846806D00F08050009000BF3C
:101C200000BF01260648006800F48070F8B9044837
:101C3000006807E000100240CC730008700000202C
:101C40000070004040F4807087490860FEF75EFF36
:101C5000054606E0FEF75AFF401B022801D9032083
:101C6000F8E58148006800F480700028F2D000BFD9
:101C7000A068012808D17D48006840F001007B4938
:101C80009039C1F8900021E0A06805280FD177486D
:101C9000006840F0040075499039C1F8900008468A
:101CA000D0F8900040F00100C1F890000EE06F48BD
:101CB000006820F001006D499039C1F89000084695
:101CC000D0F8900020F00400C1F8900000BFA06898
:101CD000A0B1FEF71BFF054609E02DE0FEF716FF59
:101CE000401B41F28831884201D90320B2E55F48A8
:101CF000006800F002000028F0D012E0FEF706FFB6
:101D0000054608E0FEF702FF401B41F28831884299
:101D100001D903209EE55548006800F00200002824
:101D2000F0D1012E07D151489038806D20F08050BD
:101D30004E499039886500BFA06AE8B34B48903897
:101D4000806800F00C000C2879D0A06A022853D1DA
:101D500046489038006820F0807044499039086007
:101D6000FEF7D4FE054606E0FEF7D0FE401B022833
:101D700001D903206EE53D489038006800F00070FE
:101D80000028F1D1206B401E0101606B41EA002167
:101D9000A06B000941EA4040E16A0843A18F01229B
:101DA000C2EB510140EA41514020005DC2EB5000BE
:101DB00041EA40602D4900E053E09039C860084690
:101DC000006840F0807008600846C06840F080708D
:101DD000C860FEF79BFE054606E0FEF797FE401B37
:101DE000022801D9032035E520489038006800F02A
:101DF00000700028F1D034E01C489038006820F0D2
:101E000080701A49903908600846006800F0006048
:101E100048B90846006800F0005020B90846C0687C
:101E200020F00300C86011489038C068104908408D
:101E30000E499039C860FEF769FE054607E00EE0DE
:101E4000FEF764FE401B022801D9032002E5074883
:101E50009038006800F000700028F1D101E0012006
:101E6000F8E40020F6E4000000700040901002400A
:101E7000FFFFEEFE7047704710B50446206880688B
:101E8000C0F3003078B12068C068C0F3002050B1C2
:101E90002046FFF7F0FF2068C06800F0800060F483
:101EA000C0702168C86020688068C0F3403078B195
:101EB0002068C068C0F3402050B12046FFF7DAFF29
:101EC0002068C06800F0800060F420702168C8605D
:101ED0004FF4802002490860012084F8210010BDE1
:101EE0001404014070B505460B46164600242868C8
:101EF00040680E4900EA0104200CD870C4F30420A5
:101F0000587004F03F009870C4F3423018705EB906
:101F1000D87801F0EFFDD870587801F0EBFD5870DB
:101F2000987801F0E7FD9870002070BD3FFFFF003A
:101F300070B504460B46164600252068806A586036
:101F400020680069C0F30E009860206800680F499F
:101F500000EA0105C5F305401870C5F30620587066
:101F600005F07F00987005F48000000CD8705EB911
:101F7000187801F0BFFD1870587801F0BBFD58705B
:101F8000987801F0B7FD9870002070BD7F7F7F00CA
:101F900010B504460CB9012010BD94F8210028B9F1
:101FA000002084F82000204600F054F8022084F835
:101FB000210000BFCA20216848625320216848627E
:101FC00000BF204601F0AEFD48B100BFFF202168F0
:101FD000486200BF042084F821000120DCE720686B
:101FE00080681B490840216888602169606808434F
:101FF000A1690843216889680843216888602168CD
:10200000E068086120680169208941EA0040216890
:1020100008612068C06820F080002168C8602068DE
:10202000C06C20F003002168C8646169E06908435E
:102030002168C96C08432168C86400BFFF2021687B
:10204000486200BF012084F821000020A4E70000BE
:10205000BFFF8FFF10B504460A49206888420FD1A0
:102060000948006840F4004007499039C1F89000E1
:10207000002205212920FEF7C8FE2920FEF7B8FE20
:1020800010BD000000280040901002402DE9F047EC
:1020900004460D4616460027B846B94600BF94F8D8
:1020A0002000012802D10220BDE8F087012084F839
:1020B000200000BF022084F8210046BB2068806811
:1020C00000F0400000B102E00020E87000BFE869C5
:1020D00000B900E000BF287801F017FD030468781C
:1020E00001F013FD43EA0023A87801F00EFD03433D
:1020F000E87843EA004395F8200001F006FD43EA42
:102100000060E9690843696940EA01082DE0206838
:10211000806800F0400020B1287801F0EBFC804698
:1021200002E00020E87000BFE86928B995F82000B7
:1021300001F0E0FC804605E095F8200001F0DAFCB3
:10214000804600BF28780004697840EA0120A97819
:102150000843E97840EA014095F8201040EA016020
:10216000E9690843696940EA0108A969686840EAC1
:10217000010900BFCA2021684862532021684862D3
:1021800000BF686AB0F5807F3FD12068806820F486
:102190008070216888602068C06800F0800060F46A
:1021A000C0702168C860FEF7B1FC074614E0FEF776
:1021B000ADFCC01BB0F57A7F0ED900BFFF202168AF
:1021C000486200BF032084F8210000BF002084F88B
:1021D000200000BF032067E72068C06800F001000E
:1021E0000028E4D02068C0F81C802068C0F8449023
:1021F0002068806840F4807021688860206880686A
:1022000040F48050216888603EE02068806820F4B7
:102210000070216888602068C06800F0800060F469
:1022200020702168C860FEF771FC074614E0FEF7D5
:102230006DFCC01BB0F57A7F0ED900BFFF2021686E
:10224000486200BF032084F8210000BF002084F80A
:10225000200000BF032027E72068C068C0F34000CB
:102260000028E4D02068C0F820802068C0F848909A
:102270002068806840F40070216888602068806869
:1022800040F40050216888600E48006840F48020C7
:102290000C4908600B480830006840F48020094968
:1022A0000831086000BFFF202168486200BF01209C
:1022B00084F8210000BF002084F8200000BF00BF88
:1022C000F2E60000000401402DE9F04104460D460D
:1022D0001646002700BF94F82000012802D10220F2
:1022E000BDE8F081012084F8200000BF022084F8BE
:1022F00021004EB9687800F01000102804D16878E9
:1023000000F0EF000A30687086B9E87801F0FDFB54
:102310000304687801F0F9FB43EA0023A87801F090
:10232000F4FB0343287843EA403711E0687801F072
:10233000E1FB0746A87801F0DDFB0746E8780004DA
:10234000697840EA0120A9780843297840EA4137B2
:1023500000BFCA202168486253202168486200BF3C
:10236000204601F0DFFB70B100BFFF20216848620A
:1023700000BF042084F8210000BF002084F8200062
:1023800000BF0120ACE71848384021684860206849
:10239000C06820F080002168C8602068806800F074
:1023A000200090B9204600F0BDF870B100BFFF20BA
:1023B0002168486200BF042084F8210000BF00208B
:1023C00084F8200000BF01208AE700BFFF202168B9
:1023D000486200BF012084F8210000BF002084F87B
:1023E000200000BF00BF7BE73FFFFF002DE9F04169
:1023F00004460D461646002700BF94F82000012829
:1024000002D10220BDE8F081012084F8200000BF45
:10241000022084F82100CEB92068806800F04000D6
:1024200000B102E00020E87000BF287801F06DFBE9
:102430000304687801F069FB43EA0023A87801F0FF
:1024400064FB0343E87843EA004716E020688068AD
:1024500000F0400020B1287801F04CFB074602E074
:102460000020E87000BF28780004697840EA012065
:10247000A9780843E97840EA014700BFCA202168EB
:10248000486253202168486200BF204601F04AFBA1
:1024900070B100BFFF202168486200BF042084F8AB
:1024A000210000BF002084F8200000BF0120A9E720
:1024B0001B483840216808602068806820F480202C
:1024C000216888602068C06820F080002168C860AA
:1024D0002068806800F0200090B9204600F022F8C3
:1024E00070B100BFFF202168486200BF042084F85B
:1024F000210000BF002084F8200000BF012081E7F8
:1025000000BFFF202168486200BF012084F821003D
:1025100000BF002084F8200000BF00BF72E7000069
:102520007F7F7F0070B5044600252068C06820F0DA
:10253000A0002168C860FEF7E9FA054607E0FEF74B
:10254000E5FA401BB0F57A7F01D9032070BD206801
:10255000C06800F020000028F1D00020F6E77047A6
:10256000F8B50446206846682068856805F0400094
:1025700048B905F0010030B106F0400018B120461E
:10258000E16C8847F8BD05F0020030B106F080002C
:1025900018B12046216D8847F4E705F4B070002893
:1025A00077D006F02000002873D005F04000F0B18D
:1025B00094F85D0003280ED0206E40F004002066E1
:1025C00000BF002000902068C068009020688068EC
:1025D000009000BF0BE000BF002000902068C068A2
:1025E000009020688068009000BF00BFCAE705F037
:1025F000200088B1206E40F00100206600BF00205E
:1026000000902068806800902068006820F04000FA
:102610002168086000BF00BF05F4807058B1206ECB
:1026200040F00800206600BF00200090206880680D
:10263000009000BF00BF206E28B32068406820F0E3
:10264000E00021684860012084F85D0006F0020087
:10265000022802D006F00100B8B12068406820F0DE
:10266000030021684860A06D28B10B48A16D886304
:10267000A06DFEF706F9606D28B10748616D8863AB
:10268000606DFEF7FEF803E003E02046FFF767FF0A
:1026900078E700BF76E70000753B000870B5044698
:1026A0000CB9012070BD606A00B900BF0021A162B1
:1026B00094F85D0028B9002084F85C00204600F002
:1026C0004DF8022084F85D002068006820F040008A
:1026D00021680860E068B0F5E06F01D9002501E0ED
:1026E0004FF48055E068B0F5706F05D0E068B0F544
:1026F000E06F01D00021A162206B40B9E068B0F525
:10270000E06F02D90221216301E001212163D4E9B4
:10271000010108432169084361690843218B01F4E1
:1027200000710843E1690843216A0843A16A08432C
:10273000216808600421A06901EA1040616A084329
:10274000616B0843E1680843284321684860002022
:102750002066012084F85D000020A3E710B586B054
:10276000044615492068884224D100BF1348006EF2
:1027700040F48050114908660846006E00F480500D
:10278000009000BF00BFE0200190022002900020D6
:102790000390032004900520059001A94FF090407C
:1027A000FEF7AAF8002211462320FEF72EFB232075
:1027B000FEF71EFB06B010BD0030014000100240C5
:1027C000042808D14FF0E021096941F004014FF0DD
:1027D000E022116107E04FF0E021096921F00401D6
:1027E0004FF0E0221161704770B504462546681E1F
:1027F000B0F1807F01D301200FE0681E4FF0E0218F
:1028000048610F214FF0FF3000F032FF00204FF001
:10281000E021886107200861002070BD7047704783
:1028200030B502460B4600BF92F83800012801D1AE
:10283000022030BD012082F8380000BF10684168D6
:10284000106884680F4D1068A84203D00E4D1068C0
:10285000A84203D121F470015868014321F07001AE
:102860001868014324F080049868044310684160AC
:102870001068846000BF002082F8380000BF00BFED
:10288000D7E70000002C01400034014010B5044699
:102890000CB9012010BD94F8390028B9002084F843
:1028A0003800204600F00CF8022084F83900211D81
:1028B000206801F009FA012084F839000020E9E7D6
:1028C00008B50168B1F1804F0DD100BF0649896D8F
:1028D00041F00101044A91651146896D01F0010141
:1028E000009100BF00BF08BD00100240014608680B
:1028F000C06840F001000A68D0600868006840F0D5
:1029000001000A6810600020704700002DE9F041C6
:1029100004460D46002600BF94F83800012802D175
:102920000220BDE8F081012084F8380000BF0220B9
:1029300084F83900206886684148064026F47F46BE
:1029400020688660286850283CD00CDC202861D0A4
:1029500004DC002854D0102866D156E030285ED020
:10296000402861D142E0602836D070280ED0B0F502
:10297000805F03D0B0F5005F56D116E02068806814
:102980002F4970310840216888604EE0D5E9021374
:102990006A68206801F0F8F92068866828480640CF
:1029A00046F07706206886603FE0D5E902136A6842
:1029B000206801F0E9F92068806840F480402168CF
:1029C000886032E0EA686968206801F0B9FB50214C
:1029D000206801F0E5F928E0EA686968206801F0FC
:1029E000C4FB6021206801F0DBF91EE0EA68696839
:1029F000206801F0A5FB4021206801F0D1F914E026
:102A00000021206801F0CCF90FE01021206801F0CE
:102A1000C7F90AE02021206801F0C2F905E0302161
:102A2000206801F0BDF900E000BF00BF012084F87C
:102A3000390000BF002084F8380000BF00BF70E7F5
:102A400088FFFEFF704710B5044620680069C0F398
:102A50004000D8B12068C068C0F34000B0B16FF04A
:102A6000020021680861012020762068806900F05A
:102A7000030018B12046FFF7E5FF05E0204600F00F
:102A8000C7F8204600F0B2F90020207620680069DF
:102A9000C0F38000D8B12068C068C0F38000B0B136
:102AA0006FF00400216808610220207620688069A8
:102AB00000F4407018B12046FFF7C4FF05E020463F
:102AC00000F0A6F8204600F091F90020207620685A
:102AD0000069C0F3C000D8B12068C068C0F3C0006E
:102AE000B0B16FF0080021680861042020762068EA
:102AF000C06900F0030018B12046FFF7A3FF05E00E
:102B0000204600F085F8204600F070F9002020767D
:102B100020680069C0F30010D8B12068C068C0F315
:102B20000010B0B16FF01000216808610820207615
:102B30002068C06900F4407018B12046FFF782FF9A
:102B400005E0204600F064F8204600F04FF9002030
:102B500020762068006900F0010058B12068C06844
:102B600000F0010030B16FF00100216808612046DB
:102B700000F03EF920680069C0F3C01058B1206829
:102B8000C068C0F3C01030B16FF0800021680861E8
:102B90002046FFF743FE20680069C0F3801058B15B
:102BA0002068C068C0F3801030B16FF04000216829
:102BB0000861204600F028F920680069C0F3401041
:102BC00058B12068C068C0F3401030B16FF02000E9
:102BD000216808612046FFF722FE10BD10B586B0BF
:102BE00004460949206888420CD1801501900220D2
:102BF00002900020039004900220059001A9034850
:102C0000FDF77AFE06B010BD000800400004004841
:102C1000704770B504460D46164600BF94F838005C
:102C2000012801D1022070BD012084F8380000BFC6
:102C3000022084F839000C2E51D005DC4EB1042E50
:102C40001ED0082E7AD133E0102E60D0142EF9D188
:102C500075E02946206801F0ADF82068806940F0F1
:102C60000800216888612068806920F004002168DC
:102C7000886120688069296908432168886177E054
:102C80002946206801F0EEF82068806940F4006071
:102C9000216888612068806920F4806021688861EB
:102CA00020688069296940EA0120216888615FE025
:102CB0002946206801F034F92068C06940F0080016
:102CC0002168C8612068C06920F004002168C861DB
:102CD0002068C069296908432168C86148E029461D
:102CE000206801F079F92068C06940F4006021682B
:102CF000C8612068C06920F480602168C8612068CC
:102D0000C069296940EA01202168C86130E029468C
:102D1000206801F09FF92068406D40F008002168AC
:102D200048652068406D20F00400216848652068EF
:102D3000406D296908432168486519E017E0294674
:102D4000206801F0C1F92068406D40F400602168FE
:102D500048652068406D20F48060216848652068DF
:102D6000406D296940EA01202168486500E000BF04
:102D700000BF012084F8390000BF002084F838002B
:102D800000BF00BF4FE710B504460CB9012010BDCD
:102D900094F8390028B9002084F83800204600F063
:102DA0000DF8022084F83900211D206800F08CFF06
:102DB000012084F839000020E9E7000008B5094A3D
:102DC000016891420DD100BF0749896D41F00401AE
:102DD000054A91651146896D01F00401009100BF1B
:102DE00000BF08BD0008004000100240704700000E
:102DF00010B5044603492068884201D1FDF750FF11
:102E000010BD0000002C0140704770477047000063
:102E10002DE9F04104462068C5692068066805F080
:102E20000F08B8F1000F0AD105F0200038B106F004
:102E3000200020B1204601F0D9FABDE8F0812068D9
:102E40008768B8F1000F7DD007F0010018B906F4CB
:102E50009070002876D005F0010048B106F480702B
:102E600030B1012021680862E06E40F00100E066A8
:102E700005F0020048B107F0010030B102202168DE
:102E80000862E06E40F00400E06605F0040048B11E
:102E900007F0010030B1042021680862E06E40F0C4
:102EA0000200E06605F0080060B106F0200010B9ED
:102EB00007F0010030B1082021680862E06E40F0A0
:102EC0000800E066E06E68B305F0200028B106F067
:102ED000200010B1204601F089FAE06E00F00800F1
:102EE00028B92068806800F04000402824D120469E
:102EF00001F05CFA2068806800F04000402817D19B
:102F00002068806820F0400021688860606E58B1B9
:102F10002248616E8863606EFDF7B3FC10B1606E8D
:102F2000816B88470DE00DE02046FFF76FFF08E05A
:102F30002046FFF76BFF04E02046FFF767FF002005
:102F4000E0667AE72068876805F4801078B107F4B6
:102F5000800060B14FF4801021680862202084F85E
:102F6000690084F86A002046FFF74FFF65E705F027
:102F7000800030B106F0800018B1204601F0C3FC9B
:102F80005BE705F0400030B106F0400018B1204684
:102F900001F01CFA51E700BF4FE70000954300081D
:102FA00010B504460CB9012010BDA06900B100E0C5
:102FB00000BF94F8690028B9002084F86800204612
:102FC00000F02AF8242084F869002068006820F0C6
:102FD000010021680860204601F04EFA012800D166
:102FE000E2E7606A10B1204601F01EF920684068EF
:102FF00020F49040216848602068806820F02A0012
:10300000216888602068006840F00100216808603D
:10301000204601F085F9C7E710B586B0044631496E
:103020002068884232D100BF2F48806D40F4801064
:103030002D4988650846806D00F48010009000BF1F
:1030400000BF881401900220029001200390032009
:1030500004900820059001A92448FDF74DFC0420A8
:103060000190022002900120039003200490082088
:10307000059001A91E48FDF73FFC002205213520DF
:10308000FDF7C3FE3520FDF7B3FE28E0194920689F
:10309000884224D100BF1448806D40F400301249AA
:1030A00088650846806D00F40030009000BF00BFC6
:1030B0000C20019002200290002003900320049035
:1030C0000720059001A94FF09040FDF715FC002264
:1030D00005212620FDF799FE2620FDF789FE06B082
:1030E00010BD0000005000400010024000080048E1
:1030F000000C0048004400402DE9F84F04460D46FE
:10310000164699464FF0000A94F86A0020287AD1B2
:1031100005B116B9012000F078B800BF94F8680036
:10312000012801D10220F6E7012084F8680000BFE1
:103130000020583460612220A074FDF7E7FC82462D
:1031400026806680583C00BFA068B0F5805F0AD139
:10315000206920B940F2FF10A4F85C001CE0FF20B9
:10316000A4F85C0018E0A06848B9206918B9FF20ED
:10317000A4F85C0010E07F20A4F85C000CE0A068DC
:10318000B0F1805F08D1206918B97F20A4F85C00F5
:1031900002E03F20A4F85C0000BFB4F85C8024E0AB
:1031A000B4F85A00401EA4F85A00534600222021C9
:1031B0002046CDF8009001F0DBFB08B10320AAE720
:1031C000A068B0F5805F09D1206938B92F46206822
:1031D000808C00EA08003880AD1C06E02068808CF6
:1031E00008F0FF01084005F8010BB4F85A00002868
:1031F000D6DC202084F86A0000BF002084F8680034
:1032000000BF88E7FFE7022085E718BCBDE8E08F34
:1032100070472DE9F84304460D4616461F464FF009
:10322000000994F86900202854D105B116B901208D
:10323000BDE8F88300BF94F86800012801D102209E
:10324000F6E7012084F8680000BF00205034E061F8
:1032500021206076FDF75AFC814626806680503C2E
:1032600021E0B4F85200401EA4F852004B46002260
:1032700080212046009701F07BFB08B10320D7E7AF
:10328000A068B0F5805F0AD1206940B9A846B8F8B7
:103290000000C0F3080021680885AD1C03E015F8A4
:1032A000010B21680885B4F852000028D9DC4B4690
:1032B000002240212046009701F05AFB08B103206C
:1032C000B6E7202084F8690000BF002084F8680079
:1032D00000BFADE70220ABE77047000000B587B044
:1032E00000BF5848C06C40F004005649C864084606
:1032F000C06C00F00400019000BF00BF00BF084692
:10330000C06C40F08000C8640846C06C00F08000CB
:10331000019000BF00BF00BF0846C06C40F0010034
:10332000C8640846C06C00F00100019000BF00BFF7
:1033300000BF0846C06C40F00200C8640846C06C7C
:1033400000F00200019000BF00BF00BF0846C06C43
:1033500040F00800C8640846C06C00F00800019006
:1033600000BF00BF4FF40050029037480390002088
:10337000049002A93548FDF7BFFA40F624400290B8
:103380000120039000200490059002A92F48FDF72A
:10339000B3FA4BF24D0002900120039000200490FC
:1033A000059002A92A48FDF7A7FA4FF4826002901F
:1033B000284803900020049002A92548FDF79CFAB4
:1033C0004FF4E0700290234803900220049002A979
:1033D0001E48FDF791FA4FF4006002901D480390DB
:1033E0000020049002A94FF09040FDF785FA4FF4B9
:1033F000805002900120039000200490059002A9C3
:103400004FF09040FDF778FA002240F624410F4833
:10341000FDF776FB00224BF24D010D48FDF770FBE6
:1034200000224FF480514FF09040FDF769FB0022DD
:1034300005211720FDF7E9FC1720FDF7D9FC07B09F
:1034400000BD0000001002400000121000080048FB
:10345000000400480000111010B50E480E49086025
:103460000E48486000210C4881600121C1600021A4
:10347000016141618161C1610162FDF783FB08B1B6
:10348000FCF7EAFF00210448FDF746FB08B1FCF712
:10349000E3FF10BD005C0040E4220020EC9C901093
:1034A00010B50A480A490860002048607F21084892
:1034B0008160FF21C1600021016141618161C161C1
:1034C000FEF766FD08B1FCF7C7FF10BD00280040FD
:1034D0003023002010B51148114908604FF4827064
:1034E000486000210E4881604FF44071C1600021A6
:1034F000016141614FF4007181610021C16101628C
:10350000416281620721C162002101630821416398
:10351000FFF7C4F808B1FCF79FFF10BD0030014071
:103520005423002000B587B04FF080401249086056
:10353000002048600021104881606021C1600021A6
:103540000161FFF7A3F908B1FCF786FF4FF4805043
:10355000039003A90848FFF7D9F908B1FCF77CFFED
:1035600000200090029069460348FFF759F908B11E
:10357000FCF772FF07B000BDB823002000B58BB088
:1035800015481649086000204860002113488160F2
:10359000C1600161FFF7F7FB08B1FCF75DFF002098
:1035A00008900A9008A90D48FFF73AF908B1FCF70E
:1035B00053FF6020019000200290039005900822A4
:1035C00001A90648FFF725FB08B1FCF745FF0348B2
:1035D000FFF704FB0BB000BD00080040F4230020FF
:1035E00010B50D480D4908604FF416504860002191
:1035F0000A488160C16001610C2141610021816143
:10360000C16101620020054948620846FFF7C8FC15
:1036100008B1FCF721FF10BD00500040302400200D
:1036200010B50D480D4908604FF4E13048600021A5
:103630000A488160C16001610C2141610021816102
:10364000C16101620020054948620846FFF7A8FCF5
:1036500008B1FCF701FF10BD00440040A024002089
:1036600002480068C0F30220704700000CED00E043
:1036700010B5002807DA0A07140E054A00F00F03F8
:103680001B1FD45403E00A07130E024A135410BD43
:1036900018ED00E000E400E02DE9F04104460E469C
:1036A000002700257348C06800F00300C0B17148CE
:1036B000C06800F00300216888420FD1206868B11B
:1036C0006C48C06800F07000702191FAA1F1B1FA65
:1036D00081F1C840401C6168884238D0012536E03D
:1036E0002068012804D0022809D003281AD10DE04F
:1036F0006048006800F0020000B9012514E05D4850
:10370000006800F4806000B901250DE059480068A8
:1037100000F4003028B95748006800F4802000B950
:10372000012501E0012500BF00BF85B9D4E90010E3
:10373000401E702292FAA2F2B2FA82F2904008433E
:103740004C49C96821F0730108434A49C860002DFB
:1037500077D14848006820F0806046490860FDF74E
:10376000D5F9074606E0FDF7D1F9C01B022801D9BB
:10377000032505E03F48006800F000600028F2D112
:1037800000BF002D73D1CEB94FF4FE4191FAA1F1E3
:10379000B1FA81F1A0688840E16809094FF400326C
:1037A00092FAA2F2B2FA82F29140084331490969D1
:1037B000314A114008432F49086138E0012E1BD1DE
:1037C0004FF4FE4191FAA1F1B1FA81F1A06888406D
:1037D00001222169C2EB51014FF4C00292FAA2F218
:1037E000B2FA82F29140084322490969234A114002
:1037F0000843204908611AE04FF4FE4191FAA1F113
:10380000B1FA81F1A068884001226169C2EB5101DF
:103810004FF0C06292FAA2F2B2FA82F291400843EB
:1038200014490969164A11400843124908611148B0
:10383000006840F080600F490860FDF767F90746AF
:1038400007E014E0FDF762F9C01B022801D9032547
:1038500005E00848006800F000600028F2D000BFD2
:103860002DB904480069A169084302490861284646
:10387000BDE8F08100100240FF80FDFFFF809FFF48
:10388000FF80FFF92DE9F04104460E460027002590
:103890006448C06800F00300C0B16248C06800F02E
:1038A0000300216888420FD1206868B15D48C06874
:1038B00000F07000702191FAA1F1B1FA81F1C840D5
:1038C000401C6168884238D0012536E02068012814
:1038D00004D0022809D003281AD10DE0514800680D
:1038E00000F0020000B9012514E04E48006800F421
:1038F000806000B901250DE04A48006800F40030FE
:1039000028B94848006800F4802000B9012501E08A
:10391000012500BF00BF85B9D4E90010401E702208
:1039200092FAA2F2B2FA82F2904008433D49C96885
:1039300021F0730108433B49C860002D6FD139481D
:10394000006820F0805037490860FDF7DFF807462F
:1039500006E0FDF7DBF8C01B022801D9032505E0CE
:103960003048006800F000500028F2D100BFE5BBED
:10397000CEB94FF4FE4191FAA1F1B1FA81F1A068FC
:103980008840E16809094FF4003292FAA2F2B2FAD3
:1039900082F29140084323494969234A1140084370
:1039A000204948611AE04FF4FE4191FAA1F1B1FAC1
:1039B00081F1A068884001222169C2EB51014FF0DA
:1039C000C06292FAA2F2B2FA82F29140084315491B
:1039D0004969164A11400843124948611148006874
:1039E00040F080500F49086000E018E0FDF78EF8C5
:1039F000074606E0FDF78AF8C01B022801D9032517
:103A000005E00848006800F000500028F2D000BF30
:103A10002DB9044840696169084302494861284654
:103A2000BDE8F08100100240FF80FDFFFF80FFF93C
:103A3000F8B50446002600252348806D00F080502C
:103A400018B1FDF77DFA064616E000BF1E48806DEE
:103A500040F080501C4988650846806D00F0805019
:103A6000009000BF00BFFDF76BFA06461648806D58
:103A700020F0805014498865B6F5007F07D1802C6E
:103A800010D9A02C01D902250CE001250AE0802CD8
:103A900001D9032506E0802C01D1022502E0702C1B
:103AA00000D101250948006820F007002843074994
:103AB00008600846006800F00700A84201D0012015
:103AC000F8BD0020FCE7000000100240002002408A
:103AD00008B5002000900548FEF7CEF900231A46ED
:103AE00069460348006803F097F808BD30230020BA
:103AF000B4000020014600BF080900EB800042002E
:103B000001F00F001044C0B270470146002203E0EC
:103B1000521CA1F10A00C1B20A29F9DA100741EAE0
:103B20001060704770B5044600252068C06800F03A
:103B30004000A0B9681E2168C860FCF7E7FF054691
:103B400007E0FCF7E3FF401BB0F57A7F01D90320C3
:103B500070BD2068C06800F040000028F1D000204F
:103B6000F6E7000010B50248FEF7FAFC10BD0000B1
:103B70005423002070B50546AC6A0020A4F8460026
:103B8000E0872046FEF7EBFC70BD00BF012001F08E
:103B900057FBFBE710B501F064FB10BD10B5B8B0E2
:103BA000062027900120299000022A9010202B90B7
:103BB00002203190022127A8C162012101630A215C
:103BC0004163072181630221C1630164FDF72CFE7B
:103BD00008B1FCF741FC0F20229003202390002025
:103BE000249025902690042122A8FDF71BFC08B103
:103BF000FCF732FC1B48009000200F9012901690AA
:103C00004FF080501E90001521900220019001215C
:103C10000291082103910721049102210591069147
:103C2000C10507916846FDF793F908B1FCF714FC4C
:103C30004FF40070FDF73EF908B1FCF70DFCFDF7FD
:103C400007FD4FF47A71B0FBF1F42046FEF7CCFD8E
:103C50000420FEF7B5FD00220F21501EFDF7D5F818
:103C600038B010BD124102001048006840F47000E6
:103C70000E4908600E48006840F001000C490860D9
:103C800000208860084600680A4908400849086022
:103C90008814C8600846006820F48020086000206E
:103CA0008861C803014980390860704788ED00E0E9
:103CB00000100240FFFFF6EA10B50248FEF7C3FE0F
:103CC00010BD00007021002000220268264B98429F
:103CD0000ED0B0F1804F0BD0244B984208D0244B2B
:103CE000984205D0234B984202D0234B984203D1EF
:103CF00022F070024B681A431B4B984217D0B0F168
:103D0000804F14D0194B984211D0194B98420ED0C5
:103D1000184B98420BD0184B984208D0174B98423A
:103D200005D0174B984202D0164B984203D122F48B
:103D30004072CB681A4302608B68C3620B6883626F
:103D4000094B98420BD00C4B984208D00B4B984231
:103D500005D00B4B984202D00A4B984201D10B6917
:103D60000363012343617047002C014000040040BD
:103D700000080040000C00400034014000400140B9
:103D8000004401400048014030B50C4600218168E4
:103D900021F47F4142EA032525432943816030BD58
:103DA0000A460021816821F0700142F0070319439F
:103DB0008160704730B5002400220023056A25F099
:103DC00001050562026A43688469204D2C4024F095
:103DD00003040D682C4322F002028D682A431C4D17
:103DE000A84200D10FE01B4DA84200D10BE01A4DB4
:103DF000A84200D107E0194DA84200D103E0184DB8
:103E0000A84206D100BF22F00802CD682A4322F062
:103E100004020F4DA8420BD00E4DA84208D00E4D03
:103E2000A84205D00D4DA84202D00D4DA84207D1A1
:103E300023F4807323F400734D692B438D692B4366
:103E4000436084614D684563026230BD8FFFFEFFB1
:103E5000002C01400034014000400140004401407A
:103E60000048014030B5002400220023056A25F0F7
:103E700010050562026A43688469234D2C4024F4CE
:103E800040740D6844EA052422F020028D6842EA5D
:103E900005121E4DA84200D10FE01D4DA84200D1D1
:103EA0000BE01C4DA84200D100BF1B4DA84200D121
:103EB00000BF1A4DA84207D106E022F08002CD686B
:103EC00042EA051222F04002104DA8420BD0104DDC
:103ED000A84208D00F4DA84205D00F4DA84202D0ED
:103EE0000E4DA84209D123F4806323F400634D6989
:103EF00043EA85038D6943EA8503436084614D6825
:103F00008563026230BD0000FF8FFFFE002C014080
:103F1000003401400040014000440140004801409D
:103F200030B5002400220023056A25F4807505625F
:103F3000026A4368C469224D2C4024F003040D68D2
:103F40002C4322F400728D6842EA05221D4DA842DE
:103F500000D10FE01C4DA84200D10BE01B4DA84240
:103F600000D100BF1A4DA84200D100BF194DA84290
:103F700007D106E022F40062CD6842EA052222F46D
:103F80008062104DA8420BD00F4DA84208D00F4DB3
:103F9000A84205D00E4DA84202D00E4DA84209D12C
:103FA00023F4805323F400534D6943EA05138D69CC
:103FB00043EA05134360C4614D68C563026230BDC6
:103FC0008FFFFEFF002C0140003401400040014003
:103FD000004401400048014030B500220023002485
:103FE000056A25F480550562036A4468C269134D69
:103FF0002A4022F440720D6842EA052223F400535D
:104000008D6843EA05330E4DA8420BD00D4DA842F2
:1040100008D00D4DA84205D00C4DA84202D00C4D41
:10402000A84204D124F480444D6944EA85144460D4
:10403000C2614D680564036230BD0000FF8FFFFE62
:10404000002C014000340140004001400044014088
:104050000048014030B5002400220023056A25F401
:1040600080350562026A4368446D114D2C400D682D
:104070002C4322F400320D8942EA05420D4DA8423C
:104080000BD00D4DA84208D00C4DA84205D00C4DC8
:10409000A84202D00B4DA84204D123F480334D69CD
:1040A00043EA0523436044654D688565026230BD7F
:1040B0008FFFFEFF002C0140003401400040014012
:1040C000004401400048014030B500240022002394
:1040D000056A25F480150562026A4368446D124D35
:1040E0002C400D6844EA052422F400120D8942EAAE
:1040F00005520E4DA8420BD00D4DA84208D00D4DD3
:10410000A84205D00C4DA84202D00C4DA84204D1C3
:1041100023F480234D6943EA8523436044654D6859
:10412000C565026230BD0000FF8FFFFE002C01401C
:10413000003401400040014000440140004801407B
:1041400030B50B46144600210022026A056A25F0AC
:1041500001050562816921F0F00141EA041122F0B4
:104160000A021A438161026230BD30B50B46144623
:1041700000210022056A25F0100505628169026AA6
:1041800021F4704141EA043122F0A00242EA031214
:104190008161026230BD000038B50020009001242A
:1041A0001D480068006820F020001B49096808606D
:1041B00019480068808C19490870084600787E28E4
:1041C0001ED164230222491C1348FEF795FF1348B1
:1041D00080781249497800EB0120401C80B20090A1
:1041E0006423BDF800200D49C91C0B48FEF784FF6D
:1041F000044600230A4A69460A48006802F00CFD9A
:104200000548FEF705FE04480068006840F02000FD
:1042100001490968086038BD302400207E2500204F
:1042200074000020D000002090F8241001F001015B
:1042300039B10168496821F40031826A114302688A
:10424000516090F8241001F00201022907D10168A1
:10425000496821F48031C26A11430268516090F8C4
:10426000241001F00401042907D10168496821F4F0
:104270008021026B11430268516090F8241001F014
:104280000801082907D10168496821F40041426BFF
:1042900011430268516090F8241001F010011029B8
:1042A00007D10168896821F48051826B114302684B
:1042B000916090F8241001F02001202907D10168B5
:1042C000896821F40051C26B11430268916090F833
:1042D000241001F04001402913D10168496821F4FC
:1042E0008011026C114302685160016CB1F5801FAE
:1042F00007D10168496821F4C001426C114302688A
:10430000516090F8241001F08001802907D10168E4
:10431000496821F40021826C1143026851607047A2
:1043200038B5044600250020E066FCF7EFFB0546A3
:104330002068006800F0080008280CD16FF07E406B
:104340002B4600224FF400110090204600F010FB95
:1043500008B1032038BD2068006800F0040004287C
:104360000CD16FF07E402B4600224FF4800100906C
:10437000204600F0FDFA08B10320EBE7202084F886
:10438000690084F86A0000BF002084F8680000BF5C
:1043900000BFDFE770B50546AC6A0020A4F85A00FC
:1043A000A4F852002046FEF731FD70BD016809688F
:1043B00021F49071026811600168896821F001019F
:1043C00002689160202180F86A10704710B5044699
:1043D0002068006820F0400021680860202084F8F0
:1043E00069002046FEF778FF002010BD2DE9F0415E
:1043F0000446B4F85C7094F86A00222833D120682F
:10440000858CA068B0F5805F09D1206938B9666DE8
:1044100005EA07003080606D801C606505E0F8B239
:104420002840626D511C61651070B4F85A00401E3E
:1044300080B2A4F85A00A0B92068006820F49070F7
:10444000216808602068806820F001002168886089
:10445000202084F86A002046FEF7DAFE0020BDE83E
:10446000F0810020FBE72068008B40F00800216805
:1044700008830220F3E700002DE9F05F04460025E1
:104480001026A946AA46AB46FC492068884201D1BD
:10449000012000E0002000B100E000BF2169A06819
:1044A000084361690843E16940EA01052068006842
:1044B000F34908402843216808602068406820F4D8
:1044C0004050E168084321684860A569EB492068CD
:1044D000884201D1012000E0002008B9206A05438C
:1044E0002068806820F4306028432168886000BF1D
:1044F000E4492068884216D1E348006800F00300D0
:1045000030B1012808D0022804D0032808D105E0E2
:10451000012607E0022605E0042603E0082601E064
:10452000102600BF8CE0D9492068884216D1D648B1
:10453000006800F00C0030B1042808D0082804D02E
:104540000C2808D105E0002607E0022605E0042635
:1045500003E0082601E0102600BF71E0CC49206886
:10456000884216D1C848006800F0300030B11028E9
:1045700008D0202804D0302808D105E0002607E024
:10458000022605E0042603E0082601E0102600BF0D
:1045900056E0C0492068884216D1BB48006800F048
:1045A000C00030B1402808D0802804D0C02808D1ED
:1045B00005E0002607E0022605E0042603E00826C1
:1045C00001E0102600BF3BE0B3492068884219D1C2
:1045D000AD48006800F4407048B1B0F5807F0AD063
:1045E000B0F5007F05D0B0F5407F08D105E000268A
:1045F00007E0022605E0042603E0082601E0102675
:1046000000BF1DE09D492068884219D19E4800687E
:1046100000F4406048B1B0F5806F0AD0B0F5006F8B
:1046200005D0B0F5406F08D105E0002607E002266E
:1046300005E0042603E0082601E0102600BF00BFC5
:1046400000BF8E492068884201D1012000E000208F
:10465000002871D00025042E0FD003DC3EB1022EBD
:1046600012D108E0082E0CD0102E0DD10DE0FCF771
:10467000F5FF05460CE0894D0AE0FDF71BF80546FD
:1046800006E04FF4004503E000BF4FF0010B00BF10
:1046900000BF002D0AD0606800EB4000A84203D89C
:1046A00060680003A84202D24FF0010B23E1042E00
:1046B0002ED003DC3EB1022E51D118E0082E3CD0A2
:1046C000102E4CD14CE0FCF7C9FF4FF48071A0FBD9
:1046D0000130616849085F1840F10001D4F804C056
:1046E000624600233846FBF7D9FD05463BE0D4F887
:1046F00004C04FEA5C000021694BC71841EB010878
:1047000062460B4638464146FBF7C8FD05462AE09F
:10471000FCF7D0FF4FF48071A0FB013061684908BD
:104720005F1840F10001D4F804C062460023384607
:10473000FBF7B4FD054616E022E0D4F804C04FEACA
:104740005C0000214FF40003C71841EB01086246EA
:104750000B4638464146FBF7A1FD054603E000BF86
:104760004FF0010B00BF00BFB5F5407F05D3B5F595
:10477000801F02D22068C560BDE04FF0010BBAE097
:10478000E069B0F5004F54D1042E2BD005DC4EB1BA
:10479000012E12D0022E3BD11AE0082E2DD0102E61
:1047A00036D136E0FCF75AFF4000616800EB51005B
:1047B000B0FBF1F01FFA80FA2EE0FCF765FF400035
:1047C000616800EB5100B0FBF1F01FFA80FA23E0C2
:1047D0003449606801EB50006168B0FBF1F01FFAEA
:1047E00080FA19E0FCF766FF4000616800EB5100B9
:1047F000B0FBF1F01FFA80FA0EE04FF480316068F0
:1048000001EB50006168B0FBF1F01FFA80FA03E0A1
:1048100000BF4FF0010B00BF00BF4FF6F0700AEA77
:104820000009CAF3420049EA00092068C0F80C9068
:1048300061E0042E43D005DC4EB1012E12D0022ED1
:1048400054D131E0082E45D0102E4FD14FE0FCF767
:1048500005FF616800EB5100B0FBF1F080B2216808
:10486000C86047E0FCF710FF616800EB5100B0FB47
:10487000F1F080B22168C8603CE000000080004098
:10488000F369FFEF00380140881002400044004007
:1048900000480040004C0040005000400024F4005C
:1048A000000024F40048E8011449606801EB50005E
:1048B0006168B0FBF1F080B22168C8601AE0FCF7D3
:1048C000F9FE616800EB5100B0FBF1F080B22168A5
:1048D000C8600FE04FF40041606801EB5000616870
:1048E000B0FBF1F080B22168C86003E000BF4FF078
:1048F000010B00BF00BF584600F002B80024F400CE
:1049000030BCBDE8C09F014691F8690021282DD137
:10491000B1F8520068B90868006820F080000B68A0
:1049200018600868006840F040000B6818600020BC
:1049300070478868B0F5805F0BD1086948B9CA6CC8
:104940001088C0F308000B681885C86C801CC86408
:1049500005E0CB6C581CC86418780B681885B1F852
:104960005200401EA1F852000020E1E70220DFE7DC
:104970002DE9F04104460D4617469846069E21E073
:10498000701CF8B12EB1FCF7C1F8A0EB0800B042E2
:1049900018D92068006820F4D07021680860206869
:1049A000806820F0010021688860202084F8690078
:1049B00084F86A0000BF002084F8680000BF03206C
:1049C000BDE8F0812068C0692840A84201D10120DB
:1049D00000E00020B842D3D00020F1E710B5012458
:1049E00019480068808C19490870174800680068E9
:1049F00020F02000144909680860144800788028D5
:104A000016D1642302221149491C0F48FEF774FB9A
:104A10000E4882786423C11C0B48FEF76DFB0446E8
:104A200000230B4A0949491C0A48006802F0F4F8BF
:104A30000548FEF7EDF904480068006840F02000E2
:104A400001490968086010BDA02400204C25002001
:104A500074000020B00000200FB4054B10B503A96E
:104A6000044A029800F018F810BC5DF814FB00002E
:104A7000A94F00087C00002002E008C8121F08C1EE
:104A8000002AFAD170477047002001E001C1121FCF
:104A9000002AFBD1704700002DE9FF4F89B09B46EB
:104AA0000446002506E025280BD05A460B9990476E
:104AB000641C6D1C20780028F5D10DB0284600F04C
:104AC00095B80027B8460122474900E0074314F88B
:104AD000013F203B02FA03F00842F7D120782E284C
:104AE00019D114F8010F47F004072A280ED06FF0EF
:104AF0002F022078A0F1300109290CD808EB880199
:104B000002EB410100EB0108641CF2E70A98641C07
:104B100050F8048B0A9020780028CED0642808D062
:104B2000692806D075281ED05A460B9990476D1CEF
:104B300058E00A994FF00A0901C90A91002802DADF
:104B400040422D2102E0390504D52B218DF820109B
:104B5000012103E0F90704D02021F7E78A4608AED7
:104B60000DE00021FAE70A994FF00A0901C90A91FC
:104B7000F7E74946FBF7EAFB303106F8011D00284C
:104B8000F7D1ADEB060000F12009780701D44FF012
:104B90000108C84502DDA8EB090000E000208046BE
:104BA000002706E008A85A46C05D0B9990476D1C87
:104BB0007F1C5745F6DB04E030205A460B9990479E
:104BC0006D1CB8F10001A8F10108F5DC05E016F84C
:104BD000010B5A460B9990476D1CB9F10001A9F1E0
:104BE0000109F4DC641C65E70928010030BCBDE85C
:104BF000C08FF0B505AC70CC012E4BD10F78592F7A
:104C000048DD0F78603F0F7007787F1C07700778CA
:104C1000232F3FDD0778243F077027787F1C2770FC
:104C20002778012F11D02778032F0ED02778052F52
:104C30000BD02778072F08D02778082F05D02778A2
:104C4000102F02D02778122F12D12778312F21DD93
:104C50002778313F27701F787F1C1F701F78122F15
:104C600018DD1F78123F1F702F787F1C2F7011E006
:104C70002778302F0EDD2778303F27701F787F1C74
:104C80001F701F78122F05DD1F78123F1F702F78BD
:104C90007F1C2F70002E4BD10F783B2F48DD0F78F3
:104CA0003C3F0F7007787F1C07700778172F3FDD98
:104CB0000778183F077027787F1C27702778012F07
:104CC00011D02778032F0ED02778052F0BD0277807
:104CD000072F08D02778082F05D027780A2F02D071
:104CE00027780C2F12D127781F2F21DD27781F3F1F
:104CF00027701F787F1C1F701F780C2F18DD1F78FE
:104D00000C3F1F702F787F1C2F7011E027781E2F0B
:104D10000EDD27781E3F27701F787F1C1F701F78BD
:104D20000C2F05DD1F780C3F1F702F787F1C2F7014
:104D3000F0BD000088B000200790D6E000234FF4BB
:104D40007A7207A96948006801F076FD0028F4D05E
:104D500067484078102804D0112819D0132876D13C
:104D600091E0FEF79DFB002341F28832194661482D
:104D7000006801F061FD50B15FA0FFF76DFE0023F8
:104D80001A4619465B48006801F076FEA8E0A7E0E5
:104D9000002341F2883219465648006801F04CFD64
:104DA00048B15AA0FFF758FE00231A461946514849
:104DB000006801F061FE4E48C0788DF806004C484E
:104DC00000798DF805004A4840798DF80700484879
:104DD00080798DF808004648C0798DF8090044486C
:104DE000007A8DF80A00002202A94F48FDF7FEFA6A
:104DF00098B1002341F2883219463E48006801F01C
:104E00001BFD50B149A0FFF727FE00231A461946A3
:104E10003848006801F030FE62E0002201A94248F3
:104E2000FDF752FAA0B1002341F288321946314809
:104E3000006801F001FD58B13CA0FFF70DFE002312
:104E40001A4619462B48006801F016FE48E030E08B
:104E5000012000F09DFF00F029FA002341F2883282
:104E600019462448006801F0E7FC58B1012132A03E
:104E7000FFF7F2FD00231A4619461E48006801F0AC
:104E8000FBFD2DE02CE0002341F288321946194841
:104E9000006801F0D1FC48B135A0FFF7DDFD00232B
:104EA0001A4619461348006801F0E6FD00F0FEF9C5
:104EB00016E0002341F2883219460E48006801F0DE
:104EC000BBFC60B10A48417830A0FFF7C5FD002364
:104ED0001A4619460748006801F0CEFD00E000BF01
:104EE00000BF32210248FBF726FA27E7B000002076
:104EF0004C250020AC00002052544320496E6974B8
:104F000069616C697A6564210D0A0000536574203B
:104F100052544320636F6D6D616E642072656365EA
:104F2000697665640D0A0000302300204661696CD3
:104F300065642E2E2E0D0A00525443207365742092
:104F400074696D65207375636365737366756C2131
:104F500020416C61726D207365742065766572798D
:104F6000202564206D696E757465730D0A0000005C
:104F70004765742054696D6520636F6D6D616E6463
:104F80002072656365697665640D0A00496E766115
:104F90006C696420636F6D6D616E64206865616427
:104FA0006572203D2025640038B504460D4600207A
:104FB0000090E0B28DF800004FF47A730122694648
:104FC0000248FEF726F9204638BD0000A024002044
:104FD00010B5012000F0DCFE00220421014800F0A1
:104FE000E9FD10BD000800488AB0FBF761FEFEF73E
:104FF000D5FDFEF773F9FEF713FBFEF793FAFEF704
:1050000069FAFEF7BBFAFEF7EBFAFEF725FAFEF7B0
:1050100047FA47480068006840F0200044490968A2
:105020000860012205212620FBF7EFFE2620FBF772
:10503000DFFE012208212920FBF7E7FE2920FBF7EC
:10504000D7FE012208211720FBF7DFFE1720FBF710
:10505000CFFE012001F086FB364908601422364954
:1050600005A8FBF74FF9002105A800F002F9334924
:1050700008600020324A0123CDE90120009303900B
:10508000304B802230A1334801F084FE3249086061
:105090000020324A0123CDE9012000930390294BDF
:1050A00080222FA1324801F075FE2B4908600020B4
:1050B000304A0123CDE9012000930390214B802247
:1050C0002DA1314801F066FE23490860002201212C
:1050D000084601F06DFB2D490860002201210846B9
:1050E00001F066FB2A49086000220121084601F010
:1050F0005FFB28490860012012490870FFF768FF2C
:1051000000234FF47A7219460A48006801F094FBB4
:1051100048B121A0FFF7A0FC00231A461946054814
:10512000006801F0A9FC00F097F800BFFEE700005E
:10513000A0240020AC000020147400087800002097
:10514000BC00002084000020646562756774617390
:105150006B000000354D0008A8000020C0000020B2
:105160006D616E6167655F67617264656E00000006
:10517000C1510008C400002077617465725F6761E7
:105180007264656E00000000F5640008B000002045
:10519000B4000020B80000205374617274696E6717
:1051A000204F53204B65726E656C2E2E0D0A000049
:1051B00001460020842901D0CA1C10447047000019
:1051C00088B00020079034E000234FF47A7207A9DA
:1051D0001848006801F030FB58B300F067F800226F
:1051E00002A91548FCF7A4FE002201A91248FCF709
:1051F00079FE9DF80800092802D19DF8090068B1E0
:105200009DF80800112802D19DF8090030B19DF8E1
:10521000080001280AD19DF8090038B900234FF48D
:105220007A7207A90548006801F026FC012000F009
:10523000AFFDC9E7B400002030230020B8000020F3
:1052400070B5044625460DB1294600E00121084607
:1052500000F082FF002070BD10B501F0B9F8002009
:1052600010BD10B501F052FE012801D001F060FA26
:1052700010BD70B586B004460D46B4F90800FFF7BE
:1052800097FF0646002005AACDE90120009603906D
:10529000238A9AB22B46D4E9001001F07BFD012845
:1052A00002D0002006B070BD0598FBE700B587B0BE
:1052B000002202A91548FCF73BFE002201A9134871
:1052C000FCF710FE00234FF47A721946104800686C
:1052D00001F0B2FAC0B19DF80A309DF809209DF89E
:1052E00008100CA0FFF7B8FB9DF807309DF80620CA
:1052F0009DF805100DA0FFF7AFFB00231A461946D5
:105300000348006801F0B8FB07B000BD302300205F
:10531000AC00002054494D45206973203D20256490
:105320003A25643A25642020200000004441544579
:10533000206973203D2025642F25642F2564200DCE
:105340000A00000010B504460E48006844600E488C
:105350000068844207D20B480168091D0B480068A9
:1053600000F0BEFD0CE007480168091D0848006810
:1053700000F0B6FD07480068844201D20548046089
:1053800010BD00001C000020300000202400002080
:10539000200000204C0000202DE9F04105460F467A
:1053A0001FB9A80000F018FC00E03846064656B1C8
:1053B0005C2000F011FC04460CB1266304E030468A
:1053C00000F0FCFD00E0002424B1A900A522206B20
:1053D000FAF7AAFF2046BDE8F081000010B500F002
:1053E000A5FD1748006840BB164800F069FD164847
:1053F00000F066FD13481549086013481449086019
:1054000000220C210A2001F0D3F90D49086008465A
:10541000006850B900BF502080F31188BFF34F8F50
:10542000BFF36F8F00BF00BFFEE70548006820B1E3
:1054300008A10348006800F057FE00F0A1FD10BD70
:1054400014000020D8000020EC0000200C000020F8
:1054500010000020546D72510000000070B523E070
:1054600000F0FAFF1348006808B9012000E00020AE
:10547000054601F0B7FEBDB900F058FD0D48C06803
:10548000C468201D00F008FD0B480068401E0A4952
:1054900008600A480068401E0849086000F070FD76
:1054A000204600F062F800BF044800680028D7D109
:1054B00070BD0000080200202C0000202800002001
:1054C00070B504460D46206C70B1216CE06808444C
:1054D000E0606168E068884201D32068E0602846A7
:1054E000226CE168FAF70EFF70BD2DE9F041044629
:1054F0000E4615460027206C40B9206878BB6068CE
:1055000001F0C0FD07460020606028E07DB931460B
:10551000226CA068FAF7F6FE216CA0680844A0602F
:10552000D4E9011088421AD32068A06017E0314600
:10553000226CE068FAF7E6FE216CE068401AE06051
:105540002168E068884203D2216C6068401AE060FC
:10555000022D04D1A06B10B1A06B401EA063A06B04
:10556000401CA0633846BDE8F08110B50446206BAE
:1055700000F024FD204600F021FD10BD0146084A40
:10558000126812680AB9012200E000220A600A6863
:1055900022B9034A1268D268106800E00020704700
:1055A0000C00002030B54FF4FA53174800F0070400
:1055B0002CB1C01D20F00700134C041B1B1B02461E
:1055C000124C22600024114D6C60D018083820F075
:1055D00007000F4C206000240D4D2D686C600C4DB1
:1055E0002D682C601146441A4C60094C24680C60EC
:1055F000084D4C682C60084D4C682C604FF00044FE
:10560000064D2C6030BD0000300200205400002008
:105610005C00002064000020600000206800002082
:1056200000BFFFF71BFF064800680128F9D94FF0BB
:10563000805004490860BFF34F8FBFF36F8FF0E7CE
:105640004001002004ED00E02DE9F04704460F463C
:1056500015469946DDF82080002607E0B95D04F183
:1056600034008155B85D00B902E0761C102EF5D3E8
:1056700000BF002143200155072D00D30625E56218
:10568000E56400202065201D00F027FC04F11800CF
:1056900000F023FC2461C5F10700A06164620020D2
:1056A000606584F85800BDE8F087000010B500245C
:1056B00007E004EB84010F4A02EB810000F000FCDC
:1056C000641C072CF5D30C4800F0FAFB0B4800F0E3
:1056D000F7FB0B4800F0F4FB0A4800F0F1FB0A4826
:1056E00000F0EEFB044809490860044808490860D6
:1056F00010BD000040010020CC010020E00100208E
:10570000F4010020080200201C02002020000020DC
:105710002400002010B50146164800E00068036828
:105720008B42FBD30246436813448B4204D1436847
:105730004C682344436001460A464B68134404689E
:10574000A34211D10C4C03682468A34208D04B68D3
:105750000468646823444B6003681B680B6005E0C1
:10576000054B1B680B6001E003680B60884200D0AA
:10577000016010BD540000205C0000202DE9F041C4
:1057800004460D4616461F464FF00008656024612A
:10579000B5420CD8F01BA169884202D34FF0010832
:1057A00011E0211D0948006800F09AFB0BE0BE42A1
:1057B00004D2BD4202D34FF0010804E0211D044889
:1057C000006800F08DFB4046BDE8F081100000202D
:1057D0000C00002070B5054600F0A8FBA86B08B9C6
:1057E000012400E0002400F0CBFB204670BD70B522
:1057F000054600F09BFBA86BE96B884201D10124B0
:1058000000E0002400F0BCFB204670BDF8B5054662
:105810000F4616480068C068C468201D00F03CFBB5
:10582000E06901281ED1A06941192B463A4620465D
:10583000FFF7A4FF012815D1002003462A460146A0
:105840000090204601F07CFD064656B900BF50206E
:1058500080F31188BFF34F8FBFF36F8F00BF00BF7E
:10586000FEE700BF2046616A8847F8BD0C000020B3
:1058700070B586B06BE00398002868DB059C606912
:1058800008B9012000E0002010B9201D00F004FB41
:1058900002A800F0BDF8054603980A2855D2DFE8B3
:1058A00000F00905073234500608333500BF00BF49
:1058B00000BF00BF0498A269811803462A4620460B
:1058C000FFF75CFF01281DD12046616A8847E06927
:1058D000012817D1002000900498A16942180023E4
:1058E0001946204601F02CFD064656B900BF50204F
:1058F00080F31188BFF34F8FBFF36F8F00BF00BFDE
:10590000FEE700BF22E000BF20E000BF0498A061D6
:10591000A06908B1012000E0002050B900BF50206C
:1059200080F31188BFF34F8FBFF36F8F00BF00BFAD
:10593000FEE7A06941192B462A462046FFF71EFFC5
:1059400004E0204600F03AFB00E000BF00BF002367
:105950001A4603A90348006800F06EFF00288AD1A8
:1059600006B070BD14000020F8B505460C4600F0E6
:1059700073FD684600F04CF80646009820BB44B919
:10598000B54206D801F02EFC31462846FFF73EFF0F
:105990001CE03CB10E480068006808B9012000E036
:1059A00000200446A91B22460A48006800F0B2FB0A
:1059B00001F018FC50B94FF0805007490860BFF360
:1059C0004F8FBFF36F8F01E001F00CFCF8BD0000BA
:1059D000100000201400002004ED00E00A490968CE
:1059E000096809B9012100E0002121B14FF0FF3120
:1059F000064A116006E004490968C968C868034A94
:105A00004168116070470000200000204C00002019
:105A100070B5044601F08AFA0546074800688542D9
:105A200004D200F00BF80120206001E0002020608B
:105A300001480560284670BD180000202DE9F84394
:105A400032E024480068C068056822480068C068E1
:105A5000C468201D00F020FA2046616A8847E0698A
:105A6000012821D1A0694619AE4207D96660246198
:105A7000211D1848006800F033FA15E000200346A5
:105A80002A4601460090204601F05AFC074657B9C5
:105A900000BF502080F31188BFF34F8FBFF36F8F8B
:105AA00000BF00BFFEE700BF0A480068006808B9F1
:105AB000012000E000200028C3D00648D0F8008074
:105AC00005480068034908600348C0F80080BDE845
:105AD000F88300000C000020100000200E48006831
