:020000040800F2
:10000000102A0020790200088102000883020008FB
:10001000850200088702000889020008000000002D
:100020000000000000000000000000009D0100082A
:100030008D02000800000000F1010008793300087B
:10004000930200089302000893020008930200083C
:10005000930200089302000893020008930200082C
:10006000930200089302000893020008930200081C
:10007000930200089302000893020008930200080C
:100080009302000893020008DD03000893020008B1
:1000900093020008930200089302000893020008EC
:1000A000930200089D3400089302000893020008A0
:1000B00093020008930200089302000893020008CC
:1000C00093020008930200089302000849330008D5
:1000D0009302000893020008B13D00089302000853
:1000E00093020008B532000893020008930200084A
:1000F000930200089302000893020008930200088C
:10010000930200089302000893020008930200087B
:10011000930200086D35000893020008930200085E
:10012000930200089302000893020008930200085B
:10013000930200089302000893020008930200084B
:10014000930200089302000893020008930200083B
:10015000930200089302000893020008930200082B
:10016000930200089302000893020008930200081B
:1001700093020008930200089302000800000000A8
:100180009302000893020008DFF80CD000F014F985
:1001900000480047BD430008102A00202B4B196877
:1001A000086800F058B880F30988BFF36F8F4FF0EC
:1001B000000080F3118870470000000006480068C6
:1001C000006880F3088862B661B6BFF34F8FBFF353
:1001D0006F8F00DF00BF00BF08ED00E0DFF80C000C
:1001E000016841F470010160704700BF88ED00E0D4
:1001F000EFF30980BFF36F8F144B1A681EF0100FD6
:1002000008BF20ED108A20E9F04F106008B44FF0CD
:10021000500080F31188BFF34F8FBFF36F8F05F04D
:10022000C5FA4FF0000080F3118808BC196808680F
:1002300000F016B81EF0100F08BF00F016B880F3DB
:100240000988BFF36F8F704700BF00BF1C000020FC
:10025000EFF30580704730C8B0E8C04FFFF7A3BF89
:1002600030C8B0E8C04FFFF7E5BFB0EC088AB0EC8B
:1002700008CAFFF7E4BF0000064880470648004769
:10028000FEE7FEE7FEE7FEE7FEE7FEE7FEE7FEE746
:10029000FEE7FEE74D340008890100082DE9F05F14
:1002A0000546002092469B468846064681464024E5
:1002B0001BE0284641464746224600F06CF853466C
:1002C0005A46C01A914110D311461846224600F0F2
:1002D00053F82D1A67EB01084F46224601200021F2
:1002E00000F04AF817EB00094E41201EA4F101046A
:1002F000DFDC484631462A46434600F000B830BCB1
:10030000BDE8C09F40EA01039B0703D009E008C98C
:10031000121F08C0042AFAD203E011F8013B00F8CA
:10032000013B521EF9D27047D2B201E000F8012B16
:10033000491EFBD270470022F6E710B513460A4665
:1003400004461946FFF7F0FF204610BD30B50B46B6
:10035000014600202022012409E021FA02F59D42F5
:1003600005D303FA02F5491B04FA02F52844151EC9
:10037000A2F10102F1DC30BD202A04DB203A00FAB0
:1003800002F1002070479140C2F1200320FA03F3EC
:10039000194390407047202A04DB203A21FA02F0EA
:1003A0000021704721FA02F3D040C2F120029140AF
:1003B0000843194670470000064C074D06E0E06808
:1003C00040F0010394E8070098471034AC42F6D39C
:1003D000FFF7DEFE446700086467000810B50348B5
:1003E00000F012F8024800F00FF810BD982100202C
:1003F0000022002000BFFEE770477047704770473B
:1004000070477047704700002DE9F04704464FF0F1
:1004100000092068056820684668C846C24605F09D
:100420000200022811D106F0020002280DD1A06DB1
:1004300000F0100018B9A06D40F40060A0652046DF
:10044000FFF7DAFF02202168086005F004000428A5
:1004500003D106F00400042807D005F0080008289E
:1004600073D106F0080008286FD1A06D00F01000CD
:1004700018B9A06D40F40070A0652068C06800F451
:10048000406000285BD1E0492068884203D0DF4902
:100490002068884201D1012013E0DD48006800F0A7
:1004A0001F0058B1DA48006800F01F00052805D089
:1004B000D748006800F01F00092801D1012000E0A2
:1004C000002018B12068D0F80C800DE0CE492068DB
:1004D000884203D0CD492068884201D1206800E0DD
:1004E000C9480746D7F80C8008F40050B0F5005F03
:1004F00025D02068006800F0080008281FD1206877
:100500008068C0F3800090B92068406820F00C003B
:1005100021684860A06D20F48070A065A06D00F493
:10052000805018B9A06D40F00100A06507E0A06DF3
:1005300040F01000A065E06D40F00100E06520464D
:10054000FFF75FFF0C202168086005F020002028DD
:1005500003D106F02000202807D005F040004028F5
:100560006FD106F040004028FAD1A06D00F01000D5
:1005700018B9A06D40F40050A0652068006800F034
:10058000400040287ED1A0492068884203D09F497E
:100590002068884201D1012013E09D48006800F0E6
:1005A0001F0058B19A48006800F01F00062805D0C7
:1005B0009748006800F01F00072801D1012000E0E3
:1005C000002018B12068D0F80CA00DE08E492068FA
:1005D000884203D08D492068884201D1206800E01C
:1005E00089480746D7F80CA087492068884203D07D
:1005F00086492068884201D1012013E084480068C0
:1006000000F01F0058B18248006800F01F00052864
:1006100005D07F48006800F01F00092801D10120A3
:1006200000E0002018B12068D0F80C800EE0764978
:100630002068884203D075492068884202D120682A
:1006400001E040E070480746D7F80C802068C06C95
:1006500000F0C000B0B90AF40010B0F5001F2CD0B3
:100660006C4808EA00006B49884204D12068C068E1
:1006700000F4406030B120688068C0F3C000A0B9C9
:10068000206800E019E0406820F0600021684860C0
:10069000A06D20F48050A065A06D00F4807060B95A
:1006A000A06D40F00100A06507E0A06D40F01000D3
:1006B000A065E06D40F00100E0652046FFF79DFE7B
:1006C00060202168086005F0800080280DD106F0C8
:1006D0008000802809D1A06D40F48030A0652046BC
:1006E00000F09CF880202168086005F48070B0F567
:1006F000807F0FD106F48070B0F5807F0AD1A06DA5
:1007000040F40030A0652046FFF779FE4FF480707A
:100710002168086005F40070B0F5007F0FD106F481
:100720000070B0F5007F0AD1A06D40F48020A06574
:100730002046FFF765FE4FF400702168086005F061
:100740001000102844D106F01000102840D1A06BF2
:1007500010B94FF001092AE02B492068884203D0E4
:100760002D492068884208D12948006800F01F0000
:1007700008B1012002E0002000E0002038B9206824
:10078000C06800F0010090B14FF001090FE020486F
:10079000006800F44040B0F5004F06D01C480068E7
:1007A00000F44040B0F5404F01D14FF00109B9F1DC
:1007B000010F0AD1A06D40F48060A065E06D40F0AB
:1007C0000200E0652046FFF71DFE1020216808604A
:1007D00005F48060B0F5806F13D106F48060B0F549
:1007E000806F0ED1A06D40F48040A065E06D40F0B8
:1007F0000800E0654FF48060216808602046FFF73C
:10080000FDFDBDE8F0870000000004500002045028
:10081000080304500020000200010450704770B526
:100820000446002594F82500022803D00420E06344
:1008300001251EE02068006820F00E002168086095
:100840002068006820F001002168086094F84410D6
:1008500001208840216C4860012084F8250000BFF9
:10086000002084F8240000BFA06B10B12046A16BCB
:100870008847284670BD000078B503460022002452
:100880000020E5E0012696400D6805EA0604002CEC
:100890007DD04D68022D02D04D68122D13D1D6089F
:1008A00003F1200555F826005507EE0E0F25B5403B
:1008B000A8435607F60E0D69B5402843D60803F144
:1008C000200545F82600186856000325B540A843C2
:1008D0000D7905F003055600B540284318604D68B2
:1008E000012D08D04D68022D05D04D68112D02D084
:1008F0004D68122D13D1986856000325B540A843C2
:100900005600CD68B5402843986058680125954049
:10091000A8430D79C5F300159540284358600D791B
:1009200005F00305032D09D1D86A01259540A84398
:100930000D79C5F3C00595402843D862D8685600A4
:100940000325B540A84356008D68B5402843D860BC
:100950004D6805F08055B5F1805F78D100BF3F4DFF
:100960002D6E45F001053D4E356635462D6E05F080
:100970000105009500BF00BF4FEAB635960855F84F
:10098000260095072E0F0F25B540A84300E05EE036
:10099000B3F1904F01D100251EE0314DAB4201D1A2
:1009A000012519E02F4DAB4201D1022514E02E4D57
:1009B000AB4201D103250FE02C4DAB4201D1042500
:1009C0000AE02B4DAB4201D1052505E0294DAB4294
:1009D00001D1062500E007259607360FB5402843CC
:1009E000254D960845F82600244D2868A0434D68FB
:1009F00005F48035B5F5803F00D120431F4D2860B8
:100A00002D1D2868A0434D6805F40035B5F5003F5D
:100A100000D12043194D2D1D28602D1D2868A043AD
:100A20004D6805F48015B5F5801F00D12043134DA6
:100A3000083528602D1D2868A0434D6805F4001571
:100A4000B5F5001F00D120430C4D0C352860521C19
:100A50000D68D540002D7FF415AF78BD0010024021
:100A60000004004800080048000C0048001000483E
:100A7000001400480018004808000140000401402C
:100A80000AB1816100E0816270470000014800689E
:100A9000704700006C00002002480068401C0149BB
:100AA000086070476C00002010B50848006840F4EA
:100AB000807006490860032000F0E4F8002000F090
:100AC00007F800F049F8002010BD000000200240A7
:100AD00070B588B004460025002600222146192062
:100AE00000F08FF8192000F07FF800BF1648006E64
:100AF00040F40060144908660846006E00F4006087
:100B0000019000BF00BF02A903A800F07BFC00F029
:100B1000B7FC05460D48B5FBF0F0461E0C480D49E4
:100B2000086040F2E7310B48C16046600021016176
:100B3000816001F0E7FC20B9064801F03BFD08B0F8
:100B400070BD0120FBE700000010024040420F0092
:100B5000002C01405C21002008B500BF2148006E38
:100B600040F001001F4908660846006E00F00100D1
:100B7000009000BF00BF00BF0846806D40F080506D
:100B800088650846806D00F08050009000BF00BF6F
:100B9000032000F077F8002211466FF00B0000F000
:100BA00030F8002211466FF00A0000F02AF8002207
:100BB00011466FF0090000F024F800221146501F82
:100BC00000F01FF800221146101F00F01AF8002252
:100BD0000F21901E00F015F800220F21501E00F08A
:100BE00010F808BD0010024000BF00F01F020121F4
:100BF00091404209920002F1E022C2F8001100BFC8
:100C000070472DE9F05F80460D461646002702F03A
:100C100019F9074639462A46334601F00700C0F164
:100C2000070ABAF1040F02D94FF0040A01E0C0F13B
:100C3000070AD14600F1040ABAF1070F02D24FF0B9
:100C4000000A01E0A0F1030AD4464FF0010A0AFAB3
:100C500009FAAAF1010A0AEA020A0AFA0CFA4FF0A2
:100C6000010B0BFA0CFBABF1010B0BEA030B4AEA8D
:100C70000B042146404602F0EDF800F000B830BC0D
:100C8000BDE8C09F00BF00F00702064B19684FF691
:100C9000FF031940044B0B4343EA0221014B196047
:100CA00000BF70470CED00E00000FA05024600218D
:100CB000B2F5007F29D11D48006800F4C060B0F58E
:100CC000007F31D01948006820F4C06040F4007003
:100CD000164B186016480068164BB0FBF3F0322331
:100CE00000FB03F100E0491E31B11048406900F4F7
:100CF0008060B0F5806FF6D00C48406900F48060E9
:100D0000B0F5806F10D1032070470848006800F4E8
:100D1000C060B0F5806F07D00448006820F4C06060
:100D200040F48060014B18600020EDE70070004047
:100D30007000002040420F000248006800F4C060CC
:100D400070470000007000402DE9F843044600267B
:100D500000270025A846208800F40060B0F5006F49
:100D600030D1606E80B1B0F5800F13D0B0F5000FB8
:100D700003D0B0F5400F15D113E0FA48C06840F435
:100D80008030F849C8600FE00021201D02F076F89D
:100D9000054609E0002104F1200002F065F905464E
:100DA00002E001E0012500BF00BF55B9ED488830E1
:100DB000006820F44000616E0843EA49C1F88800E9
:100DC00000E0A846208800F48050B0F5805F30D164
:100DD000A06E80B1B0F1807F13D0B0F1007F03D05E
:100DE000B0F1407F15D113E0DE48C06840F4803098
:100DF000DC49C8600FE00021201D02F03FF80546E5
:100E000009E0002104F1200002F02EF9054602E07D
:100E100001E0012500BF00BF55B9D2488830006805
:100E200020F04070A16E0843CE49C1F8880000E070
:100E3000A846206800F40030B0F5003F76D14FF0AE
:100E40000009C848806D00F0805078B900BFC548DF
:100E5000806D40F08050C34988650846806D00F081
:100E60008050009000BF00BF4FF00109BE480068ED
:100E700040F48070BC490860FFF708FE074606E0B2
:100E8000FFF704FEC01B022801D9032505E0B64880
:100E9000006800F480700028F2D000BF85BBB14824
:100EA0009030006800F44076D6B1D4F88400B042A7
:100EB00016D0AC489030006820F44076A948D0F8AD
:100EC000900040F48030A749C1F890000846D0F85F
:100ED000900020F48030C1F890000846C0F890607F
:100EE00006F00100A8B1FFF7D1FD074609E0FFF7C2
:100EF000CDFDC01B41F28831884202D9032507E0AD
:100F000017E098489030006800F002000028EED00A
:100F100000BF65B993489030006820F44070D4F861
:100F2000841008438F49C1F8900003E00CE0A84604
:100F300000E0A846B9F1010F05D18A48806D20F084
:100F400080508849886500BF207800F0010048B1D2
:100F500084488830006820F00300A16B0843814971
:100F6000C1F88800207800F00200022809D17D48ED
:100F70008830006820F00C00E16B08437949C1F823
:100F80008800207800F00400042809D175488830D2
:100F9000006820F03000216C08437249C1F88800D5
:100FA000207800F00800082809D16E4888300068D1
:100FB00020F0C000616C08436A49C1F888002078BD
:100FC00000F01000102809D166488830006820F42D
:100FD0004070A16C08436349C1F88800207800F094
:100FE0002000202809D15F488830006820F4406044
:100FF000E16C08435B49C1F88800208800F4007068
:10100000B0F5007F09D157488830006820F44020AF
:10101000E16D08435349C1F88800208800F48060DE
:10102000B0F5806F09D14F488830006820F4401037
:10103000216E08434B49C1F88800207800F0400039
:10104000402809D147488830006820F44050216D7D
:1010500008434449C1F88800207800F080008028C7
:1010600009D140488830006820F44040616D084351
:101070003C49C1F88800208800F48070B0F5807F7A
:1010800009D138488830006820F44030A16D084309
:101090003449C1F88800208800F40050B0F5005FA2
:1010A0001FD130488830006820F04060E16E08436E
:1010B0002C4988310860E06EB0F1006F06D12948F4
:1010C000C06840F480102749C8600AE0E06EB0F1C3
:1010D000806F06D10121201D01F0D0FE054605B12B
:1010E000A846206800F40020B0F5002F1FD11D484D
:1010F0008830006820F04060216F0843194988312A
:101100000860206FB0F1006F06D11648C06840F447
:1011100080101449C8600AE0206FB0F1806F06D1DA
:101120000121201D01F0AAFE054605B1A846206850
:1011300000F48020B0F5802F23D10A488830006861
:1011400020F04060616F0843064988310860606F95
:10115000B0F1006F0AD10348C06840F48010014923
:10116000C8600EE00010024000700040606FB0F1F7
:10117000806F06D10121201D01F080FE054605B1DA
:10118000A846208800F48040B0F5804F1FD1224847
:10119000006820F04050A16F08431F490860A06F0D
:1011A000B0F1805F07D10221201D01F067FE0546E6
:1011B0006DB1A8460BE0A06FB0F1005F07D102212E
:1011C00004F1200001F050FF054605B1A846208833
:1011D00000F40040B0F5004F09D10F48006820F03E
:1011E0008040E16F08430C498839C1F888002068C5
:1011F00000F48030B0F5803F0AD10748006820F045
:101200000040D4F88010084303498839C1F88800A9
:101210004046BDE8F88300008810024070B50446DF
:101220000D4600267348006800F00700A8420ED261
:101230007048006820F0070028436E49086008469F
:10124000006800F00700A84201D0012070BD20789E
:1012500000F00200022807D16748806820F0F00003
:10126000A168084364498860207800F001000028E4
:1012700079D06068022806D15F48006800F4003029
:10128000D8B90120E2E76068032806D15A4800680F
:1012900000F0007088B90120D8E7606830B956487E
:1012A000006800F0020040B90120CFE75248006812
:1012B00000F4806008B90120C8E74F48806820F03A
:1012C0000300616808434C498860FFF7DFFB06466E
:1012D0006068022810D108E0FFF7D8FB801B41F2BC
:1012E0008831884201D90320B0E74348806800F084
:1012F0000C000828F0D136E06068032810D108E01F
:10130000FFF7C4FB801B41F28831884201D90320DA
:101310009CE73948806800F00C000C28F0D122E0EE
:10132000606880B908E0FFF7B1FB801B41F28831AB
:10133000884201D9032089E72F48806800F00C001B
:101340000028F0D10FE008E0FFF7A0FB801B41F27E
:101350008831884201D9032078E72748806800F067
:101360000C000428F0D12348006800F00700A842D0
:101370000ED92048006820F0070028431D49086066
:101380000846006800F00700A84201D001205DE790
:10139000207800F00400042807D11748806820F462
:1013A000E060E168084314498860207800F0080094
:1013B000082808D11048806820F46050216940EA6C
:1013C000C1000D49886000F071F80B49896801F08F
:1013D000F001F02292FAA2F2B2FA82F2D140074A68
:1013E000515CC840064908600020FFF771FB0020EF
:1013F0002CE700000020024000100240DC660008DC
:10140000700000200F2202600D4A926802F0030271
:1014100042600B4A926802F0F0028260084A9268C9
:1014200002F4E062C260064A926802F46052D20896
:101430000261044A126802F007020A607047000065
:101440000010024000200240014800687047000080
:101450007000002000B5FFF7F7FF0749896801F425
:10146000E0614FF4E06292FAA2F2B2FA82F2D14065
:10147000024A515CC84000BD00100240EC66000802
:1014800000B5FFF7E1FF0749896801F460514FF4A7
:10149000605292FAA2F2B2FA82F2D140024A515C50
:1014A000C84000BD00100240EC660008F0B5002105
:1014B00000230024022502220020554EB66806F0C3
:1014C0000C065EB1524EB66806F00C060C2E2DD1FD
:1014D0004F4EF66806F00306012E27D14C4E3668B3
:1014E00006F008066EB94A4E9436366806F4706601
:1014F0004FF4706797FAA7F7B7FA87F726FA07F15C
:101500000AE0434E366806F0F006F02797FAA7F790
:10151000B7FA87F726FA07F13E4E56F821103C4EEF
:10152000B66806F00C0686B908460EE0384EB66876
:1015300006F00C06042E01D1374806E0344EB6689A
:1015400006F00C06082E00D13448314EB66806F07D
:101550000C060C2E5BD12E4EF66806F003042C4EC2
:10156000F66806F07006702797FAA7F7B7FA87F7BC
:10157000FE40721C012C29D0022C02D0032C24D155
:1015800011E0254EB6FBF2F6214FFF6807F4FE4747
:101590004FF4FE4C9CFAACFCBCFA8CFC27FA0CF71E
:1015A00006FB07F323E01D4EB6FBF2F6184FFF686B
:1015B00007F4FE474FF4FE4C9CFAACFCBCFA8CFCE2
:1015C00027FA0CF706FB07F311E000BFB1FBF2F6B8
:1015D0000F4FFF6807F4FE474FF4FE4C9CFAACFC3B
:1015E000BCFA8CFC27FA0CF706FB07F300BF00BF20
:1015F000074EF66806F0C0664FF0C06797FAA7F787
:10160000B7FA87F7FE40761C7500B3FBF5F0F0BD26
:1016100000100240F46600080024F40000127A0072
:10162000F8B504460025207800F01000102874D189
:10163000FE48806800F00C00002870D1FB4800686C
:1016400000F0020018B1A06908B90120F8BDF74800
:10165000216A006800F0080020B1F448006800F03A
:10166000F00005E0F1489430006800F47060000973
:1016700081421FD9206A01F0CDFD08B10120E5E7C4
:1016800000BFEA48006840F00800E84908600846E2
:10169000006820F0F000216A0843E449086000BFB8
:1016A0000846406820F47F40E16940EA0120DF49B4
:1016B00048601EE000BFDD48006840F00800DB49DC
:1016C00008600846006820F0F000216A0843D74906
:1016D000086000BF0846406820F47F40E16940EAA6
:1016E0000120D2494860206A01F094FD08B1012030
:1016F000ACE7FFF7DBFECD49896801F0F001F0228D
:1017000092FAA2F2B2FA82F2D140C94A515CC840C0
:10171000C84908600020FFF7DBF94BE0FFE7A0694C
:1017200080B3C248006840F00100C0490860FFF77C
:10173000ADF9054606E0FFF7A9F9401B022801D9DB
:10174000032083E7B948006800F002000028F2D0C7
:1017500000BFB648006840F00800B4490860084679
:10176000006820F0F000216A0843B049086000BF1B
:101770000846406820F47F40E16940EA0120AB4917
:10178000486017E0FFE7A948006820F00100A7497A
:101790000860FFF77BF9054606E0FFF777F9401B85
:1017A000022801D9032051E7A048006800F0020098
:1017B0000028F2D1207800F00100002868D09B4872
:1017C000806800F00C0008280BD09848806800F072
:1017D0000C000C280ED19548C06800F003000328C7
:1017E00008D19248006800F4003088B3606878BB84
:1017F00001202BE700BF6068B0F5803F06D18B4821
:10180000006840F48030894908601AE06068B0F5EB
:10181000A02F0BD18548006840F4802083490860E0
:101820000846006840F4803008600AE07F4800689D
:1018300020F480307D4908600846006820F480204C
:10184000086000BF606890B1FFF720F9054607E027
:101850001EE0FFF71BF9401B642801D90320F5E6C1
:101860007248006800F400300028F2D010E0FFF762
:101870000DF9054606E0FFF709F9401B642801D978
:101880000320E3E66948006800F400300028F2D144
:10189000207800F0020002286AD16448806800F0D5
:1018A0000C0004280BD06148806800F00C000C2864
:1018B0001ED15E48C06800F00300022818D15B48C2
:1018C000006800F4806018B1E06808B90120BDE646
:1018D0005648406820F0F8504FF0F85292FAA2F2C1
:1018E000B2FA82F2216991400843504948603FE0D2
:1018F000E06830B34D48006840F480704B490860A0
:10190000FFF7C4F8054606E0FFF7C0F8401B0228C1
:1019100001D903209AE64548006800F48060002859
:10192000F2D04248406820F0F8504FF0F85292FA56
:10193000A2F2B2FA82F22169914008433B49486021
:1019400016E03A48006820F4807038490860FFF7D4
:101950009DF8054606E0FFF799F8401B022801D9DB
:10196000032073E63148006800F480600028F2D15B
:10197000207800F00800082836D16069D0B12B48E3
:101980009430006840F001002849C1F89400FFF746
:101990007DF8054606E0FFF779F8401B022801D9DB
:1019A000032053E621489430006800F0020000282C
:1019B000F1D019E01D489430006820F001001B4967
:1019C000C1F89400FFF762F8054606E0FFF75EF8FD
:1019D000401B022801D9032038E6144894300068DF
:1019E00000F002000028F1D1207800F00400042863
:1019F0006FD100260D48806D00F0805070B900BF97
:101A00000A48806D40F08050084988650846806D1E
:101A100000F08050009000BF00BF0126064800681B
:101A200000F48070F8B90448006807E00010024034
:101A3000DC660008700000200070004040F48070F8
:101A400087490860FFF722F8054606E0FFF71EF811
:101A5000401B022801D90320F8E58148006800F402
:101A600080700028F2D000BFA068012808D17D480E
:101A7000006840F001007B499039C1F8900021E0F6
:101A8000A06805280FD17748006840F00400754928
:101A90009039C1F890000846D0F8900040F001005D
:101AA000C1F890000EE06F48006820F001006D4919
:101AB0009039C1F890000846D0F8900020F004005A
:101AC000C1F8900000BFA068A0B1FEF7DFFF054697
:101AD00009E02DE0FEF7DAFF401B41F28831884231
:101AE00001D90320B2E55F48006800F00200002839
:101AF000F0D012E0FEF7CAFF054608E0FEF7C6FF89
:101B0000401B41F28831884201D903209EE55548A7
:101B1000006800F002000028F0D1012E07D15148E2
:101B20009038806D20F080504E499039886500BF14
:101B3000A06AE8B34B489038806800F00C000C288D
:101B400079D0A06A022853D146489038006820F026
:101B50008070444990390860FEF798FF054606E01A
:101B6000FEF794FF401B022801D903206EE53D4893
:101B70009038006800F000700028F1D1206B401E02
:101B80000101606B41EA0021A06B000941EA40407D
:101B9000E16A0843A18F0122C2EB510140EA4151A1
:101BA0004020005DC2EB500041EA40602D4900E05A
:101BB00053E09039C8600846006840F080700860C3
:101BC0000846C06840F08070C860FEF75FFF0546B9
:101BD00006E0FEF75BFF401B022801D9032035E534
:101BE00020489038006800F000700028F1D034E000
:101BF0001C489038006820F080701A4990390860BD
:101C00000846006800F0006048B90846006800F027
:101C1000005020B90846C06820F00300C860114891
:101C20009038C068104908400E499039C860FEF7E6
:101C30002DFF054607E00EE0FEF728FF401B0228B7
:101C400001D9032002E507489038006800F00070D1
:101C50000028F1D101E00120F8E40020F6E40000C2
:101C60000070004090100240FFFFEEFE704770478A
:101C700010B5044620688068C0F3003078B1206851
:101C8000C068C0F3002050B12046FFF7F0FF206885
:101C9000C06800F0800060F4C0702168C8602068EF
:101CA0008068C0F3403078B12068C068C0F340203D
:101CB00050B12046FFF7DAFF2068C06800F08000CE
:101CC00060F420702168C8604FF4802002490860E9
:101CD000012084F8210010BD1404014070B50546B0
:101CE0000B4616460024286840680E4900EA0104A5
:101CF000200CD870C4F30420587004F03F00987092
:101D0000C4F3423018705EB9D87801F0E5FAD870A3
:101D1000587801F0E1FA5870987801F0DDFA98707F
:101D2000002070BD3FFFFF0070B504460B4616460D
:101D300000252068806A586020680069C0F30E00A2
:101D40009860206800680F4900EA0105C5F3054066
:101D50001870C5F30620587005F07F00987005F4E0
:101D60008000000CD8705EB9187801F0B5FA1870D0
:101D7000587801F0B1FA5870987801F0ADFA98707F
:101D8000002070BD7F7F7F0010B504460CB9012094
:101D900010BD94F8210028B9002084F820002046C6
:101DA00000F054F8022084F8210000BFCA20216806
:101DB000486253202168486200BF204601F0A4FA1F
:101DC00048B100BFFF202168486200BF042084F8AA
:101DD00021000120DCE7206880681B490840216859
:101DE0008860216960680843A1690843216889689F
:101DF0000843216888602168E068086120680169FB
:101E0000208941EA0040216808612068C06820F00C
:101E100080002168C8602068C06C20F00300216841
:101E2000C8646169E06908432168C96C0843216896
:101E3000C86400BFFF202168486200BF012084F809
:101E400021000020A4E70000BFFF8FFF10B504466B
:101E50000A49206888420FD10948006840F40040D0
:101E600007499039C1F89000002205212920FEF78A
:101E7000C8FE2920FEF7B8FE10BD00000028004073
:101E8000901002402DE9F04704460D461646002703
:101E9000B846B94600BF94F82000012802D10220BC
:101EA000BDE8F087012084F8200000BF022084F8FC
:101EB000210046BB2068806800F0400000B102E0CD
:101EC0000020E87000BFE86900B900E000BF287892
:101ED00001F00DFA0304687801F009FA43EA0023DF
:101EE000A87801F004FA0343E87843EA004395F840
:101EF000200001F0FCF943EA0060E96908436969E0
:101F000040EA01082DE02068806800F0400020B120
:101F1000287801F0E1F9804602E00020E87000BF77
:101F2000E86928B995F8200001F0D6F9804605E067
:101F300095F8200001F0D0F9804600BF2878000411
:101F4000697840EA0120A9780843E97840EA01402D
:101F500095F8201040EA0160E9690843696940EAA0
:101F60000108A969686840EA010900BFCA20216820
:101F7000486253202168486200BF686AB0F5807FDC
:101F80003FD12068806820F48070216888602068D4
:101F9000C06800F0800060F4C0702168C860FEF77F
:101FA00075FD074614E0FEF771FDC01BB0F57A7FA2
:101FB0000ED900BFFF202168486200BF032084F8CB
:101FC000210000BF002084F8200000BF032067E745
:101FD0002068C06800F001000028E4D02068C0F844
:101FE0001C802068C0F844902068806840F48070AD
:101FF000216888602068806840F48050216888608B
:102000003EE02068806820F40070216888602068C5
:10201000C06800F0800060F420702168C860FEF79E
:1020200035FD074614E0FEF731FDC01BB0F57A7FA1
:102030000ED900BFFF202168486200BF032084F84A
:10204000210000BF002084F8200000BF032027E704
:102050002068C068C0F340000028E4D02068C0F8C1
:1020600020802068C0F848902068806840F40070A4
:10207000216888602068806840F40050216888608A
:102080000E48006840F480200C4908600B48083076
:10209000006840F4802009490831086000BFFF2033
:1020A0002168486200BF012084F8210000BF0020A1
:1020B00084F8200000BF00BFF2E6000000040140E9
:1020C0002DE9F04104460D461646002700BF94F85E
:1020D0002000012802D10220BDE8F081012084F80F
:1020E000200000BF022084F821004EB9687800F07B
:1020F0001000102804D1687800F0EF000A306870F2
:1021000086B9E87801F0F3F80304687801F0EFF895
:1021100043EA0023A87801F0EAF80343287843EA69
:10212000403711E0687801F0D7F80746A87801F049
:10213000D3F80746E8780004697840EA0120A978D6
:102140000843297840EA413700BFCA202168486225
:1021500053202168486200BF204601F0D5F870B1D5
:1021600000BFFF202168486200BF042084F82100DE
:1021700000BF002084F8200000BF0120ACE7184811
:102180003840216848602068C06820F080002168DD
:10219000C8602068806800F0200090B9204600F0F8
:1021A000C5F870B100BFFF202168486200BF04205D
:1021B00084F8210000BF002084F8200000BF012027
:1021C0008AE700BFFF202168486200BF012084F831
:1021D000210000BF002084F8200000BF00BF7BE783
:1021E0003FFFFF002DE9F04104460D46164600274B
:1021F00000BF94F82000012802D10220BDE8F08140
:10220000012084F8200000BF022084F82100CEB90C
:102210002068806800F0400000B102E00020E87013
:1022200000BF287801F063F80304687801F05FF8D4
:1022300043EA0023A87801F05AF80343E87843EA18
:10224000004716E02068806800F0400020B1287840
:1022500001F042F8074602E00020E87000BF28784D
:102260000004697840EA0120A9780843E97840EA47
:10227000014700BFCA202168486253202168486294
:1022800000BF204601F040F870B100BFFF20216878
:10229000486200BF042084F8210000BF002084F8B9
:1022A000200000BF0120A9E71F48384021680860CE
:1022B0002068806820F4802021688860D5E90301C7
:1022C0000843216889680843216888602068C068DD
:1022D00020F080002168C8602068806800F020003D
:1022E00090B9204600F022F870B100BFFF202168AD
:1022F000486200BF042084F8210000BF002084F859
:10230000200000BF012079E700BFFF20216848625C
:1023100000BF012084F8210000BF002084F82000C5
:1023200000BF00BF6AE700007F7F7F0070B50446F2
:1023300000252068C06820F0A0002168C860FEF772
:10234000A5FB054607E0FEF7A1FB401BB0F57A7F31
:1023500001D9032070BD2068C06800F0200000286B
:10236000F1D00020F6E77047F8B5044620684668CB
:102370002068856805F0400048B905F0010030B1DB
:1023800006F0400018B12046E16C8847F8BD05F022
:10239000020030B106F0800018B12046216D884758
:1023A000F4E705F4B070002877D006F0200000288C
:1023B00073D005F04000F0B194F85D0003280ED012
:1023C000206E40F00400206600BF002000902068CE
:1023D000C068009020688068009000BF0BE000BFDC
:1023E000002000902068C0680090206880680090FD
:1023F00000BF00BFCAE705F0200088B1206E40F0A2
:102400000100206600BF00200090206880680090D6
:102410002068006820F040002168086000BF00BF0D
:1024200005F4807058B1206E40F00800206600BFAF
:102430000020009020688068009000BF00BF206EE0
:1024400028B32068406820F0E0002168486001203F
:1024500084F85D0006F00200022802D006F00100B8
:10246000B8B12068406820F0030021684860A06D82
:1024700028B10B48A16D8863A06DFEF7D0F9606D9F
:1024800028B10748616D8863606DFEF7C8F903E005
:1024900003E02046FFF767FF78E700BF76E700001C
:1024A00059330008042808D14FF0E021096941F0B0
:1024B00004014FF0E022116107E04FF0E0210969CB
:1024C00021F004014FF0E0221161704770B504461D
:1024D0002546681EB0F1807F01D301200FE0681E01
:1024E0004FF0E02148610F214FF0FF3000F0B2FCC7
:1024F00000204FF0E021886107200861002070BDB6
:102500007047704710B504460CB9012010BD94F80F
:10251000390028B9002084F83800204600F00CF873
:10252000022084F83900211D206800F0BFFF01203F
:1025300084F839000020E9E710B586B00446206829
:10254000B0F1804F0DD100BF1748806D40F0010001
:10255000154988650846806D00F00100009000BFB5
:102560001FE01249206888421BD100BF0E48806DD1
:1025700040F002000C4988650846806D00F00200BA
:10258000009000BF00BF4FF4E07001900220029065
:102590000020039004900220059001A90448FEF752
:1025A0006BF906B010BD00000010024000040040AE
:1025B0000008004801460868C06840F001000A6849
:1025C000D0600868006840F001000A6810600020D0
:1025D0007047704710B5044620680069C0F340009A
:1025E000D8B12068C068C0F34000B0B16FF00200FD
:1025F00021680861012020762068806900F00300CE
:1026000018B12046FFF7E5FF05E0204600F0ADF8E1
:10261000204600F0ABF80020207620680069C0F367
:102620008000D8B12068C068C0F38000B0B16FF0FE
:10263000040021680861022020762068806900F487
:10264000407018B12046FFF7C4FF05E0204600F0B7
:102650008CF8204600F08AF8002020762068006977
:10266000C0F3C000D8B12068C068C0F3C000B0B1EA
:102670006FF0080021680861042020762068C06996
:1026800000F0030018B12046FFF7A3FF05E0204645
:1026900000F06BF8204600F069F8002020762068F2
:1026A0000069C0F30010D8B12068C068C0F3001002
:1026B000B0B16FF010002168086108202076206812
:1026C000C06900F4407018B12046FFF782FF05E0B2
:1026D000204600F04AF8204600F048F80020207616
:1026E0002068006900F0010058B12068C06800F05F
:1026F000010030B16FF0010021680861204600F050
:1027000037F820680069C0F3C01058B12068C0686D
:10271000C0F3C01030B16FF080002168086120461E
:10272000FFF7EEFE20680069C0F3801058B1206802
:10273000C068C0F3801030B16FF0400021680861BC
:10274000204600F021F820680069C0F3401058B11D
:102750002068C068C0F3401030B16FF020002168DD
:1027600008612046FFF7CDFE10BD7047704700009E
:1027700010B5044603492068884201D1FEF78CF960
:1027800010BD0000002C01407047704770470000EA
:102790002DE9F04104462068C5692068066805F007
:1027A0000F08B8F1000F0AD105F0200038B106F08B
:1027B000200020B1204601F003F8BDE8F081206838
:1027C0008768B8F1000F7DD007F0010018B906F452
:1027D0009070002876D005F0010048B106F48070B2
:1027E00030B1012021680862E06E40F00100E0662F
:1027F00005F0020048B107F0010030B10220216865
:102800000862E06E40F00400E06605F0040048B1A4
:1028100007F0010030B1042021680862E06E40F04A
:102820000200E06605F0080060B106F0200010B973
:1028300007F0010030B1082021680862E06E40F026
:102840000800E066E06E68B305F0200028B106F0ED
:10285000200010B1204600F0B3FFE06E00F0080049
:1028600028B92068806800F04000402824D1204624
:1028700000F086FF2068806800F04000402817D1F3
:102880002068806820F0400021688860606E58B140
:102890002248616E8863606EFDF7C1FF10B1606E03
:1028A000816B88470DE00DE02046FFF76FFF08E0E1
:1028B0002046FFF76BFF04E02046FFF767FF00208C
:1028C000E0667AE72068876805F4801078B107F43D
:1028D000800060B14FF4801021680862202084F8E5
:1028E000690084F86A002046FFF74FFF65E705F0AE
:1028F000800030B106F0800018B1204601F0EDF9FB
:102900005BE705F0400030B106F0400018B120460A
:1029100000F046FF51E700BF4FE7000069370008AD
:1029200010B504460CB9012010BDA06900B100E04B
:1029300000BF94F8690028B9002084F86800204698
:1029400000F02AF8242084F869002068006820F04C
:10295000010021680860204600F078FF012800D1BE
:10296000E2E7606A10B1204600F048FE2068406847
:1029700020F49040216848602068806820F02A0098
:10298000216888602068006840F0010021680860C4
:10299000204600F0AFFEC7E710B586B004463149C7
:1029A0002068884232D100BF2F48806D40F48010EB
:1029B0002D4988650846806D00F48010009000BFA6
:1029C00000BF881401900220029001200390032090
:1029D00004900820059001A92448FDF74DFF04202C
:1029E000019002200290012003900320049008200F
:1029F000059001A91E48FDF73FFF00220521352063
:102A0000FEF7FFF83520FEF7EFF828E019492068B7
:102A1000884224D100BF1448806D40F40030124930
:102A200088650846806D00F40030009000BF00BF4C
:102A30000C200190022002900020039003200490BB
:102A40000720059001A94FF09040FDF715FF0022E7
:102A500005212620FEF7D5F82620FEF7C5F806B09A
:102A600010BD000000500040001002400008004867
:102A7000000C0048004400402DE9F84F04460D4684
:102A8000164699464FF0000A94F86A0020287AD139
:102A900005B116B9012000F078B800BF94F86800BD
:102AA000012801D10220F6E7012084F8680000BF68
:102AB0000020583460612220A074FDF7E7FF8246B1
:102AC00026806680583C00BFA068B0F5805F0AD1C0
:102AD000206920B940F2FF10A4F85C001CE0FF2040
:102AE000A4F85C0018E0A06848B9206918B9FF2074
:102AF000A4F85C0010E07F20A4F85C000CE0A06863
:102B0000B0F1805F08D1206918B97F20A4F85C007B
:102B100002E03F20A4F85C0000BFB4F85C8024E031
:102B2000B4F85A00401EA4F85A005346002220214F
:102B30002046CDF8009001F005F908B10320AAE77E
:102B4000A068B0F5805F09D1206938B92F462068A8
:102B5000808C00EA08003880AD1C06E02068808C7C
:102B600008F0FF01084005F8010BB4F85A000028EE
:102B7000D6DC202084F86A0000BF002084F86800BA
:102B800000BF88E7FFE7022085E718BCBDE8E08FBB
:102B900070472DE9F84304460D4616461F464FF090
:102BA000000994F86900202854D105B116B9012014
:102BB000BDE8F88300BF94F86800012801D1022025
:102BC000F6E7012084F8680000BF00205034E0617F
:102BD00021206076FDF75AFF814626806680503CB2
:102BE00021E0B4F85200401EA4F852004B460022E7
:102BF00080212046009701F0A5F808B10320D7E70F
:102C0000A068B0F5805F0AD1206940B9A846B8F83D
:102C10000000C0F3080021680885AD1C03E015F82A
:102C2000010B21680885B4F852000028D9DC4B4616
:102C3000002240212046009701F084F808B10320CB
:102C4000B6E7202084F8690000BF002084F86800FF
:102C500000BFADE70220ABE77047000000B587B0CA
:102C600000BF4E48C06C40F004004C49C8640846A0
:102C7000C06C00F00400019000BF00BF00BF084618
:102C8000C06C40F08000C8640846C06C00F0800052
:102C9000019000BF00BF00BF0846C06C40F00100BB
:102CA000C8640846C06C00F00100019000BF00BF7E
:102CB00000BF0846C06C40F00200C8640846C06C03
:102CC00000F00200019000BF00BF00BF0846C06CCA
:102CD00040F00800C8640846C06C00F0080001908D
:102CE00000BF00BF4FF4005002902D480390002019
:102CF000049002A92B48FDF7BFFD40F62440029046
:102D00000120039000200490059002A92548FDF7BA
:102D1000B3FD4BF24D00029001200390002004907F
:102D2000059002A92048FDF7A7FD4FF482600290AC
:102D30001E4803900020049002A91B48FDF79CFD4B
:102D40004FF400600290194803900020049002A9FB
:102D50004FF09040FDF790FD4FF48050029001201D
:102D6000039000200490059002A94FF09040FDF7D9
:102D700083FD002240F624410A48FDF781FE00222F
:102D80004BF24D010848FDF77BFE00224FF48051C5
:102D90004FF09040FDF774FE07B000BD00100240F8
:102DA0000000121000080048000400480000111044
:102DB00000B58BB0114812490860002048607F219F
:102DC0000F488160FF21C160002101614161816183
:102DD000C161FEF7D9FF08B1FDF70CFB01208DF8AA
:102DE000240040020A90012201A90548FFF74AF891
:102DF00008B1FDF7FFFA0BB000BD0000002800404D
:102E00001C23002010B50D480D4908604FF4E13037
:102E1000486000210A488160C16001610C21416164
:102E200000218161C16101620020054948620846B4
:102E3000FFF776FD08B1FDF7DDFA10BD0044004054
:102E4000C824002002480068C0F302207047000038
:102E50000CED00E010B5002807DA0A07140E054A49
:102E600000F00F031B1FD45403E00A07130E024A9D
:102E7000135410BD18ED00E000E400E02DE9F0412E
:102E800004460E46002700257348C06800F0030082
:102E9000C0B17148C06800F00300216888420FD1BA
:102EA000206868B16C48C06800F07000702191FA29
:102EB000A1F1B1FA81F1C840401C6168884238D064
:102EC000012536E02068012804D0022809D0032813
:102ED0001AD10DE06048006800F0020000B9012539
:102EE00014E05D48006800F4806000B901250DE041
:102EF0005948006800F4003028B95748006800F4C9
:102F0000802000B9012501E0012500BF00BF85B97F
:102F1000D4E90010401E702292FAA2F2B2FA82F2B4
:102F2000904008434C49C96821F0730108434A495D
:102F3000C860002D77D14848006820F0806046497D
:102F40000860FDF7A3FD074606E0FDF79FFDC01BE7
:102F5000022801D9032505E03F48006800F0006021
:102F60000028F2D100BF002D73D1CEB94FF4FE413D
:102F700091FAA1F1B1FA81F1A0688840E1680909EC
:102F80004FF4003292FAA2F2B2FA82F29140084370
:102F900031490969314A114008432F49086138E035
:102FA000012E1BD14FF4FE4191FAA1F1B1FA81F14A
:102FB000A068884001222169C2EB51014FF4C00290
:102FC00092FAA2F2B2FA82F29140084322490969C8
:102FD000234A11400843204908611AE04FF4FE419A
:102FE00091FAA1F1B1FA81F1A068884001226169EA
:102FF000C2EB51014FF0C06292FAA2F2B2FA82F231
:103000009140084314490969164A1140084312497E
:1030100008611148006840F080600F490860FDF7C2
:1030200035FD074607E014E0FDF730FDC01B022820
:1030300001D9032505E00848006800F00060002879
:10304000F2D000BF2DB904480069A16908430249C4
:1030500008612846BDE8F08100100240FF80FDFFB6
:10306000FF809FFFFF80FFF92DE9F04104460E46E7
:10307000002700256448C06800F00300C0B1624822
:10308000C06800F00300216888420FD1206868B151
:103090005D48C06800F07000702191FAA1F1B1FAAA
:1030A00081F1C840401C6168884238D0012536E073
:1030B0002068012804D0022809D003281AD10DE085
:1030C0005148006800F0020000B9012514E04E48A4
:1030D000006800F4806000B901250DE04A480068EE
:1030E00000F4003028B94848006800F4802000B996
:1030F000012501E0012500BF00BF85B9D4E900101A
:10310000401E702292FAA2F2B2FA82F29040084374
:103110003D49C96821F0730108433B49C860002D4F
:103120006FD13948006820F0805037490860FDF7BA
:10313000ADFC074606E0FDF7A9FCC01B022801D93B
:10314000032505E03048006800F000500028F2D167
:1031500000BFE5BBCEB94FF4FE4191FAA1F1B1FA3F
:1031600081F1A0688840E16809094FF4003292FAC1
:10317000A2F2B2FA82F29140084323494969234AF4
:1031800011400843204948611AE04FF4FE4191FA8A
:10319000A1F1B1FA81F1A068884001222169C2EB56
:1031A00051014FF0C06292FAA2F2B2FA82F291405B
:1031B000084315494969164A1140084312494861B4
:1031C0001148006840F080500F49086000E018E0A6
:1031D000FDF75CFC074606E0FDF758FCC01B022823
:1031E00001D9032505E00848006800F000500028D8
:1031F000F2D000BF2DB90448406961690843024913
:1032000048612846BDE8F08100100240FF80FDFFC4
:10321000FF80FFF9F8B50446002600252348806D9D
:1032200000F0805018B1FDF787FD064616E000BF9C
:103230001E48806D40F080501C4988650846806DAE
:1032400000F08050009000BF00BFFDF775FD0646FE
:103250001648806D20F0805014498865B6F5007FCF
:1032600007D1802C10D9A02C01D902250CE0012512
:103270000AE0802C01D9032506E0802C01D102252B
:1032800002E0702C00D101250948006820F00700F9
:103290002843074908600846006800F00700A84274
:1032A00001D00120F8BD0020FCE700000010024022
:1032B0000020024008B5002000900548FEF7D8FC29
:1032C00000231A4669460348006802F02DFE08BD37
:1032D0001C230020A4000020014600BF080900EBC9
:1032E0008000420001F00F001044C0B27047014658
:1032F000002203E0521CA1F10A00C1B20A29F9DA46
:10330000100741EA1060704770B504460025206838
:10331000C06800F04000A0B9681E2168C860FDF7D1
:10332000B5FB054607E0FDF7B1FB401BB0F57A7F22
:1033300001D9032070BD2068C06800F0400000285B
:10334000F1D00020F6E7000010B50248FFF70CF8B6
:1033500010BD00004023002070B50546AC6A002077
:10336000A4F84600E0872046FEF7FDFF70BD00BFD1
:10337000012001F03DF9FBE710B501F04AF910BD5D
:1033800010B5B8B0062027900120299000022A909D
:1033900010202B9002203190022127A8C162012128
:1033A00001630A214163072181630221C163016432
:1033B000FEF736F908B1FDF71DF80F202290032023
:1033C00023900020249025902690042122A8FDF728
:1033D00025FF08B1FDF70EF81B48009000200F9064
:1033E000129016904FF080501E90001521900220F0
:1033F00001900121029108210391072104910221EA
:1034000005910691C10507916846FDF79DFC08B13D
:10341000FCF7F0FF4FF40070FDF748FC08B1FCF733
:10342000E9FFFEF711F84FF47A71B0FBF1F4204692
:10343000FFF74CF80420FFF735F800220F21501E4B
:10344000FDF7DFFB38B010BD1241020010480068E4
:1034500040F470000E4908600E48006840F001001A
:103460000C49086000208860084600680A49084046
:10347000084908608814C8600846006820F4802065
:10348000086000208861C8030149803908607047DE
:1034900088ED00E000100240FFFFF6EA10B5024898
:1034A000FFF798F810BD00005C21002000220268A0
:1034B000264B98420ED0B0F1804F0BD0244B98424F
:1034C00008D0244B984205D0234B984202D0234B7E
:1034D000984203D122F070024B681A431B4B98426A
:1034E00017D0B0F1804F14D0194B984211D0194B1E
:1034F00098420ED0184B98420BD0184B984208D0E7
:10350000174B984205D0174B984202D0164B984261
:1035100003D122F44072CB681A4302608B68C36205
:103520000B688362094B98420BD00C4B984208D031
:103530000B4B984205D00B4B984202D00A4B984255
:1035400001D10B690363012343617047002C0140E3
:103550000004004000080040000C0040003401401E
:1035600000400140004401400048014038B50020BF
:10357000009001241D480068006820F020001B49CD
:103580000968086019480068808C19490870084665
:1035900000787E281ED164230222491C1348FFF7BD
:1035A0006BFA134880781249497800EB0120401CDF
:1035B00080B200906423BDF800200D49C91C0B485F
:1035C000FFF75AFA044600230A4A69460A48006887
:1035D00002F0AAFC0548FFF7DBF804480068006821
:1035E00040F0200001490968086038BD58240020D7
:1035F000A625002074000020BC00002090F82410B4
:1036000001F0010139B10168496821F40031826A91
:1036100011430268516090F8241001F00201022960
:1036200007D10168496821F48031C26A11430268F8
:10363000516090F8241001F00401042907D10168B9
:10364000496821F48021026B11430268516090F8AF
:10365000241001F00801082907D10168496821F404
:103660000041426B11430268516090F8241001F050
:103670001001102907D10168896821F48051826BFB
:1036800011430268916090F8241001F02001202974
:1036900007D10168896821F40051C26B11430268A7
:1036A000916090F8241001F04001402913D1016885
:1036B000496821F48011026C114302685160016C69
:1036C000B1F5801F07D10168496821F4C001426C3F
:1036D00011430268516090F8241001F080018029A4
:1036E00007D10168496821F40021826C1143026806
:1036F0005160704738B5044600250020E066FDF7AC
:10370000C5F905462068006800F0080008280CD1BB
:103710006FF07E402B4600224FF4001100902046AF
:1037200000F010FB08B1032038BD2068006800F0ED
:10373000040004280CD16FF07E402B4600224FF489
:1037400080010090204600F0FDFA08B10320EBE76D
:10375000202084F8690084F86A0000BF002084F803
:10376000680000BF00BFDFE770B50546AC6A002007
:10377000A4F85A00A4F852002046FFF707F870BDDD
:103780000168096821F49071026811600168896814
:1037900021F0010102689160202180F86A107047D1
:1037A00010B504462068006820F0400021680860D9
:1037B000202084F869002046FFF74EFA002010BD53
:1037C0002DE9F0410446B4F85C7094F86A002228B0
:1037D00033D12068858CA068B0F5805F09D120695D
:1037E00038B9666D05EA07003080606D801C606541
:1037F00005E0F8B22840626D511C61651070B4F8A4
:103800005A00401E80B2A4F85A00A0B9206800688F
:1038100020F49070216808602068806820F0010022
:1038200021688860202084F86A002046FFF7B0F9FC
:103830000020BDE8F0810020FBE72068008B40F00D
:103840000800216808830220F3E700002DE9F05FFB
:10385000044600251026A946AA46AB46FC49206826
:10386000884201D1012000E0002000B100E000BF4B
:103870002169A068084361690843E16940EA0105DC
:1038800020680068F34908402843216808602068E0
:10389000406820F44050E168084321684860A56909
:1038A000EB492068884201D1012000E0002008B9DE
:1038B000206A05432068806820F43060284321682E
:1038C000886000BFE4492068884216D1E348006858
:1038D00000F0030030B1012808D0022804D00328EA
:1038E00008D105E0012607E0022605E0042603E0F2
:1038F000082601E0102600BF8CE0D94920688842E4
:1039000016D1D648006800F00C0030B1042808D069
:10391000082804D00C2808D105E0002607E002267C
:1039200005E0042603E0082601E0102600BF71E050
:10393000CC492068884216D1C848006800F03000A1
:1039400030B1102808D0202804D0302808D105E054
:10395000002607E0022605E0042603E0082601E031
:10396000102600BF56E0C0492068884216D1BB48E7
:10397000006800F0C00030B1402808D0802804D092
:10398000C02808D105E0002607E0022605E004264D
:1039900003E0082601E0102600BF3BE0B3492068A1
:1039A000884219D1AD48006800F4407048B1B0F5C4
:1039B000807F0AD0B0F5007F05D0B0F5407F08D1F8
:1039C00005E0002607E0022605E0042603E00826BD
:1039D00001E0102600BF1DE09D492068884219D1F2
:1039E0009E48006800F4406048B1B0F5806F0AD08E
:1039F000B0F5006F05D0B0F5406F08D105E00026A6
:103A000007E0022605E0042603E0082601E0102670
:103A100000BF00BF00BF8E492068884201D101204D
:103A200000E00020002871D00025042E0FD003DC18
:103A30003EB1022E12D108E0082E0CD0102E0DD16E
:103A40000DE0FDF707FD05460CE0894D0AE0FDF7A6
:103A50002DFD054606E04FF4004503E000BF4FF0A2
:103A6000010B00BF00BF002D0AD0606800EB4000D2
:103A7000A84203D860680003A84202D24FF0010BAD
:103A800023E1042E2ED003DC3EB1022E51D118E0EA
:103A9000082E3CD0102E4CD14CE0FDF7DBFC4FF44F
:103AA0008071A0FB0130616849085F1840F1000196
:103AB000D4F804C0624600233846FCF7EFFB054605
:103AC0003BE0D4F804C04FEA5C000021694BC71802
:103AD00041EB010862460B4638464146FCF7DEFBE7
:103AE00005462AE0FDF7E2FC4FF48071A0FB0130AF
:103AF000616849085F1840F10001D4F804C06246CB
:103B000000233846FCF7CAFB054616E022E0D4F84D
:103B100004C04FEA5C0000214FF40003C71841EBDA
:103B2000010862460B4638464146FCF7B7FB05469E
:103B300003E000BF4FF0010B00BF00BFB5F5407FB1
:103B400005D3B5F5801F02D22068C560BDE04FF0F7
:103B5000010BBAE0E069B0F5004F54D1042E2BD030
:103B600005DC4EB1012E12D0022E3BD11AE0082EF8
:103B70002DD0102E36D136E0FDF76CFC4000616888
:103B800000EB5100B0FBF1F01FFA80FA2EE0FDF7D8
:103B900077FC4000616800EB5100B0FBF1F01FFAC8
:103BA00080FA23E03449606801EB50006168B0FBA3
:103BB000F1F01FFA80FA19E0FDF778FC4000616827
:103BC00000EB5100B0FBF1F01FFA80FA0EE04FF469
:103BD0008031606801EB50006168B0FBF1F01FFAC2
:103BE00080FA03E000BF4FF0010B00BF00BF4FF6AB
:103BF000F0700AEA0009CAF3420049EA00092068A5
:103C0000C0F80C9061E0042E43D005DC4EB1012ECB
:103C100012D0022E54D131E0082E45D0102E4FD1B3
:103C20004FE0FDF717FC616800EB5100B0FBF1F0CD
:103C300080B22168C86047E0FDF722FC616800EBB4
:103C40005100B0FBF1F080B22168C8603CE0000098
:103C500000800040F369FFEF003801408810024007
:103C60000044004000480040004C0040005000402C
:103C70000024F400000024F40048E80114496068BE
:103C800001EB50006168B0FBF1F080B22168C860C0
:103C90001AE0FDF70BFC616800EB5100B0FBF1F09E
:103CA00080B22168C8600FE04FF40041606801EB0A
:103CB00050006168B0FBF1F080B22168C86003E099
:103CC00000BF4FF0010B00BF00BF584600F002B824
:103CD0000024F40030BCBDE8C09F014691F86900A3
:103CE00021282DD1B1F8520068B90868006820F089
:103CF00080000B6818600868006840F040000B689E
:103D00001860002070478868B0F5805F0BD10869A3
:103D100048B9CA6C1088C0F308000B681885C86CD5
:103D2000801CC86405E0CB6C581CC86418780B680C
:103D30001885B1F85200401EA1F852000020E1E7BA
:103D40000220DFE72DE9F04104460D46174698466C
:103D5000069E21E0701CF8B12EB1FCF797FEA0EB97
:103D60000800B04218D92068006820F4D07021689B
:103D700008602068806820F00100216888602020A9
:103D800084F8690084F86A0000BF002084F86800A5
:103D900000BF0320BDE8F0812068C0692840A84228
:103DA00001D1012000E00020B842D3D00020F1E78B
:103DB00010B5012419480068808C1949087017480B
:103DC0000068006820F02000144909680860144861
:103DD0000078802816D1642302221149491C0F481B
:103DE000FEF74AFE0E4882786423C11C0B48FEF79A
:103DF00043FE044600230B4A0949491C0A4800684F
:103E000002F092F80548FEF7C3FC04480068006819
:103E100040F0200001490968086010BDC824002056
:103E20007425002074000020A00000200FB4054B72
:103E300010B503A9044A029800F018F810BC5DF808
:103E400014FB00007D4300087C00002002E008C84D
:103E5000121F08C1002AFAD170477047002001E004
:103E600001C1121F002AFBD1704700002DE9FF4F4E
:103E700089B09B460446002506E025280BD05A460B
:103E80000B999047641C6D1C20780028F5D10DB06B
:103E9000284600F095B80027B8460122474900E0BF
:103EA000074314F8013F203B02FA03F00842F7D120
:103EB00020782E2819D114F8010F47F004072A287A
:103EC0000ED06FF02F022078A0F1300109290CD814
:103ED00008EB880102EB410100EB0108641CF2E7EA
:103EE0000A98641C50F8048B0A9020780028CED0E1
:103EF000642808D0692806D075281ED05A460B9928
:103F000090476D1C58E00A994FF00A0901C90A91BF
:103F1000002802DA40422D2102E0390504D52B2188
:103F20008DF82010012103E0F90704D02021F7E7E4
:103F30008A4608AE0DE00021FAE70A994FF00A0917
:103F400001C90A91F7E74946FCF700FA303106F853
:103F5000011D0028F7D1ADEB060000F1200978071C
:103F600001D44FF00108C84502DDA8EB090000E0CC
:103F700000208046002706E008A85A46C05D0B993D
:103F800090476D1C7F1C5745F6DB04E030205A46F5
:103F90000B9990476D1CB8F10001A8F10108F5DC00
:103FA00005E016F8010B5A460B9990476D1CB9F1C4
:103FB0000001A9F10109F4DC641C65E7092801008E
:103FC00030BCBDE8C08FF0B505AC70CC012E4BD134
:103FD0000F78592F48DD0F78603F0F7007787F1CEE
:103FE00007700778232F3FDD0778243F0770277875
:103FF0007F1C27702778012F11D02778032F0ED030
:104000002778052F0BD02778072F08D02778082F7F
:1040100005D02778102F02D02778122F12D12778B9
:10402000312F21DD2778313F27701F787F1C1F70CB
:104030001F78122F18DD1F78123F1F702F787F1CFA
:104040002F7011E02778302F0EDD2778303F277052
:104050001F787F1C1F701F78122F05DD1F78123FFD
:104060001F702F787F1C2F70002E4BD10F783B2FA5
:1040700048DD0F783C3F0F7007787F1C077007788A
:10408000172F3FDD0778183F077027787F1C2770B0
:104090002778012F11D02778032F0ED02778052FEE
:1040A0000BD02778072F08D02778082F05D027783E
:1040B0000A2F02D027780C2F12D127781F2F21DD4D
:1040C00027781F3F27701F787F1C1F701F780C2FC9
:1040D00018DD1F780C3F1F702F787F1C2F7011E0A8
:1040E00027781E2F0EDD27781E3F27701F787F1C34
:1040F0001F701F780C2F05DD1F780C3F1F702F7865
:104100007F1C2F70F0BD000088B000200790D6E023
:1041100000234FF47A7207A96948006801F014FD82
:104120000028F4D067484078102804D0112819D00E
:10413000132876D191E0FEF73BFE002341F288324E
:1041400019466148006801F0FFFC50B15FA0FFF71D
:104150006DFE00231A4619465B48006801F014FE04
:10416000A8E0A7E0002341F28832194656480068CB
:1041700001F0EAFC48B15AA0FFF758FE00231A46A6
:1041800019465148006801F0FFFD4E48C0788DF88F
:1041900006004C4800798DF805004A4840798DF8B2
:1041A0000700484880798DF808004648C0798DF8A6
:1041B00009004448007A8DF80A00002202A94F48FD
:1041C000FEF710F898B1002341F2883219463E48B4
:1041D000006801F0B9FC50B149A0FFF727FE0023A9
:1041E0001A4619463848006801F0CEFD62E0002208
:1041F00001A94248FDF764FFA0B1002341F28832D3
:1042000019463148006801F09FFC58B13CA0FFF707
:104210000DFE00231A4619462B48006801F0B4FD34
:1042200048E030E0012000F071FF00F017FA0023B1
:1042300041F2883219462448006801F085FC58B1E3
:10424000012132A0FFF7F2FD00231A4619461E484D
:10425000006801F099FD2DE02CE0002341F2883246
:1042600019461948006801F06FFC48B135A0FFF706
:10427000DDFD00231A4619461348006801F084FD4D
:1042800000F0ECF916E0002341F2883219460E489E
:10429000006801F059FC60B10A48417830A0FFF78E
:1042A000C5FD00231A4619460748006801F06CFD59
:1042B00000E000BF00BF32210248FCF73CF827E7CE
:1042C000A0000020742500209C00002052544320B0
:1042D000496E697469616C697A6564210D0A000030
:1042E0005365742052544320636F6D6D616E64207A
:1042F00072656365697665640D0A00001C23002001
:104300004661696C65642E2E2E0D0A0052544320BE
:104310007365742074696D65207375636365737369
:1043200066756C2120416C61726D20736574206527
:1043300076657279202564206D696E757465730DDC
:104340000A0000004765742054696D6520636F6D35
:104350006D616E642072656365697665640D0A003F
:10436000496E76616C696420636F6D6D616E642067
:10437000686561646572203D2025640038B5044697
:104380000D4600200090E0B28DF800004FF47A73E3
:10439000012269460248FEF7FCFB204638BD0000BA
:1043A000C824002010B5012000F0B0FE0022042136
:1043B000014800F0D7FD10BD000800488AB0FCF7A6
:1043C00073FBFEF7DDFFFEF749FCFEF71BFDFEF772
:1043D000EFFC43480068006840F02000404909684D
:1043E0000860012205212620FCF70BFC2620FCF7A3
:1043F000FBFB012208212920FCF703FC2920FCF704
:10440000F3FB012001F036FB3649086014223649DF
:1044100005A8FBF777FF002105A800F002F9334952
:1044200008600020324A0123CDE901200093039067
:10443000304B802230A1334801F034FE324908600D
:104440000020324A0123CDE9012000930390294B3B
:1044500080222FA1324801F025FE2B490860002060
:10446000304A0123CDE9012000930390214B8022A3
:104470002DA1314801F016FE2349086000220121D8
:10448000084601F01DFB2D49086000220121084665
:1044900001F016FB2A49086000220121084601F0BC
:1044A0000FFB28490860012012490870FFF77AFFC6
:1044B00000234FF47A7219460A48006801F044FB61
:1044C00048B121A0FFF7B2FC00231A46194605485F
:1044D000006801F059FC00F097F800BFFEE700000B
:1044E000C82400209C0000202467000878000020D9
:1044F000AC000020840000206465627567746173FD
:104500006B0000000941000898000020B000002066
:104510006D616E6167655F67617264656E00000062
:1045200071450008B400002077617465725F6761AF
:104530007264656E0000000039580008A000002079
:10454000A4000020A80000205374617274696E6793
:10455000204F53204B65726E656C2E2E0D0A0000A5
:1045600001460020842901D0CA1C10447047000075
:1045700088B00020079034E000234FF47A7207A936
:104580001848006801F0E0FA58B300F067F800221C
:1045900002A91548FDF7C8FB002201A91248FDF742
:1045A0009DFB9DF80800092802D19DF8090068B11B
:1045B0009DF80800112802D19DF8090030B19DF83E
:1045C000080001280AD19DF8090038B900234FF4EA
:1045D0007A7207A90548006801F0D6FB012000F0B7
:1045E00095FDC9E7A40000201C230020A80000209E
:1045F00070B5044625460DB1294600E00121084664
:1046000000F04CFF002070BD10B501F083F80020D1
:1046100010BD10B501F002FE012801D001F010FA22
:1046200010BD70B586B004460D46B4F90800FFF71A
:1046300097FF0646002005AACDE9012000960390C9
:10464000238A9AB22B46D4E9001001F02BFD0128F1
:1046500002D0002006B070BD0598FBE700B587B01A
:10466000002202A91548FDF75FFB002201A91348AB
:10467000FDF734FB00234FF47A72194610480068A6
:1046800001F062FAC0B19DF80A309DF809209DF84A
:1046900008100CA0FFF7CAFB9DF807309DF8062014
:1046A0009DF805100DA0FFF7C1FB00231A4619461F
:1046B0000348006801F068FB07B000BD1C23002020
:1046C0009C00002054494D45206973203D202564FD
:1046D0003A25643A256420202000000044415445D6
:1046E000206973203D2025642F25642F2564200D2B
:1046F0000A00000010B504460E48006844600E48E9
:104700000068844207D20B480168091D0B48006805
:1047100000F088FD0CE007480168091D08480068A2
:1047200000F080FD07480068844201D2054804601B
:1047300010BD00001C0000203000002024000020DC
:10474000200000204C0000202DE9F04105460F46D6
:104750001FB9A80000F018FC00E03846064656B124
:104760005C2000F011FC04460CB1266304E03046E6
:1047700000F0C6FD00E0002424B1A900A522206BB2
:10478000FBF7D2FD2046BDE8F081000010B500F037
:104790006FFD1748006840BB164800F033FD16480F
:1047A00000F030FD134815490860134814490860AB
:1047B00000220C210A2001F083F90D490860084607
:1047C000006850B900BF502080F31188BFF34F8FAD
:1047D000BFF36F8F00BF00BFFEE70548006820B140
:1047E00008A10348006800F021FE00F06BFD10BD39
:1047F00014000020C4000020D80000200C0000207D
:1048000010000020546D72510000000070B523E0CC
:1048100000F0C4FF1348006808B9012000E0002040
:10482000054601F067FEBDB900F022FD0D48C068E5
:10483000C468201D00F0D2FC0B480068401E0A49E5
:1048400008600A480068401E0849086000F03AFD08
:10485000204600F062F800BF044800680028D7D165
:1048600070BD0000F40100202C0000202800002072
:1048700070B504460D46206C70B1216CE0680844A8
:10488000E0606168E068884201D32068E060284603
:10489000226CE168FBF736FD70BD2DE9F04104465E
:1048A0000E4615460027206C40B9206878BB60682A
:1048B00001F070FD07460020606028E07DB93146B8
:1048C000226CA068FBF71EFD216CA0680844A06064
:1048D000D4E9011088421AD32068A06017E031465D
:1048E000226CE068FBF70EFD216CE068401AE06086
:1048F0002168E068884203D2216C6068401AE06059
:10490000022D04D1A06B10B1A06B401EA063A06B60
:10491000401CA0633846BDE8F08110B50446206B0A
:1049200000F0EEFC204600F0EBFC10BD0146084A0A
:10493000126812680AB9012200E000220A600A68BF
:1049400022B9034A1268D268106800E0002070475C
:104950000C00002030B54FF4FA53174800F007045C
:104960002CB1C01D20F00700134C041B1B1B02467A
:10497000124C22600024114D6C60D018083820F0D1
:1049800007000F4C206000240D4D2D686C600C4D0D
:104990002D682C601146441A4C60094C24680C6048
:1049A000084D4C682C60084D4C682C604FF000445A
:1049B000064D2C6030BD00001C0200205400002079
:1049C0005C000020640000206000002068000020DF
:1049D00000BFFFF71BFF064800680128F9D94FF018
:1049E000805004490860BFF34F8FBFF36F8FF0E72B
:1049F0002C01002004ED00E02DE9F04704460F46AD
:104A000015469946DDF82080002607E0B95D04F1DF
:104A100034008155B85D00B902E0761C102EF5D344
:104A200000BF002143200155072D00D30625E56274
:104A3000E56400202065201D00F0F1FB04F1180062
:104A400000F0EDFB2461C5F10700A0616462002065
:104A5000606584F85800BDE8F087000010B50024B8
:104A600007E004EB84010F4A02EB810000F0CAFB6F
:104A7000641C072CF5D30C4800F0C4FB0B4800F075
:104A8000C1FB0B4800F0BEFB0A4800F0BBFB0A4824
:104A900000F0B8FB04480949086004480849086068
:104AA00010BD00002C010020B8010020CC01002026
:104AB000E0010020F4010020080200202000002076
:104AC0002400002010B50146164800E00068036885
:104AD0008B42FBD30246436813448B4204D14368A4
:104AE0004C682344436001460A464B6813440468FB
:104AF000A34211D10C4C03682468A34208D04B6830
:104B00000468646823444B6003681B680B6005E01D
:104B1000054B1B680B6001E003680B60884200D006
:104B2000016010BD540000205C0000202DE9F04120
:104B300004460D4616461F464FF000086560246186
:104B4000B5420CD8F01BA169884202D34FF001088E
:104B500011E0211D0948006800F064FB0BE0BE4233
:104B600004D2BD4202D34FF0010804E0211D0448E5
:104B7000006800F057FB4046BDE8F08110000020BF
:104B80000C00002070B5054600F072FBA86B08B958
:104B9000012400E0002400F095FB204670BD70B5B4
:104BA000054600F065FBA86BE96B884201D1012442
:104BB00000E0002400F086FB204670BDF8B50546F5
:104BC0000F4616480068C068C468201D00F006FB48
:104BD000E06901281ED1A06941192B463A462046BA
:104BE000FFF7A4FF012815D1002003462A460146FD
:104BF0000090204601F02CFD064656B900BF50201B
:104C000080F31188BFF34F8FBFF36F8F00BF00BFDA
:104C1000FEE700BF2046616A8847F8BD0C0000200F
:104C200070B586B06BE00398002868DB059C60696E
:104C300008B9012000E0002010B9201D00F0CEFAD4
:104C400002A800F0BDF8054603980A2855D2DFE80F
:104C500000F00905073234500608333500BF00BFA5
:104C600000BF00BF0498A269811803462A46204667
:104C7000FFF75CFF01281DD12046616A8847E06983
:104C8000012817D1002000900498A1694218002340
:104C90001946204601F0DCFC064656B900BF5020FC
:104CA00080F31188BFF34F8FBFF36F8F00BF00BF3A
:104CB000FEE700BF22E000BF20E000BF0498A06133
:104CC000A06908B1012000E0002050B900BF5020C9
:104CD00080F31188BFF34F8FBFF36F8F00BF00BF0A
:104CE000FEE7A06941192B462A462046FFF71EFF22
:104CF00004E0204600F004FB00E000BF00BF0023FA
:104D00001A4603A90348006800F01EFF00288AD154
:104D100006B070BD14000020F8B505460C4600F042
:104D20003DFD684600F04CF80646009820BB44B9AB
:104D3000B54206D801F0DEFB31462846FFF73EFFBC
:104D40001CE03CB10E480068006808B9012000E092
:104D500000200446A91B22460A48006800F07CFB9C
:104D600001F0C8FB50B94FF0805007490860BFF30D
:104D70004F8FBFF36F8F01E001F0BCFBF8BD000067
:104D8000100000201400002004ED00E00A4909682A
:104D9000096809B9012100E0002121B14FF0FF317C
:104DA000064A116006E004490968C968C868034AF0
:104DB0004168116070470000200000204C00002076
:104DC00070B5044601F03AFA054607480068854286
:104DD00004D200F00BF80120206001E000202060E8
:104DE00001480560284670BD180000202DE9F843F1
:104DF00032E024480068C068056822480068C0683E
:104E0000C468201D00F0EAF92046616A8847E0691D
:104E1000012821D1A0694619AE4207D966602461F4
:104E2000211D1848006800F0FDF915E00020034638
:104E30002A4601460090204601F00AFC074657B971
:104E400000BF502080F31188BFF34F8FBFF36F8FE7
:104E500000BF00BFFEE700BF0A480068006808B94D
:104E6000012000E000200028C3D00648D0F80080D0
:104E700005480068034908600348C0F80080BDE8A1
:104E8000F88300000C000020100000200E4800688D
:104E9000401C08B9012000E0002050B900BF50209C
:104EA00080F31188BFF34F8FBFF36F8F00BF00BF38
:104EB000FEE700BF502080F31188BFF34F8FBFF390
:104EC0006F8F00BF00BFFEE70000002008B500BFE5
:104ED0006846FFF72BFD044620460099FFF71CFFAC
:104EE000FFF79EFEF4E710B5044600F0C1F911E0AB
:104EF000606A08B9012000E0002038B904F12400FC
:104F000001F0ACFA18B100F00FFB00E005E0A06C76
:104F1000401EA064A06C0028EADC00BF4FF0FF3008
:104F2000A06400F0CFF900F0A3F911E0206908B9FE
:104F3000012000E0002050B904F1100001F08EFAC9
:104F400008B100F0F1FA606C401E606400E002E01D
:104F5000606C0028EADC00BF4FF0FF30606400F0B6
:104F6000B1F910BD70B505460E4614462CB10122AC
:104F700031462846FBF784FD04E0002231462846EE
:104F8000FBF77EFD70BD00002DE9F04104464FF0B7
:104F9000000800F003FC4648006808B9FFF7DAFC97
:104FA00044480068204000286BD1D4B1083404F094
:104FB0000700B0B104F00700C0F10800044404F099
:104FC000070008B9012000E0002050B900BF5020C0
:104FD00080F31188BFF34F8FBFF36F8F00BF00BF07
:104FE000FEE7002C4DD034480068844249D8334E47
:104FF0003046056801E02E462D686868A04202D25E
:1050000028680028F7D12A480068854239D03068DE
:1050100000F10808286830606868001B102819D95A
:105020002F1907F0070008B9012000E0002050B94F
:1050300000BF502080F31188BFF34F8FBFF36F8FF5
:1050400000BF00BFFEE76868001B78606C603846F0
:10505000FFF738FD184968680968081A164908609A
:105060000846006816490968884203D21248006859
:10507000134908600F4968680968084368600020A0
:10508000286001F037FA08F0070008B9012000E0B5
:10509000002050B900BF502080F31188BFF34F8F1C
:1050A000BFF36F8F00BF00BFFEE74046BDE8F08151
:1050B0005C000020680000206000002054000020F8
:1050C000640000200648006830B10549096801F114
:1050D0005000096D491C01600148006870470000DC
:1050E0001C000020001F4FF080730360001F016050
:1050F000001F054B036014380260001F6FF00203AD
:1051000003602038704700008D4E000810B594B041
:10511000044600220FA92848FCF706FE00220EA92B
:105120002548FCF7DBFD9DF83D002044C0B28DF81A
:105130003D0000220DF13B00411E831ECDE901021E
:105140000091C21C811C0FA8FEF73DFF9DF83C009A
:105150008DF810009DF83D008DF811009DF83E007F
:105160008DF81200002005900790089009900A9091
:105170000B909DF83A008DF830004FF480700D9040
:10518000002204A90C48FCF77DFE90B1002341F2F7
:10519000883219460948006800F0D6FC48B108A0DA
:1051A000FEF744FE00231A4619460448006800F042
:1051B000EBFD14B010BD00001C2300209C0000205B
:1051C00053657474696E67206E65787420616C61D4
:1051D000726D206661696C65642E000001460A6983
:1051E000D1E901309860D1E90103586050688842E4
:1051F00001D188685060002008611068401E10606E
:105200001068704700F1080141604FF0FF31816084
:1052100000F10801C16001610021016070470021B7
:105220000161704710B502460B685C1C0CB910692F
:1052300007E002F1080000E04068446824689C42EE
:10524000FAD944684C604C68A160886041600A618A
:105250001468641C146010BD42684A6093688B60D7
:10526000936859609160086103685B1C0360704734
:1052700000BF502080F31188BFF34F8FBFF36F8FB3
:1052800000BF0E480068401C0C49086008460068D2
:10529000012812D10A480068C0B208B9012000E014
:1052A000002050B900BF502080F31188BFF34F8F0A
:1052B000BFF36F8F00BF00BFFEE770470000002004
:1052C00004ED00E00D48006850B900BF502080F3A5
:1052D0001188BFF34F8FBFF36F8F00BF00BFFEE792
:1052E00006480068401E054908600846006820B965
:1052F000002080F3118800BF00BF7047000000202D
:1053000070B506463546002E3FD0083D2C461F4955
:1053100060680968084008B1012000E0002050B929
:1053200000BF502080F31188BFF34F8FBFF36F8F02
:1053300000BF00BFFEE7206808B9012000E00020A0
:1053400050B900BF502080F31188BFF34F8FBFF3D7
:105350006F8F00BF00BFFEE70C4960680968084016
:1053600098B1206888B90949606809688843606015
:1053700000F014FA064960680968084404490860A6
:105380002046FFF79FFB01F0B5F870BD68000020D4
:1053900060000020064800684FF47A71B0FBF1F01D
:1053A000401E4FF0E021486107200861704700006F
:1053B0007000002070B5FAF74BFF0446102C16D38E
:1053C00004F1E02090F8F05315480078854201DBA5
:1053D000012000E0002050B900BF502080F3118868
:1053E000BFF34F8FBFF36F8F00BF00BFFEE70D48C5
:1053F000006800F4E0600C490968884201D8012087
:1054000000E0002050B900BF502080F31188BFF3A6
:105410004F8FBFF36F8F00BF00BFFEE770BD00006E
:10542000040000200CED00E00800002002460020EF
:105430000BE0084B53F8303033B9064B43F83010CB
:1054400003EBC0035A6002E0401C0828F1D300BF00
:1054500070470000EC0000202DE9F04105460E46A3
:1054600017462C46FFF704FF606C401C08B900206B
:105470006064A06C401C08B90020A064FFF722FF04
:10548000A06B28B93A46314604F1240000F090F8A8
:105490002046FFF728FDBDE8F081000070B5044606
:1054A00000266CB31B48006808B9012000E000200A
:1054B00050B900BF502080F31188BFF34F8FBFF366
:1054C0006F8F00BF00BFFEE700F068F91248006868
:1054D000051912480068001DFFF780FE50B90F48FB
:1054E000006890F82C10012088400D49096881431C
:1054F0000B4801602846FFF7FDF800F0FBFF064669
:105500003EB94FF0805007490860BFF34F8FBFF39B
:105510006F8F70BD50000020300000201C00002064
:105520003400002004ED00E00120014908607047CC
:105530004000002070B505460C4655B900BF50200C
:1055400080F31188BFF34F8FBFF36F8F00BF00BF91
:10555000FEE71348016818312846FFF763FE10483C
:105560000068001DFFF73AFE50B90D48006890F83A
:105570002C10012088400B490968814309480160CB
:10558000601C30B906480168091D0748FFF764FE32
:1055900005E00648006806193046FFF7ABF870BD15
:1055A0001C000020340000200802002030000020F1
:1055B0002DE9F04104460D46164654B900BF50206F
:1055C00080F31188BFF34F8FBFF36F8F00BF00BF11
:1055D000FEE71448016818312046FFF73DFE1148E8
:1055E0000068001DFFF7FAFD50B90E48006890F8FA
:1055F0002C10012088400C49096881430A48016049
:10560000012E06D107480168091D0848FFF724FE4E
:1056100005E00748006847193846FFF76BF8BDE812
:10562000F08100001C00002034000020080200204F
:105630003000002070B505462C46002D4BD0264981
:10564000E06A0968C96A884245D2A06900F0004052
:1056500028B921480068C06AC0F10700A061E16A6A
:1056600001EB81011D4A02EB81016069884201D191
:10567000012000E0002050B3201DFFF7AFFD78B9F6
:10568000E06A00EB8000154951F8200040B994F819
:105690002C1001208840124909688143104801609C
:1056A0000D480068C06AE06294F82C100120884020
:1056B0000B49096808430A490860E16A01EB810166
:1056C000064A02EB8100211DFFF7C6FD03E00248F8
:1056D0000068C06AE06270BD1C0000202C01002040
:1056E0003400002050B900BF502181F31188BFF36E
:1056F0004F8FBFF36F8F00BF00BFFEE703490968FC
:1057000001600349096841607047000044000020BF
:10571000300000201FB50020009001900290034649
:10572000802218A10390194800F0BCFC0446012C0B
:1057300002D100F061FF0446012C15D100BF5020BA
:1057400080F31188BFF34F8FBFF36F8F00BF4FF00F
:10575000FF300F49086001200E49086000200E4903
:10576000086000F0CFF80BE054B900BF502080F380
:105770001188BFF34F8FBFF36F8F00BF00BFFEE7ED
:105780001FBD000049444C4500000000D1490008FD
:105790004C00002038000020300000200248006843
:1057A000401C014908607047500000201D480068F7
:1057B00018B101201C49086032E000201A49086035
:1057C0001A480068B0FA80F0C0F11F0101EB8100B7
:1057D000174A52F8200008B1012000E0002050B91B
:1057E00000BF502080F31188BFF34F8FBFF36F8F3E
:1057F00000BF00BFFEE701EB81020D4B03EB82000F
:1058000042685268426000F108024368934202D144
:105810004268526842604268D268064B1A6000BF14
:10582000704700005000002040000020340000209D
:105830002C0100201C00002008B5002000903FE053
:1058400000234FF47A7269461E48006800F07CF924
:10585000002835D0FEF702FF002341F288321946B6
:105860001948006800F070F948B118A0FEF7DEFA98
:1058700000231A4619461448006800F085FA0122F0
:1058800004211948FFF76EFB47F23050FFF706FE80
:10589000002204211448FFF765FB002341F28832FF
:1058A00019460948006800F04FF948B10FA0FEF70B
:1058B000BDFA00231A4619460348006800F064FA4E
:1058C000BEE70000A80000209C0000204741524491
:1058D000454E205761746572696E6720535441527A
:1058E000542E2E2E0000000000080048474152446C
:1058F000454E205761746572696E6720454E442E8F
:105900002E2E00001CB5474800684749884201D048
:10591000012000E0002050B900BF502080F3118822
:10592000BFF34F8FBFF36F8F00BF00BFFEE73D484F
:1059300000683D49491E884201D0012000E0002056
:1059400050B900BF502080F31188BFF34F8FBFF3D1
:105950006F8F00BF00BFFEE7344908460078019012
:10596000FF200A4610700846007800909DF800005D
:1059700000F0F0009DF80020904201D1012000E0ED
:10598000002050B900BF502080F31188BFF34F8F23
:10599000BFF36F8F00BF00BFFEE79DF8000000F06F
:1059A0005000234A10700720224A106009E0214865
:1059B0000068401E1F4A10609DF800004006000E5F
:1059C00000909DF8000000F080008028EFD019487A
:1059D00000680002174A10601046008800F4E0607A
:1059E0001060124A019810700E482030006840F490
:1059F00070000C49203108600846006840F0704093
:105A00000860FFF7C7FC00200B490860FAF7E6FBC7
:105A10000A48006840F0404008490860FAF7CEFBA9
:105A200000201CBD00ED00E071C20F4100E400E069
:105A300004000020080000200000002034EF00E0F7
:105A400010B500BF5020EFF3118180F31188BFF330
:105A50004F8FBFF36F8F00BF00F0F6FB18B14FF010
:105A6000805003490860002080F3118800BF10BDFA
:105A700004ED00E070B505465420FFF785FA0446B2
:105A8000E4B1002060602060A060E060A0630120BD
:105A9000E06300202064401E6064A06484F85050DD
:105AA00004F11000FFF7AEFB04F12400FFF7AAFB9E
:105AB00000231A461946204600F066F9204670BDBC
:105AC0002DE9F04706460D4690464FF000090EB10D
:105AD000012000E0002050B900BF502080F3118861
