:020000040800F2
:10000000F02800207902000881020008830200081D
:10001000850200088702000889020008000000002D
:100020000000000000000000000000009D0100082A
:100030008D02000800000000F10100083F3A0008AE
:10004000930200089302000893020008930200083C
:10005000930200089302000893020008930200082C
:10006000930200089302000893020008930200081C
:10007000930200089302000893020008930200080C
:1000800093020008930200089302000893020008FC
:1000900093020008930200089302000885050008F7
:1000A00093020008413B00089302000893020008F5
:1000B00093020008930200089302000893020008CC
:1000C000930200089302000893020008193A0008FE
:1000D0009302000893020008C54400089302000838
:1000E00065050008613900089302000893020008C2
:1000F000930200089302000893020008930200088C
:10010000930200089302000893020008930200087B
:1001100093020008813F0008930200089302000840
:10012000930200089302000893020008930200085B
:10013000930200089302000893020008930200084B
:10014000930200089302000893020008930200083B
:10015000930200089302000893020008930200082B
:10016000930200089302000893020008930200081B
:1001700093020008930200089302000800000000A8
:100180009302000893020008DFF80CD000F014F985
:1001900000480047494C0008F02800202B4B196804
:1001A000086800F058B880F30988BFF36F8F4FF0EC
:1001B000000080F3118870470000000006480068C6
:1001C000006880F3088862B661B6BFF34F8FBFF353
:1001D0006F8F00DF00BF00BF08ED00E0DFF80C000C
:1001E000016841F470010160704700BF88ED00E0D4
:1001F000EFF30980BFF36F8F144B1A681EF0100FD6
:1002000008BF20ED108A20E9F04F106008B44FF0CD
:10021000500080F31188BFF34F8FBFF36F8F05F04D
:10022000C9FF4FF0000080F3118808BC1968086806
:1002300000F016B81EF0100F08BF00F016B880F3DB
:100240000988BFF36F8F704700BF00BF1C000020FC
:10025000EFF30580704730C8B0E8C04FFFF7A3BF89
:1002600030C8B0E8C04FFFF7E5BFB0EC088AB0EC8B
:1002700008CAFFF7E4BF0000064880470648004769
:10028000FEE7FEE7FEE7FEE7FEE7FEE7FEE7FEE746
:10029000FEE7FEE7FD3A0008890100082DE9F05F5E
:1002A0000546002092469B468846064681464024E5
:1002B0001BE0284641464746224600F06CF853466C
:1002C0005A46C01A914110D311461846224600F0F2
:1002D00053F82D1A67EB01084F46224601200021F2
:1002E00000F04AF817EB00094E41201EA4F101046A
:1002F000DFDC484631462A46434600F000B830BCB1
:10030000BDE8C09F40EA01039B0703D009E008C98C
:10031000121F08C0042AFAD203E011F8013B00F8CA
:10032000013B521EF9D27047D2B201E000F8012B16
:10033000491EFBD270470022F6E710B513460A4665
:1003400004461946FFF7F0FF204610BD30B50B46B6
:10035000014600202022012409E021FA02F59D42F5
:1003600005D303FA02F5491B04FA02F52844151EC9
:10037000A2F10102F1DC30BD202A04DB203A00FAB0
:1003800002F1002070479140C2F1200320FA03F3EC
:10039000194390407047202A04DB203A21FA02F0EA
:1003A0000021704721FA02F3D040C2F120029140AF
:1003B0000843194670470000064C074D06E0E06808
:1003C00040F0010394E8070098471034AC42F6D39C
:1003D000FFF7DEFE387100085871000870B504465A
:1003E00000680022836813F00C0F50D0C3689B0193
:1003F00005D5E369012B02D1A369012B22D0602925
:100400000CD020688268520706D58268920703D410
:10041000826842F0100282600C290ED02068826847
:10042000120706D58268920703D4826842F0200240
:100430008260602915D06C2911D0042500F040FF9E
:10044000064620E00C21134B02E09A4211D2521CC6
:100450000568ED436D06F8D440220260D1E70C2513
:10046000ECE70825EAE700BF00F02AFF801B05281B
:1004700009D9A06D40F01000A065E06D40F00100CA
:10048000E065012070BD206880682842ECD1002022
:1004900070BD000000340A0070B504460068816831
:1004A00001F00301012926D10168C90723D0816821
:1004B00001F00D01012910D1816841F00201816034
:1004C00021680320086000F0FBFE05460FE000BF36
:1004D00000F0F6FE401B022809D9A06D40F0100084
:1004E000A065E06D40F00100E065012070BD20686E
:1004F0008068C007ECD1002070BD000070B50446D4
:100500000068816801F00301012902D10168C9076F
:1005100023D18168124A114210D1816841F0010152
:10052000816000F0CDFE054612E0816841F00101D6
:10053000816000F0C5FE401B022809D9A06D40F083
:100540001000A065E06D40F00100E065012070BD85
:1005500020680168C943C907E7D1002070BD0000C9
:100560003F00008010B54FF4806000F0ADFD4FF407
:10057000006000F0A9FDBDE810404FF4004000F01D
:10058000A3BD0000114810B50168490603D5104A03
:100590001178491C11700168090603D50D4A1178BC
:1005A000491C11700068C00503D50B490878401C30
:1005B0000870402000F088FD802000F085FDBDE837
:1005C00010404FF4807000F07FBD00001404014023
:1005D000CC000020D0000020D4000020F0B590F81E
:1005E000542000239AB0012A2BD0012280F85420F5
:1005F000364D02680024AA4226D1354D00959268F6
:1006000052075AD4AA68520757D4324A0E6840F6A5
:100610001F75B6B396684FF4005C9CFAACFC476B50
:10062000BCFA8CFC26F4604607FA0CF73E434F6890
:100630003E4396600668B76807F00307012F0ED1A6
:100640000AE002201AB0F0BD816D41F02001816501
:1006500080F854400120F5E73668F60732D1009E55
:10066000B66806F00306012E03D1009E3668F60731
:1006700028D10E6889680E439168A9430E4396609D
:1006800020E0FFE7916821F46041916001688E6885
:1006900006F00306012E02D10968C90712D100999C
:1006A000896801F00301012903D100990968C9078C
:1006B00008D19168A943916004E0816D41F0200167
:1006C0008165012380F854401846BBE700000450C0
:1006D00000010450000304502DE9F847002600965D
:1006E00090F85420B246012A21D04FF0010980F839
:1006F00054900468A26852077DD44A681F254FF4BD
:10070000F863052A16D2276B93FAA3FCBCFA8CFC7B
:1007100002FB0CFC05FA0CF5AF4393FAA3F3B3FA12
:1007200083F30D685A4395402F43276344E002202A
:1007300000F012BA0A2A14D2676B93FAA3FCBCFA2F
:100740008CFC521F02FB0CFC05FA0CF5AF4393FA2C
:10075000A3F3B3FA83F30D685A4395402F436763BD
:100760002AE00F2A14D2A76B93FAA3FCBCFA8CFCE4
:100770000A3A02FB0CFC05FA0CF5AF4393FAA3F31B
:10078000B3FA83F30D685A4395402F43A76313E0F0
:10079000E76B93FAA3FCBCFA8CFC0F3A02FB0CFC4F
:1007A00005FA0CF5AF4393FAA3F3B3FA83F30D689C
:1007B0005A4395402F43E7630568AA684FF0070442
:1007C00012F00C0F4FF038027ED10B680A2B1BD3AE
:1007D000AF6992FAA2FCBCFA8CFC0A3B03FB0CFC4E
:1007E00092FAA2F804FA0CFCB8FA88F827EA0C0787
:1007F00003FB08F300E06CE1D1F808C00CFA03FC3D
:1008000047EA0C07AF6117E06F6992FAA2FCBCFAE5
:100810008CFC03FB0CFC04FA0CFC27EA0C0792FA94
:10082000A2F8B8FA88F8D1F808C003FB08F30CFA6C
:1008300003FC47EA0C076F6103684F69DD68D1F874
:100840001080C5F3C1056D00AF40DFF8F0C24FF076
:10085000F845B8F1010F53D0B8F1020F64D0B8F1E8
:10086000030F77D0B8F1040F73D01F6E95FAA5F877
:1008700007F0F84C0F68B8FA88F807FA08F7BC4593
:1008800003D11F6E27F000471F6603685F6E95FA5D
:10089000A5F807F0F84C0F68B8FA88F807FA08F7D7
:1008A000BC4503D15F6E27F000475F6603689F6E0B
:1008B00095FAA5F807F0F84C0F68B8FA88F807FA27
:1008C00008F7BC4505D100E013E09F6E27F0004714
:1008D0009F660368DF6E95FAA5F507F0F84C0F6880
:1008E000B5FA85F5AF40BC4503D1DD6E25F0004576
:1008F000DD6603689D6805F00305012D54D150E0C5
:10090000D3F8608095FAA5F508EA0C08D1F800C084
:10091000B5FA85F50CFA05FC4CEA070C48EA0C0818
:1009200048F000451D66E4E7D3F8648095FAA5F524
:1009300008EA0C08D1F800C0B5FA85F50CFA05FCF8
:100940004CEA070C48EA0C0848F000455D66D0E721
:1009500000E013E0D3F8688095FAA5F508EA0C08E2
:10096000D1F800C0B5FA85F50CFA05FC4CEA070C85
:1009700048EA0C0848F000459D66BAE7D3F86C8059
:1009800095FAA5F508EA0C08D1F800C0B5FA85F586
:100990000CFA05FC4CEA070C48EA0C0848F0004544
:1009A000A6E71D68ED0747D1CD68B5F1804F07D0A8
:1009B00053F8B04F0D7809FA05F294431C6034E007
:1009C00053F8B07F91F800C009FA0CF52F431F606F
:1009D0000B680568092B14D3AF6992FAA2FCBCFA24
:1009E0008CFC093B03FB0CFC04FA0CF4A74392FAC1
:1009F000A2F2B2FA82F28C6853439C402743AF6163
:100A000013E06F6992FAA2FCBCFA8CFC5B1C03FB3E
:100A10000CFC04FA0CF4A74392FAA2F2B2FA82F2A6
:100A20008C6853439C4027436F610C68444B112CE6
:100A300003D0122C04D034B150E09968090204E0CC
:100A40009968C90101E099684902002946DB0268FA
:100A5000916801F00301012902D11168C90738D159
:100A600038498A4212D1D1F8085105F00305012D09
:100A700003D1D1F80051ED072BD1D1F8085205F080
:100A80000305012D2ED1D1F8005220E02E4DAA42AF
:100A90008D6805F003050DD1012D02D10D68ED071C
:100AA00017D1D1F8085205F00305012D07D1D1F86F
:100AB000005202E0012D02D10D68ED0709D1D1F8F5
:100AC000085105F00305012D0CD1D1F80051ED07B7
:100AD00008D0816D41F020018165012680F854A085
:100AE000304625E6194D112C0AD0122C1ED0002CB0
:100AF000F4D18A42F2D1996841F480019960EDE71E
:100B00008A4201D0AA42E9D1996841F40001996072
:100B10000F49104A0968B1FBF2F1C1EB0111C9009C
:100B200000E0491E00910029FBD1D7E78A4201D09D
:100B3000AA42D3D1996841F08071DFE700F0FF034A
:100B4000000304500000045000010450000204504F
:100B50007000002080841E0018BCBDE8E08700689B
:100B6000006C7047F8B54FF0000504002E46009564
:100B700002D0A06D10B107E00120F8BD204600F0C2
:100B80000BF9E66584F8546020688168890003D514
:100B9000816821F00051816020688168C90010D40B
:100BA000816841F080518160754876490068B0FBEA
:100BB000F1F000EB8000400000E0401E00900028B3
:100BC000FBD121688868C00008D4A06D40F01000F7
:100BD000A065E06D40F00100E0650125A06DC00654
:100BE0007ED4886840077BD4A06D40F00200A065E9
:100BF000654A886800F00300012802D10868C00730
:100C00003ED16248814212D1D0F8081101F00301AF
:100C1000012903D1D0F80011C90731D1D0F8081249
:100C200001F00301012925D1D0F8000220E0584B42
:100C30009942816801F003010DD1012902D10168B7
:100C4000C9071DD1D0F8081201F00301012907D10D
:100C5000D0F8001202E0012902D10168C9070FD1C2
:100C6000D0F8081101F00301012903D1D0F80001E7
:100C7000C00705D19068616820F47C10084390603B
:100C8000E168A06B4FF40053084393FAA3F3E269C1
:100C9000B3FA83F3A1689A40114308434FF48032BA
:100CA00092FAA2F2616AB2FA82F201FA02F21043F7
:100CB000012909D14FF46022A16A92FAA2F2B2FA94
:100CC00082F2491E91400843E16A012903D0226B58
:100CD0000AB1114308432268D1682E4B194000E045
:100CE00047E00143D1602168886810F00C0F1DD1E6
:100CF0004FF4804292FAA2F2A069B2FA82F29040D6
:100D0000022393FAA3F3626BB3FA83F39A4010437E
:100D1000CA6844F202039A430243CA60E06B0128A6
:100D20000CD02068016921F00101016120690128CE
:100D30002068016B21F00F0110D012E0D4E91010EF
:100D40000143D4E91202104301432068026940F2D2
:100D5000FD739A43114341F00101E6E7226A521EF6
:100D600011430163A06D20F0020040F00100A06576
:100D700004E0A06D40F01000A06501252846F8BDF4
:100D80007000002080841E00000304500000045006
:100D90000001045007C0F0FFF0B503681B481A4F6C
:100DA000002501681A4A0B241A4E491C87B0BB4221
:100DB00013D10160012907D1D06C40F40050D064F8
:100DC000D06C00F40050059092208DE83100694607
:100DD000800600F085F910200EE00F4FBB4211D1C4
:100DE0000160012907D1D06C40F40050D064D06C70
:100DF00000F40050059008208DE831006946304627
:100E000000F06EF907B0F0BD00000450780000203B
:100E10000010024000080048000204502DE9F0478D
:100E2000044640690126DFF820810F46082823D0B8
:100E300021684046814202D0444A91421ED1D0F8F6
:100E40000823D2061AD0D0F8082302F01F02052A80
:100E500014D0D0F8082302F01F02092A0ED0D0F8CF
:100E60000813C1F3813102290BD0D0F80803C0F375
:100E70008130032805D00BE008250AE0C868C007C8
:100E800006D0A06D40F02000A0650120BDE8F087ED
:100E9000042500F015FA814611E0781C0FD02FB11F
:100EA00000F00EFAA0EB0900B84208D9A06D40F09E
:100EB0000400A065002084F854000320E6E72068C1
:100EC00000682842E9D021680868000700D400269D
:100ED0004046814224D01E4A914221D0D0F80823B6
:100EE000D2061DD0D0F8082302F01F02052A17D021
:100EF000D0F8082302F01F02092A11D0C068082D7B
:100F000010D0420401D404220A60A16D41F40071A2
:100F1000A165B6B12168C96811F4406F04D010E032
:100F2000C868ECE70822EFE780040AD4A06D20F43B
:100F30008070A065A06DC00403D4A06D40F00100D6
:100F4000A0650020A2E7000000000450000104504A
:100F50000002045070B5044600688068400766D4FB
:100F600094F8540001280AD0012084F85400204647
:100F7000FFF7C4FA01004FF0000202D044E0022063
:100F800070BDA06DC00404D5E06D20F00600E065E2
:100F900000E0E265A06D40F60163984340F4807084
:100FA000A06524482368244D834205D0AB4203D07A
:100FB000D0F80863F60603D1A66D26F48016A66560
:100FC0001C261E602368834221D0AB421FD0D0F87C
:100FD0000853ED061BD0D0F8085305F01F05052D6A
:100FE00015D0D0F8085305F01F05092D0FD0A36DBB
:100FF00043F48013A365C068800105D5A06D20F47B
:10100000005040F48050A06584F8542010E0D86867
:10101000800105D5A06D20F4005040F48050A065FB
:1010200084F85420986840F00400986000E00221A1
:10103000084670BD000004500002045010B504467C
:1010400090F85400012808D0012084F854006C2145
:101050002046FFF7C3F910B10BE0022010BD204677
:10106000FFF71AFA28B9A16D21F4885141F0010166
:10107000A165002184F8541010BD10B590F825101A
:101080000024022903D00421C163012418E001686F
:101090000A6822F00E020A6001680A6822F0010262
:1010A0000A6090F84420036C012101FA02F25A60B0
:1010B00080F82510002180F82410816B01B1884749
:1010C000204610BD70470000044910B50A6802426E
:1010D00002D00860FFF7F6FF10BD000014040140C5
:1010E0002DE9F84FDFF898B100234FF0010C4FF0D5
:1010F000030A4FF00F090BF1040EB9E00CFA03F4E8
:10110000224070D04D68022D01D0122D0ED1DD0885
:1011100000EB8508D8F820505E07F70E09FA07F6AD
:10112000B5430E69BE402E43C8F8206007685E00D4
:1011300091F804800AFA06F508F00308AF4308FAAC
:1011400006F848EA0708C0F800804F68012F05D06C
:10115000022F03D0112F01D0122F13D1D0F8088005
:10116000CF6828EA0508B74047EA08078760D0F843
:1011700004800F7928EA0408C7F300179F4047EA64
:1011800008074760D1F804806FEA0807BF0706D157
:10119000C76AA743C8F3C0049C403C43C462C46808
:1011A000AC438D68B5402543C5604C68E4005ED50E
:1011B000344C256E45F001052566246E23F00305A9
:1011C00004F001040094304C2E19B4689D072F0FD1
:1011D00009FA07F5AC43B0F1904F05D02B4DA8426A
:1011E00004D101251CE042E0002519E0284DA84269
:1011F00001D1022514E0274DA84201D103250FE0BB
:10120000254DA84201D104250AE0244DA84201D170
:10121000052505E0224DA84201D1062500E007255D
:10122000BD402543B560DBF800405D464E68944301
:10123000F60300D514432C60DEF8004075464E6876
:101240009443B60300D514432C600D4D08352C682B
:101250004E689443F60200D514432C60084D0C35BB
:101260002C684E689443B60200D514432C605B1C76
:101270000A6832FA03F57FF441AF00F013B80000BA
:10128000000401400010024000000140000400483A
:1012900000080048000C00480010004800140048F6
:1012A0000018004818BCBDE8E08F0069084000D075
:1012B000012070470AB18161704781627047000068
:1012C00001480068704700006C00002090F8412041
:1012D000202A24D190F84020012A20D0012280F831
:1012E0004020242280F841200268136823F0010383
:1012F00013600268136823F4805313600268136854
:101300000B43136001680A6842F001020A60202161
:1013100080F84110002180F84010084670470220F4
:101320007047000070B5040004D094F84100002517
:1013300010B106E0012070BD84F84050204600F056
:101340004DF8242084F841002068016821F0010153
:1013500001606068216820F0706008612068816821
:1013600021F400418160E0680128A06807D040F4C2
:10137000044021688860E068022803D006E040F459
:101380000040F6E721684FF400604860206841683B
:10139000114A114341602068C16821F40041C160D5
:1013A000D4E904010843A16940EA01202168C8602A
:1013B000D4E907010843216808602068016841F00A
:1013C000010101606564202084F84100256384F8F0
:1013D0004250002070BD00000080000200B500688F
:1013E0000D4987B0884215D103201221CDE90001B3
:1013F0000121CDE902100420049069460748FFF757
:101400006FFE0748816D41F400018165806D00F435
:101410000000059007B000BD005C004000080048D7
:101420000010024002480168491C0160704700003A
:101430006C000020074810B5016841F4807101601C
:10144000032000F0AFF8002000F006F800F03EF8AE
:10145000002010BD0020024000B5014687B00022E8
:10146000192000F07FF8192000F070F81348016E81
:1014700041F400610166006E05A900F40060069069
:10148000684600F073FB00F0AFFB0D490D4AB0FB5E
:10149000F1F10D48491E0260416040F2E73200213F
:1014A000C0E90321816001F071FA10B1012007B099
:1014B00000BD054801F0A5FAF9E700000010024060
:1014C00040420F00002C0140742100201E4808B546
:1014D000016E41F001010166016E01F00101009110
:1014E000816D41F080518165806D00F080500090E9
:1014F000032000F057F8002211466FF00B0000F0B7
:1015000031F8002211466FF00A0000F02BF800229B
:1015100011466FF0090000F025F800221146501F17
:1015200000F020F800221146101F00F01BF80022E6
:101530000F21901E00F016F800220F21BDE8084090
:10154000501E00F00FB800000010024000F01F0213
:10155000012191404009800000F1E020C0F8001115
:1015600070470000F0B40E4B1B680C46C3F3022317
:10157000C3F10705042D00D90425191D072901D23F
:10158000002300E0DB1E012606FA05F1491E21407A
:1015900099409E40761E16403143F0BC02F040B8A0
:1015A0000CED00E0064900F0070208684FF6FF0363
:1015B000184040EA0220034A1043086070470000C8
:1015C0000CED00E00000FA051549B0F5007F086851
:1015D000C0F3412009D0022805D0086820F4C0607B
:1015E00040F480600860002070470128FBD0086844
:1015F00020F4C06040F4007008600A480A4A00689D
:10160000B0FBF2F03222504300E0401E10B14A69B4
:101610005205FAD448694005E5D50320704700001B
:10162000007000407000002040420F000248006837
:1016300000F4C06070470000007000402DE9F84FD2
:10164000044600270088E54D3E46010504F1200BC5
:101650001DD5606E78B1B0F5800F11D0B0F5000FD8
:1016600004D0B0F5400F22D001270FE0E86840F425
:101670008030E8601BE00021201D01F0E1FF03E065
:101680000021584602F090F8070010D03E4620880E
:10169000C00426D5A06EC0B1B0F1807F1AD0B0F1E1
:1016A000007F0DD0B0F1407F19D0012718E0D5F8A8
:1016B0008800616E20F440000843C5F88800E6E722
:1016C000E86840F48030E86009E00021201D01F066
:1016D000B7FF03E00021584602F066F80746F7B16D
:1016E0003E46206880033AD5A86D4FF00008C00040
:1016F00009D4A86D40F08050A865A86D4FF001088E
:1017000000F080500090DFF8D8A2DAF8001041F421
:101710008071CAF80010FFF7D3FD814610E0D5F8BC
:101720008800A16E20F040700843C5F88800D8E713
:10173000FFF7C6FDA0EB0900022801D9032705E049
:10174000DAF80000C005F3D5002F7CD04FEA070679
:10175000B8F1000F03D0A86D20F08050A865207864
:10176000C00707D0D5F88800A16B20F0030008431C
:10177000C5F888002078800707D5D5F88800E16B88
:1017800020F00C000843C5F888002078400707D5F2
:10179000D5F88800216C20F030000843C5F8880097
:1017A0002078000707D5D5F88800616C20F0C000CC
:1017B0000843C5F888002078C00607D5D5F888000A
:1017C000A16C20F440700843C5F88800207880069A
:1017D00007D5D5F88800E16C20F440600843C5F8CF
:1017E00088002088800507D5D5F88800E16D20F4B1
:1017F00040200843C5F888002088400507D5D5F863
:101800008800216E20F440100843C5F88800207835
:10181000400607D5D5F88800216D20F440500843D4
:10182000C5F888002078000607D5D5F88800616DD6
:1018300020F440400843C5F888002088C00509D539
:10184000D5F8880000E01CE0A16D20F4403008438A
:10185000C5F8880020884FF0006780044FF080684A
:101860004FD5D5F88800E16E20F040600843C5F8F8
:101870008800E06EB8423CD1E86840F48010E8602F
:101880003FE0D5F8900010F4407015D0D4F88410E3
:10189000814211D0D5F89000D5F8901020F4407016
:1018A00041F48031C5F89010D5F8901021F48031C2
:1018B000C5F89010C5F89000C00710D0FFF700FDE4
:1018C000074641F2883906E0FFF7FAFCC11B49459B
:1018D00001D903263CE7D5F890008007F4D5D5F868
:1018E0009000D4F8841020F440700843C5F89000AC
:1018F0002EE7404505D10121201D01F0A1FE00B1D8
:1019000006462068000317D5D5F88800216F20F01F
:1019100040600843C5F88800206FB84204D1E868E9
:1019200040F48010E86007E0404505D10121201D0A
:1019300001F086FE00B106462068400317D5D5F8B1
:101940008800616F20F040600843C5F88800606F30
:10195000B84204D1E86840F48010E86007E04045F0
:1019600005D10121201D01F06BFE00B10646208843
:1019700040041AD5D5F88800A16F20F040500843E4
:10198000C5F88800A06FB0F1805F03D0B0F1005FB0
:1019900005D00AE00221201D01F052FE03E00221E1
:1019A000584601F001FF00B106462088000407D523
:1019B000D5F88800E16F20F080400843C5F8880022
:1019C0002068C00307D555F8880FD4F8801020F0A0
:1019D000004008432860304600F004B80010024080
:1019E0000070004018BCBDE8E08F00002DE9F04712
:1019F000DFF8688105460E46D8F8000000F00700C1
:101A0000B0420CD2D8F8001021F007013143C8F8D9
:101A10000010D8F8000000F00700B04274D1287818
:101A20004F4C800705D5A068A96820F0F000084356
:101A3000A0602878C00756D06868022818D003280C
:101A400019D02168D0B1490500295DDAA16821F0DB
:101A500003010143A160FFF733FC6968074641F2C7
:101A60008830022912D003291ED0814649B335E0BF
:101A700021688903E8E721688901E5E78907E3E749
:101A8000FFF71EFCC11B494501D924E08146A0682F
:101A9000C0F381000228F3D125E000BFFFF710FC5E
:101AA000C11B494501D916E08146A068C0F38100F9
:101AB0000328F3D117E000BFFFF702FCC11B494523
:101AC00009D8A06810F00C0FF6D10CE0FFF7F8FB76
:101AD000C11B494502D90320BDE8F087A068C0F3C7
:101AE00081000128F2D1D8F80010404601F007012A
:101AF000B1420BD9016821F0070131430160006850
:101B000000F00700B04201D00120E5E72878400747
:101B100005D5A068E96820F4E0600843A060287853
:101B2000000706D5A068296920F4605040EAC1008A
:101B3000A06000F071F8A168F02292FAA2F201F020
:101B4000F001B2FA82F2D140064A515CC84006491F
:101B500008600020FFF780FC0020BDE70020024065
:101B60000010024088700008700000200F22026000
:101B70000C4A936803F003034360936803F0F00397
:101B80008360936803F4E063C36092684FF4E0639A
:101B900003EAD20202610448006800F0070008600E
:101BA0007047000000100240002002400148006819
:101BB00070470000700000200848094900688968E3
:101BC0004FF4E06292FAA2F201F4E061B2FA82F21A
:101BD000D140044A515CC8407047000070000020AA
:101BE00000100240C8700008084809490068896868
:101BF0004FF4605292FAA2F201F46051B2FA82F20A
:101C0000D140044A515CC840704700007000002079
:101C100000100240C870000870B53B490023184608
:101C20008A683A4C12F00C0F4FEA640514D08A68A7
:101C3000C2F38102032A04D1CA6802F00302012A16
:101C40000AD08A68C2F38102012A21D08A68C2F3CD
:101C50008102022A1ED01EE00A68120706D4D1F8BB
:101C600094204FF4706302F4706203E00A68F0237A
:101C700002F0F00293FAA3F3B3FA83F3DA40244BB1
:101C800053F822308A6812F00C0F04D1184602E093
:101C9000204600E028468A68C2F38102032A31D137
:101CA000C868CA6800F00300702696FAA6F602F02B
:101CB0007002B6FA86F6F240521C4FF4FE46022835
:101CC00004D0032805D0B3FBF2F004E0B4FBF2F03B
:101CD00001E0B5FBF2F0CA6896FAA6F302F4FE4200
:101CE000B3FA83F3DA40C96850434FF0C06292FA06
:101CF000A2F201F0C061B2FA82F2D140491C49005F
:101D0000B0FBF1F070BD0000001002400024F400B0
:101D1000987000082DE9F84304460078FE4DC0068F
:101D200063D5A86810F00C0F0AD0A06900282868B5
:101D300078D040F001002860FFF7C2FA06465AE06A
:101D40002868800702D5A06900286AD0216A28681F
:101D50004FF0F006000703D5286800F0F00003E01C
:101D6000D5F8940006EA1010814216D9084601F011
:101D7000B9FD002855D1286840F00800286028687F
:101D8000216A20F0F000084328606868E16920F4C7
:101D90007F4040EA0120686015E0286840F00800B4
:101DA00028602868216A20F0F000084328606868ED
:101DB000E16920F47F4040EA01206860206A01F078
:101DC00091FD0028D6D1FFF727FFA96896FAA6F261
:101DD00001F0F001B2FA82F2D140D04A515CC84021
:101DE000CF4908600020FFF737FB2BE0FFF768FAC8
:101DF000801B02287ED828688007F7D5286840F025
:101E0000080028602868216A20F0F0000843286054
:101E10006868E16920F47F4040EA0120686011E0D1
:101E200000E0B7E020F001002860FFF749FA06461D
:101E300005E000BFFFF744FA801B0228DAD82868C3
:101E40008007F7D42078C00748D0A868C0F3810085
:101E500002281DD0A868C0F38100032803D1E868D8
:101E6000C043800714D06068B0F5803F17D0B0F54C
:101E7000A02F286817D020F480302860286820F42C
:101E8000802028606068E0B1FFF71AFA064614E087
:101E90002868800322D5606800287BD01EE028686F
:101EA00040F48030EDE740F480202860F7E700BF81
:101EB000FFF706FA801B64289CD828688003F7D5B2
:101EC0000CE0FFF7FDF9064605E000BFFFF7F8F963
:101ED000801B64288ED828688003F7D42078800778
:101EE00048D5A8684FF0F857C0F38100012816D0F4
:101EF000A86800E0AFE0C0F38100032804D1E868DF
:101F000000F0030002280AD0E0680028286821D0E9
:101F100040F480702860FFF7D3F906460BE028688C
:101F200040050BD5E0680028B7D007E0FFF7C8F9F7
:101F3000801B0228C0D828684005F7D5686897FA42
:101F4000A7F22169B2FA82F220F0F85091400843DA
:101F500068600FE020F480702860FFF7B1F9064652
:101F600005E000BFFFF7ACF9801B022873D8286892
:101F70004005F7D42078000729D560690028D5F8F6
:101F8000940013D040F00100C5F89400FFF798F9D1
:101F9000064606E0FBE000BFFFF792F9801B02282F
:101FA00059D8D5F894008007F6D510E020F001004C
:101FB000C5F89400FFF784F9064604E0FFF780F9BE
:101FC000801B022847D8D5F894008007F6D42078E3
:101FD000400763D5A86D0026C00008D4A86D40F066
:101FE0008050A865A86D012600F0805000904D48F3
:101FF0000168C90511D40168804641F4807101600F
:10200000FFF75EF9074604E0FFF75AF9C01B022804
:1020100021D8D8F80000C005F6D5A068012815D051
:102020000528D5F8900017D020F00100C5F89000E1
:10203000D5F8900020F00400C5F89000A06841F2A7
:102040008838C8B1FFF73CF9074610E0D5F8900092
:1020500040F00100F0E75EE040F00400C5F89000B9
:10206000F4E700BFFFF72CF9C11B414553D8D5F861
:1020700090008007F6D50CE0FFF722F9074604E050
:10208000FFF71EF9C11B414579D8D5F890008007AC
:10209000F6D41EB1A86D20F08050A865A06AC8B320
:1020A000A968C1F38101032972D00228286820F0B1
:1020B0008070286011D02868000106D4286880004C
:1020C00003D4E86820F00300E860E8681649084097
:1020D000E860FFF7F5F8044654E0FFF7F1F806462C
:1020E00005E000BFFFF7ECF8801B022847D82868FE
:1020F0008001F7D4206BE16A000110380843616B5E
:10210000A26B0902120941EA42410843A18F074A22
:1021100049080DE039E032E0001002408870000804
:102120007000002000700040FFFFEEFE0000E0FFA6
:1021300002EB4151084394F840104908120102EBA8
:1021400041610843E860286840F080702860E868D2
:1021500040F08070E860FFF7B3F8044605E000BF88
:10216000FFF7AEF8001B022809D828688001F7D5D0
:102170000BE000BFFFF7A4F8001B022802D90320E0
:10218000BDE8F88328688001F4D40020F8E7FFE771
:102190000120F5E77047704710B504460068816874
:1021A000C9040CD5C068C00509D52046FFF7F3FF68
:1021B0002068C16801F0800161F4C071C1602068CD
:1021C000816889040CD5C068800509D52046FFF7D1
:1021D000E1FF2068C16801F0800161F42071C160F5
:1021E00003494FF480200860012084F8210010BDCD
:1021F0001404014010B500680B4641680D480140C9
:10220000080CD870C1F304245C7001F03F049C708A
:10221000C1F34231197052B901F0B4FBD87058784B
:1022200001F0B0FB5870987801F0ACFB987000207A
:1022300010BD00003FFFFF0010B50B460168896A22
:10224000596001680969C1F30E019960006801686D
:102250000E480140C1F305401870C1F306245C70BC
:1022600001F07F049C70402404EA1141D97052B9F6
:1022700001F088FB1870587801F084FB587098784A
:1022800001F080FB9870002010BD00007F7F7F0070
:1022900070B5040003D094F8210010B107E00120CC
:1022A00070BD002084F82000204600F045F8022090
:1022B00084F821002168CA204862216853204862BE
:1022C000204601F073FBFF210028206804D0416202
:1022D000042084F82100E2E78268164B1A408260ED
:1022E000226890686368A569184323692B431843E3
:1022F00090602268E068106120680269238942EAE0
:10230000034202612068C26822F08002C260206835
:10231000C26C22F00302C264E26960690243206871
:10232000C36C1A43C26420684162012084F8210012
:10233000002070BDBFFF8FFF10B5006809498842BB
:102340000FD1094850F8901F41F40041016000226C
:1023500005212920FFF706F9BDE810402920FFF7E5
:10236000F5B810BD00280040001002402DE9F05FD4
:10237000044690F820000B46012849D04FF0010A8E
:1023800084F820A0022084F82100206800268068BC
:102390004FEA4060DAB3002857DA187801F0F2FA11
:1023A00093F8200001F0EEFA98781978DA7840EA8C
:1023B00001405978090241EA0241084393F820108C
:1023C00040EA0165D8695F6805435869216805439B
:1023D00098690743CA204862216853204862586AB6
:1023E0004FF0FF08B0F5807F20684FF47A7B81685A
:1023F0002DD021F4007181602068C16801F0800156
:1024000061F42071C160FEF75BFF814655E002E098
:10241000022000F07BB8002800DBDE70187801F0A5
:10242000BAFA0204587801F0B6FA42EA0022987823
:1024300001F0B1FA0243D87842EA004293F8200052
:1024400001F0A9FA42EA0065BCE7DE70A8E721F4D2
:10245000807181602068C16801F0800161F4C07101
:10246000C160FEF72DFF814606E000BFFEF728FFA2
:10247000A0EB0900584517D82068C068C007F5D000
:102480002068C561206847642068816841F48071D4
:1024900081602068816841F480511FE0FEF710FFE1
:1024A000A0EB0900584508D92168C1F82480032011
:1024B00084F8210084F82060ABE72068C0688007BA
:1024C000ECD520680562206887642068816841F443
:1024D000007181602068816841F4005181600A4880
:1024E000016841F48021016007480830016841F427
:1024F000802101602168C1F8248084F821A084F83B
:102500002060002085E700000004014030BCBDE8E9
:10251000C09F00002DE9F047044690F820000B46CC
:10252000012826D04FF0010984F82090022084F879
:102530002100587802B301F025FA987801F022FAC8
:102540009878D97840EA014558781978000240EA2D
:10255000413005432168CA204862216853204862FF
:10256000204601F023FA0026FF274FF0040858BB4D
:1025700019E00220BDE8F087C10603D500F0EF00A6
:102580000A305870D87801F006FA0204587801F041
:1025900002FA42EA0022987801F0FDF90243187825
:1025A00042EA4035D6E7104805402068456020687B
:1025B000C16821F08001C1602068806880060BD46A
:1025C000204600F085F838B12068476284F8218001
:1025D00084F820600120CDE72068476284F82190CC
:1025E00084F820600020C5E73FFFFF002DE9F04799
:1025F000044690F820000B46012812D04FF0010944
:1026000084F82090022084F821002068002580684A
:102610004FEA406042B100281ADA187801F0B2F9A6
:1026200017E00220BDE8F087002800DBDD70187895
:1026300001F0B1F90204587801F0ADF942EA002244
:10264000987801F0A8F90243D87842EA00460AE0F7
:10265000DD709878197840EA01465878D9780002F8
:1026600040EA014006432168CA204862216853209D
:102670004862204601F09AF9FF274FF00408A8B9F4
:1026800012480640206806602068816821F4802195
:1026900081602068C16821F08001C1602068806885
:1026A00080060BD4204600F013F838B1206847624A
:1026B00084F8218084F820500120B3E72068476225
:1026C00084F8219084F820500020ABE77F7F7F00C2
:1026D00070B504460068C16821F0A001C160FEF732
:1026E000EFFD05464FF47A7607E000BFFEF7E8FD00
:1026F000401BB04201D9032070BD2068C06880062D
:10270000F4D5002070BD704738B5044600684268B3
:1027100081684B0605D4CB0703D0530601D5E16C85
:1027200004E08B0707D5130605D5216D01B02046BF
:10273000BDE83040084711F4B07F4AD0930648D531
:102740004B060AD594F85D30032B3FD0236E43F03F
:1027500004032366C368836800938B0609D5236E40
:1027600043F00103236683680093036823F040036A
:102770000360C80506D5206E40F00800206620687A
:1027800080680090206E002823D02068416821F0E6
:10279000E0014160012084F85D00900701D4D0077A
:1027A00018D02068416821F0030141600B4DA06DF5
:1027B00018B18563A06DFEF760FC606D002808D03D
:1027C0008563606DBDE83840FEF757BCC16880681E
:1027D000009038BD2046FFF796FF38BD253A000827
:1027E0002DE9F041040005D00025A56294F85D00B4
:1027F00018B107E00120BDE8F08184F85C50204664
:1028000000F044F8022384F85D302068016821F06C
:1028100040010160E0684FF4E066B04201D9002158
:1028200001E04FF48051B0F5706F02D0B04200D09B
:10283000A562276B012227B9B04201D9236300E0CA
:102840002263D4E901031843D4E90436334318431F
:10285000238B03F400731843E3691843236A184376
:10286000A36A184323681860636B606AA6691843FB
:102870000427E36807EA16463343184308432168F0
:102880004860256684F85D200020B4E7F0B5006854
:10289000144987B0884223D11348016E41F4805116
:1028A0000166006E022400F480500590602000252F
:1028B000032605278DE8F10069464FF09040FEF7AA
:1028C0000FFC20208DE8F10069460848FEF708FC5F
:1028D000002211462320FEF745FE2320FEF736FE98
:1028E00007B0F0BD00300140001002400004004875
:1028F0004FF0E0210428086903D020F004000861AB
:10290000704740F00400FAE710B5401EB0F1807F38
:1029100001D3012010BD4FF0E02460610F2160174A
:1029200000F07EFE0020A06107202061002010BD85
:102930007047704730B590F83820012A1FD0012227
:1029400080F838200268536894680E4DAA4202D07D
:102950000D4DAA4203D123F470054B682B4323F09D
:1029600070050B6889682B4324F080042143536071
:1029700002689160002180F83810084630BD0220BE
:1029800030BD0000002C01400034014010B50400AF
:1029900003D094F8390010B107E0012010BD0020E9
:1029A00084F83800204600F00DF8022084F8390041
:1029B000211D206801F0CAF8012084F839000020A8
:1029C00010BD000008B50068B0F1804F08D105487F
:1029D000816D41F001018165806D00F00100009082
:1029E00008BD000000100240022180F83910016883
:1029F0000A6842F001020A60012180F839100020C3
:102A000070470168CA6842F00102CA600068016844
:102A100041F00101016000207047022180F8391067
:102A200001680A6A41F211131A4207D10A6A9B101F
:102A30001A4203D10A6822F001020A60012180F8DB
:102A4000391000207047000070B5044690F8380037
:102A5000012817D0012584F83850022084F8390065
:102A600022689068364E304020F47F4090600868BD
:102A7000502839D00DDC20285BD005DC98B3102815
:102A800043D153E0022070BD302855D040283CD1BE
:102A900041E0602830D070280CD0B0F5805F03D0C2
:102AA000B0F5005F31D112E020688168244A7032AD
:102AB000114016E0CB68D1E90121206801F0A2F8AD
:102AC00021688868304040F0770088601DE0CB685E
:102AD000D1E90121206801F095F82068816841F46E
:102AE0008041816011E01EE0CA684968206801F0F9
:102AF00023FA5021206806E0CA684968206801F07E
:102B00002CFA6021206801F087F884F83950002001
:102B100084F8380070BDCA684968206801F00CFA72
:102B200040212068EFE700212068ECE710212068B1
:102B3000E9E720212068E6E730212068E3E700008C
:102B400088FFFEFF704770B50446006801694FF0CA
:102B50000005C943890715D4C168C943890711D441
:102B6000E91E0161012020762068806980072046E7
:102B700002D0FFF7E7FF04E000F0B0F8204600F0D5
:102B800071F9257620680169C943490717D4C168DE
:102B9000C943490713D46FF0040101610220207674
:102BA0002068806910F4407F204602D0FFF7CAFFFA
:102BB00004E000F093F8204600F054F925762068F0
:102BC0000169C943090716D4C168C943090712D46A
:102BD0006FF008010161042020762068C069800739
:102BE000204602D0FFF7AEFF04E000F077F8204661
:102BF00000F038F9257620680169C943C90617D461
:102C0000C168C943C90613D46FF0100101610820DF
:102C100020762068C06910F4407F204602D0FFF77C
:102C200091FF04E000F05AF8204600F01BF92576E9
:102C300020680169C943C90708D1C168C943C907E8
:102C400004D1891E0161204600F00EF92068016957
:102C5000C943090609D4C168C943090605D46FF000
:102C6000800101612046FFF763FE20680169C943C6
:102C7000490609D4C168C943490605D46FF040012B
:102C80000161204600F0FAF820680169C94389060D
:102C90000BD4C168C943890607D46FF020010161D4
:102CA0002046BDE87040FFF744BE70BD00B5006827
:102CB000084985B088420BD1801500900220002180
:102CC000CDE90101CDE9031069460348FEF708FA92
:102CD00005B000BD0008004000040048704770B512
:102CE000044690F838000D4601280ED0012684F8DD
:102CF0003860022084F839000C2A45D007DC5AB12C
:102D0000042A1BD0082A78D12CE0022070BD102A9A
:102D10004ED0142A71D15DE0206800F085FF206854
:102D2000816941F0080181612068816921F0040115
:102D30008161206881692A69114311E0206800F0EF
:102D4000C1FF2068816941F4006181612068816967
:102D500021F480618161206881692A6941EA022148
:102D600081614AE0206800F0F5FF2068C16941F008
:102D70000801C1612068C16921F00401C1612068B6
:102D8000C1692A69114311E0206801F02BF820681D
:102D9000C16941F40061C1612068C16921F48061A9
:102DA000C1612068C1692A6941EA0221C16124E048
:102DB000206801F051F82068416D41F0080141653B
:102DC0002068416D21F0040141652068416D2A6948
:102DD000114311E0206801F077F82068416D41F45B
:102DE000006141652068416D21F480614165206882
:102DF000416D2A6941EA0221416584F83960002069
:102E000084F8380070BD10B5040003D094F8390080
:102E100010B107E0012010BD002084F838002046E2
:102E200000F00CF8022084F83900211D206800F021
:102E30008DFE012084F83900002010BD08B500681F
:102E40000649884208D10648816D41F00401816538
:102E5000806D00F00400009008BD000000080040F4
:102E6000001002407047000000680349884201D109
:102E7000FEF7D8BA70470000002C01407047704739
:102E80007047000070B501680446C8690A6810F010
:102E90000F0508D1830606D5930604D52046BDE864
:102EA000704001F055B98B68002D66D003F0010524
:102EB00002F490762E4360D0C60707D0D60505D51C
:102EC00001260E62E16E41F00101E166810708D53D
:102ED000D90706D0266802213162E16E41F0040173
:102EE000E166410708D5D90706D023680421196295
:102EF000E16E41F00201E16601070AD502F020010E
:102F0000294306D0236808211962E16E41F00801C7
:102F1000E166E16E002929D0800604D5900602D52D
:102F2000204601F015F9E06E000703D420688068A0
:102F300040061CD5204601F0FDF82068816849064E
:102F400011D5816821F040018160606E58B133492C
:102F50008163606EFEF791F8002807D0606E816B88
:102F6000BDE8704008472046FFF78AFF70BD204645
:102F7000FFF786FF0020E06670BD8D68C6024FF047
:102F800020030CD56D020AD5D803086284F8693095
:102F900084F86A302046BDE87040FFF770BF050630
:102FA0002ED515062CD594F869002128E4D1B4F863
:102FB000520020B1A068B0F5805F0AD00BE008682D
:102FC00020F0800008602068016841F04001016045
:102FD00070BD206958B1E06C411CE1642168007843
:102FE000A1F8280034F8520F401E208070BDE06C1C
:102FF0000088C0F308000885E06C801CE064F1E7FD
:103000004006F3D55006F1D5086820F0400008606E
:1030100084F86930204600F062F970BD2141000853
:1030200010B5040003D094F8690010B107E0012046
:1030300010BD002084F86800204600F027F8242006
:1030400084F869002068016821F0010101602046D0
:1030500001F0BAF80128EBD0606A10B1204600F008
:10306000CDFF2068416821F490414160206881686B
:1030700021F02A0181602068016841F001010160AE
:103080002046BDE8104001F01DB80000F0B5264A0A
:10309000016826480224032587B0914222D1816D20
:1030A00041F480118165806D012600F48010059047
:1030B00090148DE851000827CDE9035769461C4854
:1030C000FEF70EF804208DE85100CDE9035769465C
:1030D0001848FEF705F8002205213520FEF742FAD0
:1030E00035201DE0144A91421CD1816D41F400311C
:1030F0008165806D694600F4003005900C20CDE9B3
:1031000000040020CDE90205072004904FF0904014
:10311000FDF7E6FF002205212620FEF723FA2620F0
:10312000FEF714FA07B0F0BD005000400010024056
:1031300000080048000C0048004400402DE9F84F0A
:10314000044690F86A009A4616460D46202866D135
:10315000EDB1E6B194F86800012860D0012084F850
:1031600068000027E766222084F86A004C34FEF7E6
:10317000A7F8A6818146E68154F8440C4FF48058A4
:10318000FF214C3C404508D1206918B10DE00120D9
:1031900000F047B840F2FF100DE07F2218B1B0F107
:1031A000805F05D009E0206950B9A4F85C1004E004
:1031B000206928B13F20A4F85C00B4F85C601DE0F1
:1031C000A4F85C20F9E700BFB4F85A00401EA4F848
:1031D0005A004B46002220212046CDF800A001F0E5
:1031E0003FF908B10320D3E7A068404501D1206929
:1031F00078B12068808C304005F8010BB4F85A0093
:103200000028E1D1202084F86A0084F8687000204A
:10321000BEE72068808C304025F8020BEEE70220E4
:10322000B6E718BCBDE8E08F70472DE9F8430446C7
:1032300090F869001F4616460D4620284DD1CDB1A5
:10324000C6B194F86800012847D0012084F86800CE
:103250004FF00008C4F86C80212084F869005034D5
:10326000FEF72EF824F8026B814624F852694FF4D9
:10327000805618E00120BDE8F883B4F85200401EE3
:10328000A4F852004B46002280212046009701F00E
:10329000E7F8A0B9A068B04201D1206988B115F85B
:1032A000010B21680885B4F852000028E5D14B468F
:1032B000002240212046009701F0D2F830B10320CF
:1032C000D9E735F8020BC0F30800EAE7202084F8BC
:1032D000690084F868800020CDE70220CBE77047C2
:1032E00030B5194889B017490024C0E9001484603A
:1032F0000421C460C0E9044101258461C0E9074597
:10330000C0E90945C0E90B5444638463C463FDF715
:1033100029FC00B1FEE706A90B480694FDF75EF90B
:1033200000B1FEE70D200090CDE901540394049410
:10333000694605480594FDF7CFF9002800D0FEE75F
:1033400009B030BD00000450482200202DE9F04FA4
:103350004B4887B0C16C41F00401C164C16C01F0FD
:1033600004010591C16C41F08001C164C16C01F0A0
:1033700080010591C16C41F00101C164C16C01F093
:1033800001010591C16C41F00201C164C16C01F001
:1033900002010591C16C41F00801C164C06C0024B8
:1033A00000F0080005904FF4005000903548CDE93A
:1033B0000104DFF8D4B069465846FDF791FE40F6A7
:1033C000244701250097CDE90154694658460394E6
:1033D000FDF786FE4BF24D08CDF80080CDE9015493
:1033E000DFF8A8A0694650460394FDF779FE284E01
:1033F000A802CDE90006694602945046FDF770FE2A
:103400004FF4E070CDE9000602200290694658466C
:10341000FDF766FE4FF40840CDE900064FF09049F5
:10342000694602944846FDF75BFE2E030096CDE9FF
:103430000154694648460394FDF752FE002239467E
:103440005846FDF737FF002241465046FDF732FF50
:10345000002231464846FDF72DFF002205211720A6
:10346000FEF780F81720FEF771F8002205212820CA
:10347000FEF778F82820FEF769F807B000F00AB8E0
:10348000001002400000121000080048000400482C
:103490000000111030BCBDE8C08F00000E4810B510
:1034A0000C4901600D49416000210122C0E902126E
:1034B000016141618161C1610162FDF733FF00B1CA
:1034C000FEE700210448FDF701FF002800D0FEE7D9
:1034D00010BD0000005C0040B0220020EC9C901069
:1034E0000A4810B50849016000217F22C0E9011295
:1034F000FF22C0E9032141618161C161FEF7C8FE7D
:10350000002800D0FEE710BD00280040FC2200206B
:10351000104810B50E4901604FF4827141600021DE
:103520004FF44072C0E902124FF400720161C0E929
:103530000512C161016207224162C0E90A120163FA
:1035400008214163FFF74CF9002800D0FEE710BDC9
:10355000003001402023002010B514488AB01249E1
:103560000024C0E900148460C4600461FFF74BFCD0
:1035700000B1FEE7079407A90C480994FFF7DAF9B0
:1035800000B1FEE76020CDE90004029408226946FC
:1035900006480494FFF7A3FB00B1FEE70348FFF7DA
:1035A00085FB0AB010BD000000080040C0230020C9
:1035B0000C4810B50A4901604FF4165141600021D2
:1035C00081600C22C160C0E904128161C1610162A5
:1035D0004162FFF725FD002800D0FEE710BD000086
:1035E00000500040FC2300200C4810B50A4901603F
:1035F0004FF4E1314160002181600C22C160C0E9DB
:1036000004128161C16101624162FFF709FD002876
:1036100000D0FEE710BD0000004400406C240020F4
:103620000907090E002806DA00F00F0000F1E0207B
:1036300080F8141D704700F1E02080F800147047F6
:103640002DE9F041544C05460F46E06800268207FC
:1036500028684FF0700112D0E26802F00302824243
:103660001BD1D0B1E06891FAA1F100F07000B1FA7D
:1036700081F1C8406968401C88420ED122E00128CF
:1036800004D0022805D0032807D108E02268920759
:1036900001E022685205002A07DB012678E0226853
:1036A000920302D422685203F5E7E26891FAA1F18D
:1036B00022F073036A68B1FA81F1521E8A40134303
:1036C0000343E360206820F080602060FDF7F8FD90
:1036D000804605E0FDF7F4FDA0EB080002284ED877
:1036E00020680001F6D44FF4FE4017B390FAA0F022
:1036F000A968012FB0FA80F04FF0FF3201FA00F113
:103700002AD0686902EB50004FF0C06292FAA2F230
:10371000B2FA82F2904001432069204A10400143EE
:103720002161206840F080602060FDF7C9FD0746F8
:1037300027E090FAA0F0A968B0FA80F08140E8682C
:103740004FF4003292FAA2F20009B2FA82F29040EB
:1037500001432069124AE1E7286902EB50004FF467
:10376000C00292FAA2F2B2FA82F2904001432069BA
:103770000C4AD3E7FDF7A4FDC01B022801D903269C
:1037800006E020680001F5D52069A9690843206199
:103790003046BDE8F081000000100240FF80FFF9D4
:1037A000FF80FDFFFF809FFF2DE9F0414A4C064658
:1037B0008846E0680025810730684FF0700312D01A
:1037C000E16801F0030181421BD1D0B1E06893FAB6
:1037D000A3F100F07000B1FA81F1C8407168401C9B
:1037E00088420ED122E0012804D0022805D0032807
:1037F00007D108E02168890701E02168490500290F
:1038000007DB012564E02168890302D421684903AC
:10381000F5E7E16893FAA3F321F073027168B3FA54
:1038200083F3491E99400A430243E260206820F076
:1038300080502060FDF744FD074604E0FDF740FDA1
:10384000C01B02283BD820688000F7D44FF4FE410B
:1038500091FAA1F1B068B8F1000FB1FA81F100FA64
:1038600001F019D031694FF0FF3202EB51014FF0F6
:10387000C06292FAA2F2B2FA82F291400843616900
:10388000164A114008436061206840F08050206073
:10389000FDF716FD074614E0F1684FF4003292FA86
:1038A000A2F20909B2FA82F29140084361690C4A16
:1038B000E7E700BFFDF704FDC01B022801D903257F
:1038C00006E020688000F5D5606971690843606191
:1038D0002846BDE8F081000000100240FF80FFF99B
:1038E000FF80FDFFF8B51C4D06460024A86DC00002
:1038F00002D5FDF79BFE0DE0A86D40F08050A86555
:10390000A86D00F080500090FDF790FEA96D21F0A9
:103910008051A965B0F5007F04D0802E07D94FF003
:1039200003040AE0802E08D9A02E01D804E001D1BA
:10393000022402E0702E00D101240848016821F021
:10394000070121430160006800F00700A04201D098
:103950000120F8BD0020F8BD001002400020024008
:1039600008B5002000900548FEF716FC0448002327
:103970001A466946006802F0A1FF08BDFC2200203B
:103980008C000020010901EB810100F00F0000EB29
:103990004100C0B27047002102E00A38C0B2491CA1
:1039A0000A28FAD2090740EA1160704770B5044648
:1039B0000068C168490614D44FF0FF31C160FDF7BB
:1039C0007FFC05464FF47A7607E000BFFDF778FCF0
:1039D000401BB04201D9032070BD2068C06840067A
:1039E000F4D5002070BD000030B40024094B01253F
:1039F0003AB1012A0BD183E8320030BC0549FDF70A
:103A00006FBBC3E900150321C3E90241F5E730BCF0
:103A100070470000DC2400200148FEF775BE00005E
:103A20002023002010B5806A0021A0F84610C1872D
:103A3000FEF769FE10BD012001F03CFBFBE701F041
:103A400045BB00002DE9F041B8B04FF001084FF43C
:103A50008076022406202C94CDE924861021229021
:103A60002691CDE92D4807270A20CDE930742F9003
:103A700022A83294FEF74EF900B1FEE70F20002590
:103A800033900320CDE934053695042133A83795CA
:103A9000FDF7ACFF00B1FEE717480F9500904FF01F
:103AA000805012951E902196082003901695CDE91E
:103AB00001484005CDE90640CDE904746846FDF7AC
:103AC000BDFD00B1FEE74FF40070FDF77DFD00B1D4
:103AD000FEE7FEF76BF84FF47A71B0FBF1F0FEF7FA
:103AE00013FF0420FEF704FF00220F21501EFDF7F4
:103AF00039FD38B0BDE8F081124102000D4801687F
:103B000041F4700101600C48016841F0010101605D
:103B1000002181600268094B1A4002608214C26071
:103B2000026822F48022026081610249C003803968
:103B30000860704788ED00E000100240FFFFF6EAE1
:103B40000148FFF700B80000742100202DE9F0477C
:103B50000268244B244D254E254F264C4FF0804AB9
:103B6000984209D0504507D0A84205D0B04203D0B2
:103B7000B84201D0A04204D122F0700C4A6842EA57
:103B80000C02DFF874C0DFF87480DFF8749098429C
:103B90000FD050450DD0A8420BD0B04209D0B8424A
:103BA00007D0A04205D0604503D0404501D048452C
:103BB00003D122F44075CA682A4302608A68C2624F
:103BC0000A688262984207D0A04205D0604503D0BF
:103BD000404501D0484501D1096901630121416196
:103BE000BDE8F087002C01400004004000080040C0
:103BF000000C0040003401400040014000440140FE
:103C00000048014010B5846842EA032224F47F444E
:103C10000A432243826010BD826822F070020A4388
:103C200042F00701816070472DE9F043026A22F0FB
:103C300001020262056A436882691C4C25F0020594
:103C400022400C6822F0030214438A68194E2A436A
:103C5000174D194FDFF864C0DFF86490A84207D011
:103C6000B04205D0B84203D0604501D0484506D1E6
:103C700022F00808CA6842EA080222F00402A842B8
:103C800007D0B04205D0B84203D0604501D04845C6
:103C900005D14D6923F440731D438B692B43436069
:103CA0008461496841630262BDE8F0838FFFFEFFD3
:103CB000002C01400034014000400140004401401C
:103CC00000480140F0B5026A22F010020262056A63
:103CD00042688369194C1B4E23400C6823F44073DF
:103CE00043EA042425F020038D6843EA0513144DAC
:103CF000A84201D0B04206D1CF6823F0800343EA46
:103D0000071323F04003A8420AD0B04208D00E4D5A
:103D1000A84205D00D4DA84202D00D4DA84207D1B2
:103D20004D6922F4406242EA85028D6942EA8502C9
:103D300042608461496881630362F0BDFF8FFFFECA
:103D4000002C01400034014000400140004401408B
:103D500000480140F0B5026A22F480720262056AEE
:103D60004368C269194C1B4E22400C6822F00302C2
:103D7000144325F400728D6842EA0522144DA842CE
:103D800001D0B04206D1CF6822F4006242EA072295
:103D900022F48062A8420AD0B04208D00E4DA84258
:103DA00005D00E4DA84202D00D4DA84207D14D6955
:103DB00023F4405343EA05138D6943EA0513436036
:103DC000C4614968C1630262F0BD00008FFFFEFF5D
:103DD000002C0140003401400040014000440140FB
:103DE0000048014030B5026A22F480520262046A3F
:103DF0004268C369124D24F400542B400D6823F42B
:103E0000407343EA05238D6844EA05340D4DA8420A
:103E10000BD00D4DA84208D00C4DA84205D00C4D3A
:103E2000A84202D00B4DA84204D14D6922F4804231
:103E300042EA85124260C36149680164046230BD90
:103E4000FF8FFFFE002C0140003401400040014084
:103E5000004401400048014030B5026A22F480323B
:103E60000262046A4268436D114D2B400D681D4388
:103E700024F400330C8943EA04430E4CA0420BD0D7
:103E80000D4CA04208D00D4CA04205D00C4CA042D5
:103E900002D00C4CA04204D14C6922F4803242EA98
:103EA00004224260456549688165036230BD0000B7
:103EB0008FFFFEFF002C0140003401400040014014
:103EC000004401400048014030B5026A22F48012EB
:103ED0000262046A4268436D114D24F400142B40C1
:103EE0000D6843EA05230D8944EA05540D4DA842A7
:103EF0000BD00D4DA84208D00C4DA84205D00C4D5A
:103F0000A84202D00B4DA84204D14D6922F4802270
:103F100042EA8522426043654968C165046230BD5A
:103F2000FF8FFFFE002C01400034014000400140A3
:103F3000004401400048014010B5036A046A24F0BF
:103F400001040462846924F0F00444EA021423F0BA
:103F50000A020A438461026210BD10B5036A23F0AD
:103F6000100303628369046A23F4704343EA023254
:103F700024F0A00343EA01118261016210BD000038
:103F800038B51A4D0020ADF800002868016821F00E
:103F9000200101602868808C154CC0B27E282070FA
:103FA0001AD164230222611C2846FFF7C7F8617802
:103FB000A078012202EB0121084482B2ADF8002072
:103FC0006423E11C2846FFF7B9F80B480023094A8F
:103FD0006946006802F072FC0448FEF753FF286847
:103FE000016841F02001016038BD0000FC23002081
:103FF000E221002074000020A000002090F824108E
:10400000C90706D001684A68836A22F400321A435D
:104010004A6090F82410890706D501684A68C36A87
:1040200022F480321A434A6090F82410490706D5DA
:1040300001684A68036B22F480221A434A6090F8B0
:104040002410090706D501684A68436B22F4004230
:104050001A434A6090F82410C90606D501688A6898
:10406000836B22F480521A438A6090F824108906E8
:1040700006D501688A68C36B22F400521A438A602D
:1040800090F82410490611D501684A68036C22F49F
:1040900080121A434A60016CB1F5801F06D1016895
:1040A0004A68436C22F4C0021A434A6090F8241014
:1040B000090606D501684A68806C22F40022024392
:1040C0004A607047F8B500260446C666FDF7F8F862
:1040D0000546206800686FF07E47000708D52B462C
:1040E00000224FF400112046009700F0B9F960B9A2
:1040F0002068006840070AD52B4600224FF4800153
:104100002046009700F0ACF908B10320F8BD20204C
:1041100084F8690084F86A0084F868600020F8BDBB
:1041200010B5806A0021A0F85A10A0F85210FEF7CE
:10413000A7FE10BD01680A6822F490720A60016847
:104140008A6822F001028A60202180F86A10704794
:1041500010B5B0F85C2090F86A300168222B05D0C9
:10416000088B40F008000883022010BD898C83680A
:10417000B3F5805F01D103696BB11140426D531CEF
:1041800043651170B0F85A10491E0904090CA0F8D3
:104190005A1007D015E0436D11401980416D891CFC
:1041A0004165EFE701680A6822F490720A600168CD
:1041B0008A6822F001028A60202180F86A10FFF7E5
:1041C00033F8002010BD00002DE9F04104460168DD
:1041D00080682669D4F81CC0304366691025002227
:1041E00046EA0C063043924B0E681746DFF844C28D
:1041F00006EA0C0606430E6020684168E66821F472
:104200004051314341602168A069994201D0266A3A
:1042100030438E6826F4306606438E60864E2168F1
:104220008648B1420DD1D0F8880010F0030006D0C6
:1042300001285AD0022856D0032859D157E0012529
:1042400056E07F4EB1420BD1D0F8880010F00C0040
:1042500047D0042849D0082845D00C2848D146E04A
:10426000784EB1420BD1D0F8880010F0300038D031
:1042700010283AD0202836D0302839D137E0724E75
:10428000B1420BD1D0F8880010F0C00029D04028EE
:104290002BD0802827D0C0282AD128E06B4EB142ED
:1042A0000ED1D0F8880010F440701AD0B0F5807F9D
:1042B0001BD0B0F5007F16D0B0F5407F18D116E0C6
:1042C000994215D1D0F8880010F4406009D0B0F5BB
:1042D000806F0AD0B0F5006F05D0B0F5406F07D100
:1042E00005E0002504E0022502E0042500E00825A1
:1042F000574E4FF40040994244D135B1022D07D0BA
:10430000042D07D0082D10D107E0FDF755FC03E080
:10431000304602E0FDF780FC98B3626802EB420190
:10432000814202D8B0EB023F01D901277CE0002690
:104330006DB1022D0ED0042D13D0082D1AD00127F7
:10434000444AA0F540719142EFD821686BE0FDF737
:1043500033FC08E0500840490FE00023FBF79EFFC4
:10436000EEE7FDF759FC6268010E030250081818C9
:104370007141F2E750084FF40001401846F1000186
:10438000EBE751E0E369834227D1092D1ED2DFE834
:1043900005F00508131D161D1D1D1900FDF70CFC69
:1043A00001E0FDF721FC4100D4F8040001EB5001CD
:1043B000B1FBF0F082B20AE028496068F6E7FDF749
:1043C0002BFCF0E74FF480316068EFE7012722F023
:1043D0000F00C2F342010843B7E7092DA5D2DFE879
:1043E00005F006090C05120505051C009DE7FDF703
:1043F000E3FB0AE0FDF7F8FB07E0606806EB50021C
:10440000B2FBF0F00EE0FDF707FC0146606801EB3F
:104410005001B1FBF0F080B297E7626800EB520008
:10442000B0FBF2F080B2C8603846BDE8F081000011
:1044300000800040F369FFEF0038014000100240A7
:104440000044004000480040004C00400050004044
:104450000024F400FFFC0F00000024F40048E801F1
:104460002DE9F041984617460E460446069D1DE08C
:10447000681C1BD02DB1FCF723FFA0EB0800A8425D
:1044800014D92068016821F4D07101602068816826
:1044900021F001018160202084F8690084F86A001D
:1044A000002084F868000320BDE8F0812068C0691E
:1044B00036EA000004D00020B842D9D00020F3E74B
:1044C0000120F9E770B5144D2868818C134C2170D8
:1044D000016821F0200101602078802812D1642336
:1044E0000222611C2846FEF729FEA2786423E11C03
:1044F0002846FEF723FE0B480023094A611C00688A
:1045000002F0DCF90448FEF7BDFC2868016841F0C0
:104510002001016070BD00006C240020B02100204B
:1045200074000020880000200FB4054B10B503A9CB
:10453000044A029800F018F810BC5DF814FB000063
:10454000F54A0008D800002002E008C8121F08C180
:10455000002AFAD170477047002001E001C1121F04
:10456000002AFBD1704700002DE9FF4F89B09B4620
:104570000446002506E025280BD05A460B999047A3
:10458000641C6D1C20780028F5D10DB0284600F081
:1045900095B80027B8460122474900E0074314F8C0
:1045A000013F203B02FA03F00842F7D120782E2881
:1045B00019D114F8010F47F004072A280ED06FF024
:1045C0002F022078A0F1300109290CD808EB8801CE
:1045D00002EB410100EB0108641CF2E70A98641C3D
:1045E00050F8048B0A9020780028CED0642808D098
:1045F000692806D075281ED05A460B9990476D1C25
:1046000058E00A994FF00A0901C90A91002802DA14
:1046100040422D2102E0390504D52B218DF82010D0
:10462000012103E0F90704D02021F7E78A4608AE0C
:104630000DE00021FAE70A994FF00A0901C90A9131
:10464000F7E74946FBF782FE303106F8011D0028E6
:10465000F7D1ADEB060000F12009780701D44FF047
:104660000108C84502DDA8EB090000E000208046F3
:10467000002706E008A85A46C05D0B9990476D1CBC
:104680007F1C5745F6DB04E030205A460B999047D3
:104690006D1CB8F10001A8F10108F5DC05E016F881
:1046A000010B5A460B9990476D1CB9F10001A9F115
:1046B0000109F4DC641C65E70928010030BCBDE891
:1046C000C08F000008B50020DFF8D48042F21076D9
:1046D000344C8DF800004FF47A79751000234A4667
:1046E0006946D8F8000001F041FF0028F6D04020CC
:1046F00001F0D8FA304601F02BFC402001F060F9BF
:10470000074600232A461946206801F02FFF48B1CA
:10471000394625A0FFF708FF00231A4619462068EE
:1047200002F01CF84FF48077384601F0BBFA3046AF
:1047300001F00EFC384601F043F9074600232A46F3
:104740001946206801F012FF48B139461FA0FFF753
:10475000EBFE00231A461946206801F0FFFF802077
:1047600001F0A0FA304601F0F3FB802001F028F9B7
:10477000074600232A461946206801F0F7FE60B17B
:1047800039461CA0FFF7D0FE24A0FFF7CDFE002382
:104790001A461946206801F0E1FF00F0BDFC9DE7D4
:1047A000940000208400002047617264656E2066DA
:1047B0006C6F77206D657465722072656164696ED7
:1047C00067203D2025640D0A0000000041717561DD
:1047D00020746F7765727320666C6F77206D6574D7
:1047E00065722072656164696E67203D2025640DE5
:1047F0000A00000041717561206669736874616E1A
:104800006B20666C6F77206D6574657220726561D0
:1048100064696E67203D2025640D0A00526561645D
:10482000696E67206173206F6620000030B50DF15E
:104830000C0C9CE83400012D30D0002D2DD10D78CA
:104840003B2D2AD93C3D0D700178491CC9B201703D
:10485000172922D9183901701078401CC0B2107085
:1048600001281AD0032818D0052816D0072814D0FC
:10487000082812D00A2810D00C280ED01E280CD9D7
:104880001E3810701878401CC0B218700C2804D95B
:104890000C3818702078401C207030BD0D78592DD0
:1048A000FBD9603D0D700178491CC9B20170232904
:1048B000F3D9243901701078401CC0B2107001285F
:1048C000EBD00328E9D00528E7D00728E5D0082851
:1048D000E3D01028E1D01228DFD03028DDD93038DD
:1048E00010701878401CC0B218701228D5D9123830
:1048F000CFE7000088B000204F4F504D504C8DF84E
:1049000018004FF47A7841F288360023424606A90F
:10491000386801F02BFE0028F7D06878102812D0F4
:1049200011281CD013284FF0000320683246194686
:104930006ED001F01BFE002878D0697841A000BF3E
:10494000FFF7F2FD3DE0FEF7CBFD002332461946AE
:10495000206801F00BFE002868D041A02FE0002362
:1049600032461946206801F001FE40B141A0FFF730
:10497000DBFD00231A461946206801F0EFFEE878B7
:104980008DF8160028798DF8150068798DF81700D4
:10499000A8798DF80000E8798DF80100287A8DF863
:1049A0000200002269463A48FDF720FE80B100234C
:1049B00032461946206801F0D9FDB0B908E0FFF78A
:1049C000B3FD00231A461946206801F0C7FE2DE00A
:1049D000002205A92E48FDF79DFD40B10023324677
:1049E0001946206801F0C2FD08B12AA0E7E70120BE
:1049F00001F0F0F800F090FB0023324619462068E1
:104A000001F0B4FD90B1012100E001E024A097E79E
:104A100001F0ACFD40B130A0FFF786FD00231A463F
:104A20001946206801F09AFE00F076FB3221034817
:104A3000FBF781FC69E7000088000020B02100201E
:104A400084000020496E76616C696420636F6D6D2F
:104A5000616E6420686561646572203D2025640094
:104A600052544320496E697469616C697A656421A6
:104A70000D0A00005365742052544320636F6D6D1E
:104A8000616E642072656365697665640D0A000075
:104A9000FC2200204661696C65642E2E2E0D0A00F2
:104AA000525443207365742074696D652073756377
:104AB0006365737366756C2120416C61726D207340
:104AC0006574206576657279202564206D696E7540
:104AD0007465730D0A0000004765742054696D65A4
:104AE00020636F6D6D616E642072656365697665C4
:104AF000640D0A0038B50446002000908DF800408F
:104B00004FF47A73012269460248FEF78EFB204675
:104B100038BD00006C240020B4B00020DFF8FC9009
:104B2000DFF8FC808DF8C8004FF47A7A00235246F3
:104B300032A9D9F8000001F019FD0028F6D058225A
:104B4000384918A8FBF7DEFB364CA06D2E90E06DBF
:104B50002F90206E616E0825CDE930010620CDE949
:104B6000160558221CA96846FBF7CCFB0DF1600C1A
:104B70009CE80F0000F080FF07465822214618A845
:104B8000FBF7C0FBA06D2E90E06D2F90206E616E44
:104B90005822CDE930010D20CDE916051CA9684643
:104BA000FBF7B0FB0DF1600C9CE80F0000F064FF18
:104BB00006465822214618A8FBF7A4FBA06D2E90AC
:104BC000E06D2F90206E616E5822CDE930010C20EF
:104BD000CDE916051CA96846FBF794FB0DF1600CA6
:104BE0009CE80F0000F048FF0546002341F28832A0
:104BF00019464446D8F8000001F0B8FC002895D0CA
:104C00002B46324639460848FFF78EFC00231A46E9
:104C10001946206801F0A2FD88E700009C000020F2
:104C20008400002048220020F070000810B5012008
:104C300000F0D0FF0022BDE810400421014800F040
:104C40005DBD0000000800488EB0FCF7F3FBFEF7E6
:104C5000F9FEFEF77BFBFEF7C7FC8C484FF0804166
:104C60000024C0E900146021C0E902410461FDF79D
:104C70008DFE00B1FEE74FF48050099009A98348EA
:104C8000FDF7E2FE00B1FEE7009469467F4802941A
:104C9000FDF750FE00B1FEE7FEF73AFCFEF75CFCC4
:104CA000FEF786FCFEF7FAFBFEF71AFBFEF718FC90
:104CB0007648E8300068016841F020010160012277
:104CC00006212620FCF74EFC2620FCF73FFC6F480F
:104CD00078300068016841F020010160012206215E
:104CE0003520FCF73FFC3520FCF730FC0122052184
:104CF0002920FCF737FC2920FCF728FC0122082199
:104D00001720FCF72FFC1720FCF720FC012001F0F6
:104D1000D5FB5F4D14225F49A86004A8FBF7F2FAA7
:104D2000002104A800F0DCF9E864012605F1300058
:104D30000096CDE901042B46802257A15A480394DE
:104D400001F04EFE686005F12C000096CDE90104EB
:104D50002B46802255A15848039401F041FE68601B
:104D600005F134000096CDE901042B46802253A1C1
:104D70005648039401F034FE686005F1380000964F
:104D8000CDE901042B46802251A15648039401F03D
:104D900027FE686005F13C000096CDE901042B4632
:104DA000802251A15448039401F01AFE686005F175
:104DB00040000096CDE901042B4680224FA15448C3
:104DC000039401F00DFE686005F144000096CDE902
:104DD00001042B4680224FA15448039401F000FEA9
:104DE000686005F148000096CDE901042B46B20247
:104DF0004FA15348039401F0F3FD012168600022A4
:104E0000084601F080FB0121E8600022084601F01D
:104E10007AFB012128610022084601F074FB012180
:104E200068610022084601F06EFB0121A8610022A2
:104E3000084601F068FB0121E8610022084601F004
:104E400062FB012168620022084601F05CFB01213F
:104E500028620022084601F056FBA8622E70FFF778
:104E6000E5FE00234FF47A721946A86801F07EFB34
:104E700040B134A0FFF758FB00231A461946A86832
:104E800001F06CFC00F01DF9FEE700008423002017
:104E90007C000020D07000086D616E6167655F67FF
:104EA000617264656E000000694F00086465627598
:104EB000677461736B000000F548000877617465E2
:104EC000725F67617264656E000000001162000825
:104ED000636865636B5F666C6F775F6D6574657241
:104EE00073000000C5460008726561645F74656DFB
:104EF000705F68756D696400D55A000872656164F9
:104F00005F736F696C5F6D6F6973747572650000B4
:104F1000194B0008726561645F67617264656E5F5A
:104F200074616E6B5F6C6576656C0000E959000812
:104F3000786265655F72785F7461736B0000000072
:104F4000156F00085374617274696E67204F5320A7
:104F50004B65726E656C2E2E0D0A00000146002016
:104F6000842900D0C81C7047314D88B04FF47A7442
:104F70000023224605A9286801F0F8FA0028F7D096
:104F800000F0CAF8002269462A48FDF755F90022C8
:104F900006A92848FDF72EF99DF80000092812D02F
:104FA000112810D001280ED09DF80100A0B1C0B288
:104FB0000A2811D014280FD01E280DD028280BD075
:104FC000322809D00FE09DF801000028EFD100231E
:104FD000224605A9184803E018480023224605A9DF
:104FE000006801F0BBFB9DF8010048B10A2807D01A
:104FF000142805D01E2803D0282801D0322813D128
:105000000F4E0023224605A9306801F0A7FB0023BC
:10501000224605A9306801F0A1FB0A480023224678
:1050200005A9006801F09AFB012000F0D3FD9FE77D
:105030008C000020FC220020900000209400002022
:1050400098000020A40000202DE9F04190460D4674
:105050001E460746002489B20122FCF72BF9642082
:1050600000F036FEA9B200223846FCF723F90E48BC
:105070000E490068B0FBF1F000F02AFE0C4D09E08B
:1050800028680069C00700D0641C642C02D301208A
:10509000BDE8F081B1B24046FCF707F90028EFD037
:1050A00000F03EFE2046F3E77000002040420F0073
:1050B0008423002010B500B9012000F049FF002032
:1050C00010BD10B501F036F8002010BD10B501F08C
:1050D00069FD012803D0BDE8104001F0D9B910BD29
:1050E00030B5044685B00D46B0F90800FFF736FF2D
:1050F000002104AA0090CDE901210391208A2B46CA
:1051000082B2D4E9001001F06BFC012802D000202B
:1051100005B030BD0498FBE710B586B000226946A3
:105120001548FDF789F8002205A91348FDF762F834
:10513000124C00234FF47A721946206801F016FAD7
:10514000002817D09DF802309DF801209DF800102E
:105150000BA0FFF7E9F99DF817309DF816209DF890
:1051600015100DA0FFF7E0F900231A461946206834
:1051700001F0F4FA06B010BDFC22002084000020EB
:1051800054494D45206973203D2025643A25643AF1
:1051900025642020200000004441544520697320EC
:1051A0003D2025642F25642F2564200D0A00000072
:1051B00070B50B4C054620684560E0682168854263
:1051C00005D2606BBDE87040091D00F0CFBD206BBB
:1051D000091D00F0CBFDA06A854200D2A56270BD1A
:1051E0001C00002010B500F0E5FD124C2068A0B9AD
:1051F000114800F0ADFD1048143000F0A9FD0E4834
:10520000A0601430E06000220C210A2001F07BF93C
:10521000206030B109A100F069FEBDE8104000F047
:10522000E9BD502080F31188BFF34F8FBFF36F8F1C
:10523000FEE700000C000020DC000020546D7251DD
:105240000000000070B5124E124C1AE000F0AAFFE8
:105250003068D0B101F0A6FD00F0ACFDF068C56883
:10526000281D00F063FDA068401EA0606068401E1D
:10527000606000F0BFFD286B00F0D0FD284600F014
:10528000CDFD60680028E1D170BD01F08BFDF8E72D
:105290000C0200201C00002030B4026C0B46002AD7
:1052A0000BD0C1681144C1604468A14201D30168B8
:1052B000C16030BC1846FBF725B830BC704770B5EC
:1052C0001646026C0446002582B1C6B1E068FBF7C1
:1052D00019F8E168206C091AE1602268914202D253
:1052E0006168081AE060022E16D01AE02068C0B982
:1052F000606801F0D1FC05460020606011E0A06804
:10530000FBF700F8216CA0680844A060616888423F
:1053100007D32068A06004E0A06B10B1A06B401E12
:10532000A063A06B401CA063284670BD10484FF4DA
:10533000FA51420706D0C01D0D4920F00700411A5E
:10534000C1F5FA510B4A00230144C2E900030839B0
:10535000103A21F0070111604B600B600B1AC0E995
:10536000001393604FF000405360D060704700001E
:105370003402002064000020074C4FF08056074D97
:10538000FFF760FF20680128FAD92E60BFF34F8F26
:10539000BFF36F8FF4E700004401002004ED00E04C
:1053A00030B5114900E011460A688242FBD34B68D0
:1053B0005C18844203D1406818444860084643683A
:1053C0001C18944209D1084C103C2468A24209D010
:1053D00052681A4442600A6812680260814200D032
:1053E000086030BD0460F9E76400002070B5002457
:1053F00041600B4D0061914206D8D11A82699142F9
:1054000006D2011DE86807E09A4203D2994201D30F
:10541000012403E0011DA86800F0A8FC204670BD2F
:105420000C00002030B587B02C4D4CE004980028CB
:1054300049DB069C606910B1201D00F077FC02A8D2
:1054400000F0BAF8024604980A283CD2DFE800F0DF
:105450000505053B273805053B270598A169034647
:1054600001442046FFF7C2FF01282CD1616A204683
:105470008847E069012826D1002000900598A1699D
:10548000002342181946204601F014FDD8B95020D7
:1054900080F31188BFF34F8FBFF36F8FFEE705983E
:1054A000A06128B1811813462046FFF79FFF0AE04C
:1054B000502080F31188BFF34F8FBFF36F8FFEE74B
:1054C000204600F0ABFC00231A4604A9286801F02E
:1054D0004DF80028AAD107B030BD00000C00002014
:1054E0002DE9FC410F46054600F05CFE01A800F0E6
:1054F00063F80446019818B101F054FCBDE8FC8142
:10550000234EAFB1F0680068B0B30027291B3A46BC
:10551000306800F0FFFC01F045FC0028EED11D4989
:105520004FF080500860BFF34F8FBFF36F8FE5E7F8
:10553000A542EBD801F036FCB0682746C068C468C5
:10554000201D00F0F3FBE069012811D1A0692B4672
:1055500041193A462046FFF749FF012808D10020AB
:105560000346014600902A46204601F0A3FC20B1E4
:10557000616A20468847C1E707E0502080F3118820
:10558000BFF34F8FBFF36F8FFEE70127BEE7000029
:105590000C00002004ED00E00648016B096829B109
:1055A000016BC968C9684968816270474FF0FF3173
:1055B000FAE700001C00002070B5054601F000FB72
:1055C000064E04467068844203D200F009F80120B8
:1055D00000E0002028602046746070BD0C000020B0
:1055E000F8B5194D1FE0C068C4680668201D00F0BA
:1055F0009DFB616A20468847E069012813D1A069B4
:105600003044B04206D924616060211DA86800F0D2
:10561000ADFB08E0002003460146009032462046DC
:1056200001F048FC38B1A86801680029DBD1E968BD
:10563000C5E90210F8BD502080F31188BFF34F8FE9
:10564000BFF36F8FFEE700000C00002008484068A1
:10565000401C4FF0500080F3118804D0BFF34F8FEF
:10566000BFF36F8FFEE7BFF34F8FBFF36F8FFEE780
:1056700000000020074CA068016841B1C06800210B
:10568000D0F80000FFF72CFFFFF7CCFEF3E7012175
:105690000020F7E70C00002070B5044600F08AFBFC
:1056A00004F124050AE0606A58B1284601F040FB85
:1056B00008B100F081FCA06C401EA064A06C002822
:1056C000F1DC4FF0FF36A66400F094FB00F072FBB3
:1056D00004F110050AE0206958B1284601F028FBC2
:1056E00008B100F069FC606C401E6064606C0028CA
:1056F000F1DC6664BDE8704000F07CBB02B10122C1
:10570000FBF7D8BD2DE9F0410546002700F04AFD22
:10571000314E306808B9FFF709FEF06805424BD1F9
:10572000C5B3083568070ED005F00700C0F10800C2
:105730000544680707D0502080F31188BFF34F8FCE
:10574000BFF36F8FFEE72DB37068854234D82248CF
:10575000103001460C6801E020460C466168A94201
:1057600002D221680029F7D131688C4224D0076821
:105770002168016060680837411B10290FD9601942
:10578000420708D0502080F31188BFF34F8FBFF33A
:105790006F8FFEE710E041606560FFF701FE616812
:1057A0007068401A7060B268904200D2B060F068D1
:1057B00001430020C4E9000101F0F4FA780707D0A2
:1057C000502080F31188BFF34F8FBFF36F8FFEE738
:1057D0003846BDE8F0810000540000200449086804
:1057E00018B10868026D521C026508687047000015
:1057F0001C00002010B5031F4FF080741C601B1F9D
:105800001960191F044B0B6014390A60091F6FF0EF
:10581000020244380A6010BD4D5600082DE9F74FCA
:10582000002790468B463D463A460098FEF7DCF846
:10583000012259460098FBF73DFD40F6B83000F0D4
:1058400047FA002259460098FBF734FD4FF4FA60FE
:1058500000F03EFA012259460098FBF72BFD012289
:1058600059460098FEF7C0F84FF47A6000F046FA07
:10587000504C06E020680069C00702D0012000F00B
:105880009BB859460098FBF710FD0128F2D0494813
:10589000FDF7C3F84FF4E156304600F02FFA05E06B
:1058A00020680069C00701D00220E8E75946009847
:1058B000FBF7FBFC0028F3D03E48FDF7AEF830467E
:1058C00000F01CFA05E020680069C00701D0032041
:1058D000D5E759460098FBF7E8FC0128F3D0354896
:1058E000FDF79BF8002649F64049484600F006FAC5
:1058F00003E020680069C00711D159460098FBF702
:10590000D4FC0128F5D02B48FDF787F84FF4AF50B1
:1059100000F0F4F905E020680069C00701D0042018
:10592000ADE759460098FBF7C0FC0028F3D02148AA
:10593000FDF773F84FF4C85000F0E0F904E0006997
:10594000C00701D005209AE759460098FBF7ADFC47
:1059500001282068F3D0406A5021B0FBF1FA1548C5
:10596000FDF75BF8AAF10F0014280ED92D38142882
:105970001CD8202E04D24FF00040F040054304E034
:10598000A6F120018020C8400743761CF6B2282EDD
:10599000ABD305EB152000EB154000EB1560C0B252
:1059A000B84205D10020C8F8005068E7062066E735
:1059B000072064E7842300201EBCBDE8E08F0000C0
:1059C000402807D0802807D0B0F5807F01D1034858
:1059D000007870470248FBE70248F9E7D40000204E
:1059E000CC000020D000002008B5174E174D184CF1
:1059F0004FF47A774FF4806841F2883900233A46B1
:105A00006946306800F0B2FD0028F7D000F0CAFB0C
:105A1000434628462A460421FFF716FB009001F072
:105A2000C1F900234A461946206800F09FFD00286E
:105A3000E4D008A00099FEF777FD00231A46194626
:105A4000206800F08BFED9E7A40000200004004885
:105A50008400002047617264656E2074616E6B2063
:105A60007761746572206C6576656C203D202564D5
:105A700020636D0D0A0000000FB4F0B587B000255B
:105A8000DDE9260600900120CDE901050395049586
:105A900069460CA80595FAF71FFE0CA8FBF75AFA01
:105AA00000244FF47A7709E039460CA8FBF7B6F9E1
:105AB0000CA8FBF754F8641C0544E4B2B442F3D8D4
:105AC0000CA8FBF7BBFAB5FBF6F007B0F0BC5DF82D
:105AD00014FB00001CB50020DFF89C80274F8DF8D8
